:100000000C9434000C9451000C9451000C94510049
:100010000C9451000C942B010C9451000C94510041
:100020000C9451000C9451000C9451000C9451000C
:100030000C9451000C9451000C9451000C945100FC
:100040000C9453000C9451000C9451000C945100EA
:100050000C9451000C9451000C9451000C945100DC
:100060000C9451000C94510011241FBECFEFD8E026
:10007000DEBFCDBF11E0A0E0B1E0E8E1FEE102C0EB
:1000800005900D92AC34B107D9F721E0ACE4B1E0B2
:1000900001C01D92A539B207E1F70E94D3060C9466
:1000A0000A0F0C9400001F920F920FB60F921124AA
:1000B0008F939F93AF93BF93EF93FF9380919101A1
:1000C00090919201A0919301B09194010196A11D8C
:1000D000B11D8093910190939201A0939301B093ED
:1000E000940180918D0190918E01A0918F01B0912A
:1000F00090010196A11DB11D80938D0190938E01F9
:10010000A0938F01B0939001EDE7F1E080819181A0
:10011000A281B3810196A11DB11D80839183A28329
:10012000B383E1E8F1E080819181A281B3810196FE
:10013000A11DB11D80839183A283B383E5E8F1E023
:1001400080819181A281B3810196A11DB11D80831F
:100150009183A283B383E9E8F1E080819181A28158
:10016000B3810196A11DB11D80839183A283B383C6
:10017000EDE5F1E080819181A281B3810196A11D1D
:10018000B11D80839183A283B383E1E6F1E0808196
:100190009181A281B3810196A11DB11D80839183BC
:1001A000A283B383E5E6F1E080819181A281B381EE
:1001B0000196A11DB11D80839183A283B383E9E6DB
:1001C000F1E080819181A281B3810196A11DB11DD1
:1001D00080839183A283B383EDE6F1E080819181F6
:1001E000A281B3810196A11DB11D80839183A28359
:1001F000B383E1E7F1E080819181A281B38101962F
:10020000A11DB11D80839183A283B383E5E7F1E053
:1002100080819181A281B3810196A11DB11D80834E
:100220009183A283B383E9E7F1E080819181A28188
:10023000B3810196A11DB11D80839183A283B383F5
:10024000FF91EF91BF91AF919F918F910F900FBE52
:100250000F901F9018951F920F920FB60F921124B6
:100260002F933F938F939F93AF93BF9380914C01B4
:1002700048998DC08E7F80934C01499962C08D7FD3
:1002800080934C014A9937C08B7F80934C014B9BE4
:100290002EC083FD21C0886080934C01809189012C
:1002A00090918A01A0918B01B0918C0126B5BA2F53
:1002B000A92F982F8827822B8093590190935A0158
:1002C000A0935B01B0935C011092890110928A01A6
:1002D00010928B0110928C01BF91AF919F918F91E1
:1002E0003F912F910F900FBE0F901F901895877F11
:1002F00080934C01F1CF82FDCACF282F2460209338
:100300004C018091850190918601A0918701B09167
:10031000880136B5BA2FA92F982F8827832B809371
:10032000550190935601A0935701B0935801109234
:100330008501109286011092870110928801822F08
:10034000A6CF81FD9FCF282F226020934C01809162
:10035000810190918201A0918301B091840136B511
:10036000BA2FA92F982F8827832B80935101909320
:100370005201A0935301B093540110928101109245
:1003800082011092830110928401822F7BCF80FD25
:1003900074CF282F216020934C0180917D01909192
:1003A0007E01A0917F01B091800136B5BA2FA92FAF
:1003B000982F8827832B80934D0190934E01A09313
:1003C0004F01B093500110927D0110927E01109266
:1003D0007F0110928001822F50CF84E080936800CB
:1003E0008FE080936D000895F89480919101909131
:1003F0009201A0919301B091940126B5789466275B
:10040000782F892F9A2F622B0895F89480918D016F
:1004100090918E01A0918F01B091900126B57894B2
:100420006627782F892F9A2F622B0895F8941092BF
:100430008D0110928E0110928F011092900178948C
:100440000895F894109291011092920110929301E4
:100450001092940178940895F894E82FF0E0EE0F4C
:10046000FF1FEE0FFF1FE359FE4F80819181A28194
:10047000B38126B578946627782F892F9A2F622B1F
:100480000895F894E82FF0E0EE0FFF1FEE0FFF1F26
:10049000E358FE4F80819181A281B38126B5789483
:1004A0006627782F892F9A2F622B0895F894E82FCA
:1004B000F0E0EE0FFF1FEE0FFF1FE35AFE4F8081AB
:1004C0009181A281B38126B578946627782F892FF0
:1004D0009A2F622B0895F89414BC82E085BD16BC57
:1004E000EEE6F0E080818160808310928D011092B1
:1004F0008E0110928F011092900110929101109232
:100500009201109293011092940110926D01109239
:100510006E0110926F011092700110927101109291
:100520007201109273011092740110927501109271
:100530007601109277011092780110927901109251
:100540007A0110927B0110927C0110927D01109231
:100550007E0110927F011092800110928101109211
:1005600082011092830110928401109285011092F1
:1005700086011092870110928801109289011092D1
:100580008A0110928B0110928C0110925D011092E1
:100590005E0110925F011092600110926101109251
:1005A0006201109263011092640110926501109231
:1005B0006601109267011092680110926901109211
:1005C0006A0110926B0110926C017894089524983E
:1005D0002C9A259A8AB1807F8AB98BB1807F8BB99A
:1005E0008AB18F708AB98BB18F708BB984B18F60EB
:1005F00084B9089587B1807C87B988B1807C88B937
:100600008FE380937E00EAE7F0E080E8808380E279
:1006100080937C0080818760808380818064808378
:100620000895863010F480E20895823110F480E15C
:100630000895823210F488E00895803310F487E042
:1006400008958F3310F486E008958D3410F485E01A
:1006500008958B3510F484E00895893610F483E012
:100660000895873710F482E008950C94AD060F9337
:100670001F938034D9F1803209F455C0803109F4D8
:100680006BC0883011F1843009F47BC0823009F4EA
:1006900083C091E0980F933008F485C08E3F09F431
:1006A00093C08C3F09F497C0883F09F49FC0803FF6
:1006B00009F47CC087FDA4C0A82FBB27A7FDB09577
:1006C0009A01AB010E94E80E0EC0CB01BA01660F81
:1006D000771F881F991F660F771F881F991F660F46
:1006E000771F881F991F1F910F910895CB01BA01A1
:1006F000660F771F881F991F660F771F881F991F26
:10070000660F771F881F991F660F771F881F991F15
:10071000660F771F881F991F660F771F881F991F05
:100720001F910F910895CB01BA01660F771F881FA3
:10073000991F660F771F881F991F660F771F881FE5
:10074000991F660F771F881F991F660F771F881FD5
:10075000991F1F910F910895CB01BA01660F771F62
:10076000881F991F660F771F881F991F660F771FB5
:10077000881F991F660F771F881F991F1F910F9160
:100780000895CB01BA01660F771F881F991F660F66
:10079000771F881F991FA7CFCB01BA01660F771F5C
:1007A000881F991FA0CFCB01BA019DCFCB01BA0101
:1007B00044E096958795779567954A95D1F76C595A
:1007C0007F4F8F4F9F4F8FCFCB01BA019695879563
:1007D0007795679588CFCB01BA01969587957795E0
:1007E000679596958795779567957DCFCB01BA01EB
:1007F00053E096958795779567955A95D1F773CF7E
:10080000282F332721950CF430958901222717FDD5
:100810002095322FCB01BA01A90198010E94C60E82
:10082000CA01B90160CFCF92DF92EF92FF920F938E
:100830001F938A019B01E82FE095E430F8F401331F
:1008400045E714072105310508F44BC060E177E264
:1008500080E090E00051174221093109EA3F28F475
:10086000061717072807390710F4C901B8011F91A7
:100870000F91FF90EF90DF90CF900895EE30B0F49D
:10088000CB01BA01F5E09695879577956795FA952E
:10089000D1F7013345E714072105310540F36031F5
:1008A00047E274078105910588F2D4CFE83148F119
:1008B000E23288F5CB01BA01B5E096958795779538
:1008C0006795BA95D1F76801790144E0F694E79409
:1008D000D794C7944A95D1F76C0D7D1D8E1D9F1D31
:1008E000D8CFC901B801A6E0969587957795679509
:1008F000AA95D1F71F910F91FF90EF90DF90CF90C5
:100900000895CB01BA0154E0969587957795679540
:100910005A95D1F7BECFEC32C8F0E63308F5CB01DB
:10092000BA0155E096958795779567955A95D1F7D1
:1009300068017901F3E0F694E794D794C794FA95A7
:10094000D1F76C0D7D1D8E1D9F1DA3CFCB01BA016C
:10095000A3E09695879577956795AA95D1F799CF56
:10096000E034B8F4CB01BA01B4E096958795779559
:100970006795BA95D1F76801790143E0F694E79459
:10098000D794C7944A95D1F76C0D7D1D8E1D9F1D80
:1009900080CFEA3420F5CB01BA0154E096958795D3
:1009A000779567955A95D1F768017901F3E0F69448
:1009B000E794D794C794FA95D1F76C0D7D1D8E1DE1
:1009C0009F1D68017901A5E0F694E794D794C79438
:1009D000AA95D1F76C0D7D1D8E1D9F1D5ACFE53553
:1009E00058F4CB01BA0196958795779567959695BA
:1009F0008795779567954DCFEE35C0F4CB01BA0159
:100A0000A4E09695879577956795AA95D1F76801A3
:100A10007901F694E794D794C794F694E794D79421
:100A2000C7946C0D7D1D8E1D9F1D33CFE836C0F41D
:100A3000CB01BA0153E096958795779567955A95BE
:100A4000D1F768017901F694E794D794C794F694A6
:100A5000E794D794C7946C0D7D1D8E1D9F1D19CFF3
:100A6000E23728F5CB01BA01A3E0969587957795F3
:100A70006795AA95D1F768017901F694E794D79420
:100A8000C794F694E794D794C7946C0D7D1D8E1D82
:100A90009F1D6801790144E0F694E794D794C794C8
:100AA0004A95D1F76C0D7D1D8E1D9F1DF2CEEC3841
:100AB00038F4CB01BA019695879577956795E9CE7D
:100AC000E639A0F4CB01BA0145E096958795779574
:100AD00067954A95D1F768017901F694E794D79420
:100AE000C7946C0D7D1D8E1D9F1DD3CEE03AA0F4E2
:100AF000CB01BA01A4E09695879577956795AA955D
:100B0000D1F768017901F694E794D794C7946C0DF6
:100B10007D1D8E1D9F1DBDCEEA3A08F5CB01BA01A1
:100B2000F4E09695879577956795FA95D1F76801E2
:100B30007901F694E794D794C7946C0D7D1D8E1DB2
:100B40009F1D68017901A5E0F694E794D794C794B6
:100B5000AA95D1F76C0D7D1D8E1D9F1D9ACEE43B8D
:100B6000A0F4CB01BA0143E09695879577956795F8
:100B70004A95D1F768017901F694E794D794C79420
:100B80006C0D7D1D8E1D9F1D84CEEE3B50F4CB0160
:100B9000BA01B3E09695879577956795BA95D1F7A1
:100BA000C6CFE83C08F5CB01BA0153E0969587958E
:100BB000779567955A95D1F768017901F694E7948E
:100BC000D794C7946C0D7D1D8E1D9F1D6801790102
:100BD000A4E0F694E794D794C794AA95D1F76C0D46
:100BE0007D1D8E1D9F1D55CEE23D70F5CB01BA01D6
:100BF000F3E09695879577956795FA95D1F7680113
:100C00007901F694E794D794C7946C0D7D1D8E1DE1
:100C10009F1D68017901B4E0F694E794D794C794D6
:100C2000BA95D1F76C0D7D1D8E1D9F1D6801790150
:100C300045E0F694E794D794C7944A95D1F76C0DA4
:100C40007D1D8E1D9F1D25CEEC3DA8F4CB01BA0164
:100C500096958795779567959695879577956795F6
:100C600068017901F694E794D794C7946C0D7D1DC3
:100C70008E1D9F1D0ECEE63E58F4CB01BA0196950F
:100C8000879577956795969587957795679594CF8E
:100C9000E03F10F5CB01BA0196958795779567955A
:100CA000969587957795679568017901F694E7940D
:100CB000D794C7946C0D7D1D8E1D9F1D6801790111
:100CC00053E0F694E794D794C7945A95D1F76C0DF6
:100CD0007D1D8E1D9F1DDDCDEA3F78F5CB01BA014C
:100CE0009695879577956795969587957795679566
:100CF00068017901F694E794D794C7946C0D7D1D33
:100D00008E1D9F1D68017901F3E0F694E794D79456
:100D1000C794FA95D1F76C0D7D1D8E1D9F1D68013E
:100D20007901A4E0F694E794D794C794AA95D1F7F3
:100D30006C0D7D1D8E1D9F1DACCD85E07695679554
:100D4000579547958A95D1F768017901C41AD50A54
:100D5000E60AF70AC701B6019CCD843890F08139C4
:100D600090F08F3990F08D3A90F08B3B90F0893C69
:100D700090F0883D90F0863E90F0833F90F484EFB1
:100D8000089581E008958EEF08958DEF08958CEF1A
:100D900008958BEF08958AEF089589EF089588EFFD
:100DA000089580EF0895CF93DF93CDB7DEB7CD5F81
:100DB000D1090FB6F894DEBF0FBECDBF4E0129ECAE
:100DC000820E911C80E1D401E82F1D92EA95E9F78B
:100DD0006E01F9EBCF0ED11CD601E82F1D92EA95DA
:100DE000E9F79E0127553F4FCD50DF4F39832883C8
:100DF000C35FD040D901E82F1D92EA95E9F75E0163
:100E0000F9E9AF0EB11CD5011D928A95E9F7C351DE
:100E1000DF4F188219821A821B82CD5ED040C751E3
:100E2000DF4F188219821A821B82C95ED04081E08E
:100E3000CB51DF4F8883C55ED040CA51DF4F8883D6
:100E4000C65ED040C951DF4F8883C75ED040C851CD
:100E5000DF4F8883C85ED040FE01E35BFF4FCF5079
:100E6000DF4FF983E883C15FD0409CE4292F1192C2
:100E70002A95E9F7E0E0F1E0DE01119601900D928C
:100E80009A95E1F790E5CF51DF4F9883C15ED0404E
:100E90009FE7CE51DF4F9883C25ED040CD51DF4FE8
:100EA0009883C35ED040CC51DF4F9883C45ED0405E
:100EB000C352DF4F9883CD5DD040C252DF4F98833D
:100EC000CE5DD040C152DF4F9883CF5DD040C0523D
:100ED000DF4F9883C05ED040C752DF4F8883C95D23
:100EE000D040C652DF4F8883CA5DD040C552DF4F25
:100EF0008883CB5DD040C452DF4F8883CC5DD04027
:100F00000E946B020E94E70284E0809368008FE0F9
:100F100080936D000E94FA028FE19EE40197F1F741
:100F200000C000002D98289829982A982B98C7501F
:100F3000DF4F1882C95FD040CB50DF4F1882C55FAA
:100F4000D040212C312CC850DF4F1882C85FD040D0
:100F5000C950DF4F1882C75FD040412C512C32015D
:100F6000ADE4B0E0AC0FBD1F5396C650DF4FB98360
:100F7000A883CA5FD040CB50DF4FB881C55FD04057
:100F8000BF5FCB50DF4FB883C55FD040B43008F0AF
:100F9000CAC3EB2EF12C89B190E00E2C02C09595BE
:100FA00087950A94E2F78701000F111F000F111FA8
:100FB00080FF66C3F801E35BFE4F80819181A281CF
:100FC000B381892B8A2B8B2B09F45AC34081518121
:100FD00062817381D401A00FB11F4D935D936D9316
:100FE0007C9313971082118212821382F894F80175
:100FF000E35AFE4F10821182128213827894E1EE3E
:10100000F0E0EC0FFD1FEE0DFF1D8081863008F033
:1010100058C450E2CA50DF4F5883C65FD040452FB6
:10102000E9EDF0E0EC0FFD1FEE0DFF1D4083F40134
:10103000E00FF11F6081718182819381CA50DF4F7F
:10104000F881C65FD040F03209F458C42F2FF03138
:1010500009F485C4F83009F4A5C4F43009F4B1C426
:10106000F23009F4B9C42F5F233008F410C5CA5018
:10107000DF4FA881C65FD040AE3F09F42CC5AC3F1E
:1010800009F430C5A83F09F438C5A03F09F44FC59D
:10109000A7FD65C5BB27A7FDB0959B01AC010E94CC
:1010A000E80EAB01BC01F601E00FF11F4083518354
:1010B00062837383EDEDF0E0EC0FFD1FEE0DFF1D7D
:1010C00080810E941304E9EAF0E0EC0FFD1FE00FBD
:1010D000F11F6083718382839383CA50DF4F8881BD
:1010E000C65FD040823044F4E5EEF0E0EC0FFD1F27
:1010F000EE0DFF1D91E09083A3E1AE9DC001AF9D79
:10110000900D1124EDE4F0E0EC0FFD1FE80FF91F46
:10111000A1E0B0E0AC0FBD1FA80FB91FC650DF4F54
:1011200028813981CA5FD040820F931FCA50DF4F98
:101130003881C65FD040432F552747FD509565EE57
:1011400070E06C0F7D1F6E0D7F1DC450DF4FB983A3
:10115000A883CC5FD04030813F5F3083C450DF4FE5
:10116000A881B981CC5FD0402D91C450DF4FB983A5
:10117000A883CC5FD040321730F030E042175307DD
:1011800009F471C210823196E817F90721F789B185
:1011900090E097012C5F3F4F02C0959587952A9567
:1011A000E2F7EDEEF0E0EC0FFD1FEE0DFF1D80FF0E
:1011B0005EC2808181115CC225B181E090E00E2C7D
:1011C00001C0880F0A94EAF78095822385B953E11C
:1011D0005E9DF0015F9DF00D11248DE490E08C0F79
:1011E0009D1FE80FF91F1082118212821382148250
:1011F000158216821782108611861286138614862F
:10120000158616861786108A118A128AF894F801B4
:10121000E35AFE4F80819181A281B38126B5BA2F16
:10122000A92F982F8827822B78948701000F111FF0
:10123000000F111FF501E00FF11F80839183A2833E
:10124000B383E9EEF0E0EC0FFD1FEE0DFF1D21E092
:101250002083EDEEF0E0EC0FFD1FEE0DFF1D20836F
:10126000E5EEF0E0EC0FFD1FEE0DFF1D1082E9ED45
:10127000F0E0EC0FFD1FEE0DFF1D208122300CF47D
:1012800085C2F601E00FF11F4081518162817381B7
:10129000481759076A077B0738F4F501E00FF11F7B
:1012A0001082118212821382F894F801E35AFE4FE1
:1012B00080819181A281B38126B578948701000F46
:1012C000111F000F111FF501E00FF11FBA2FA92FF9
:1012D000982F8827822B40815181628173818417E6
:1012E0009507A607B70790F0E5EEF0E0EC0FFD1FBD
:1012F000EE0DFF1D8081882349F0A9EEB0E0AC0F10
:10130000BD1FAE0DBF1D31E03C931082F601E00F12
:10131000F11F80819181A281B381892B8A2B8B2B34
:1013200009F427C2E9EEF0E0EC0FFD1FEE0DFF1D02
:1013300080818823A1F01082F894F801E359FE4FD0
:101340001082118212821382789425B181E090E09C
:101350000E2C01C0880F0A94EAF7282B25B9F894BF
:10136000F801E359FE4F80819181A281B38126B5B6
:10137000BA2FA92F982F8827822B78948701000FE6
:10138000111F000F111FE9EAF0E0EC0FFD1FE00F45
:10139000F11F408151816281738184179507A607EF
:1013A000B70758F045B121E030E00E2C01C0220F04
:1013B0000A94EAF72095242325B9F601E00FF11FDE
:1013C0004081518162817381481759076A077B0701
:1013D000D8F4841B950BA60BB70B892F9A2FAB2F34
:1013E000BB27F894F801E359FE4F80839183A283D1
:1013F000B383789485B141E050E002C0440F551F9B
:10140000EA94E2F7842B85B91C9995C1F8948091F0
:10141000910190919201A0919301B091940126B510
:10142000BA2FA92F982F8827822B7894C850DF4F86
:10143000E881C85FD040E111B7C1F89410929101E2
:101440001092920110929301109294017894F89462
:1014500010928D0110928E0110928F0110929001C6
:1014600078942D9A2C013D01F1E0C850DF4FF883AC
:10147000C85FD040C950DF4F1882C75FD0404114C9
:1014800051046104710409F46FC1F89480918D01D5
:1014900090918E01A0918F01B091900126B5BA2F45
:1014A000A92F982F8827822B7894B301A2017695D3
:1014B00067955795479584179507A607B70708F0CE
:1014C0002D98481659066A067B0698F484199509E2
:1014D000A609B709892F9A2FAB2FBB27F8948093C1
:1014E0008D0190938E01A0938F01B0939001789419
:1014F0002D9AAFEF2A1A3A0AB5E62B1631040CF4EE
:101500003ACD80917A0084FF36CD80917A00806157
:1015100080937A0080917900C750DF4F3880C95F8F
:10152000D0403394E7E0E31508F476C1932D906240
:1015300090937C0090917A00906490937A00C750C9
:10154000DF4FF881C95FD040F43008F06EC10F2F33
:1015500010E0E1EEF0E0EC0FFD1FE00FF11F9081D5
:10156000891708F0C2C1492F50E0481B510966276E
:1015700057FD6095762F423051056105710508F4DD
:1015800098C1E1EEF0E0EC0FFD1FE00FF11F80834A
:10159000E9EDF0E0EC0FFD1FE00FF11F2080863039
:1015A00008F0F0C1A0E2E9EDF0E0EC0FFD1FE00F64
:1015B000F11FA0837801EE0CFF1CEE0CFF1CF40160
:1015C000EE0DFF1D6081718182819381A03209F44B
:1015D0000AC2A03109F41EC2A83009F433C2A430F3
:1015E00009F44AC2A23009F46FC231E03A0F333035
:1015F00008F4ABC2AE3F09F4ABC2AC3F09F4BEC2C3
:10160000A83F09F4C6C2A03F09F4DDC2A7FD19C373
:10161000BB27A7FDB0959B01AC010E94E80EAB0172
:10162000BC01F601EE0DFF1D40835183628373837D
:10163000EDEDF0E0EC0FFD1FE00FF11F80810E9447
:101640001304E9EAF0E0EC0FFD1FEE0DFF1D6083CF
:10165000718382839383C750DF4F3882C95FD04044
:10166000212C312C88CC21E0DB012C938BCD1082F6
:10167000F501E00FF11F80819181A281B381F7CD47
:10168000F894F801E35AFE4F4081518162817381E1
:1016900026B578948701000F111F000F111FF40168
:1016A000E00FF11F80819181A281B381880F991F82
:1016B000AA1FBB1F762F652F542F4427422B841758
:1016C0009507A607B70708F062CDF601E00FF11FF6
:1016D0001082118212821382F501E00FF11F108235
:1016E00011821282138233E13E9DF0013F9DF00D85
:1016F00011244DE450E04C0F5D1FE40FF51F1082E4
:101700001182128213821482158216821782108629
:101710001186128613861486158616861786108AF9
:10172000118A128A34CDE12CF12CCB50DF4F188274
:10173000C55FD04030CCC950DF4F4881C75FD04033
:10174000411152C02D98C850DF4F1882C85FD04059
:1017500051E0C950DF4F5883C75FD0404114510456
:101760006104710409F091CE2D98412C512C320165
:10177000C0CE85B1A1E0B0E002C0AA0FBB1FEA94C1
:10178000E2F77D01E094E822E5B83ECEF401E00FF7
:10179000F11F4081518162817381481759076A079F
:1017A0007B0708F081CD79CD81309543AC40B10500
:1017B00038F1F89410928D0110928E0110928F01E1
:1017C0001092900178942D9831E0C850DF4F388303
:1017D000C85FD040C950DF4F1882C75FD0402D98F6
:1017E000412C512C320185CEC850DF4F1882C85F82
:1017F000D04091E0C950DF4F9883C75FD0403FCEC3
:1018000081E0C850DF4F8883C85FD040C950DF4FA8
:101810001882C75FD04033CE90E290937C009091C5
:101820007A00906490937A00312CC750DF4F088182
:10183000C95FD040045010E0EDEDF0E0EC0FFD1F6B
:10184000E00FF11F9081891708F046C0492F50E042
:10185000481B5109662757FD6095762F4430510586
:101860006105710530F1EDEDF0E0EC0FFD1FE00FCB
:10187000F11F8083000F111F000F111FF601E00FF1
:10188000F11F40815181628173810E941304E9EA52
:10189000F0E0EC0FFD1FE00FF11F60837183828386
:1018A0009383C750DF4F3882C95FD040212C312C41
:1018B00062CBC750DF4F3882C95FD040212C312C1A
:1018C0005ACB823108F063C080E1CA50DF4F888371
:1018D000C65FD040482FA4CB482F50E0491B510988
:1018E000662757FD6095762FB9CF482F50E0491BEA
:1018F0005109662757FD6095762F3DCEAB01BC019F
:10190000440F551F661F771F440F551F661F771F13
:10191000440F551F661F771F440F551F661F771F03
:10192000440F551F661F771FF601E00FF11F40831C
:10193000518362837383EDEDF0E0EC0FFD1FEE0D3C
:10194000FF1D80810E941304E9EAF0E0EC0FFD1F07
:10195000E00FF11F6083718382839383CDCBAB0152
:10196000BC01440F551F661F771F440F551F661F8C
:10197000771F440F551F661F771F440F551F661FA3
:10198000771FD2CF823108F058C0A0E10CCE82324E
:1019900008F067C098E0CA50DF4F9883C65FD04018
:1019A000492F3ECBAB01BC01440F551F661F771F6B
:1019B000440F551F661F771F440F551F661F771F63
:1019C000B3CFAB01BC01440F551F661F771F440FF7
:1019D000551F661F771FA8CFAB01BC01440F551FD1
:1019E000661F771FA1CFAB01BC01440F551F661FB7
:1019F000771F440F551F661F771F440F551F661F23
:101A0000771F440F551F661F771F440F551F661F12
:101A1000771F07CEAB01BC01440F551F661F771F10
:101A2000440F551F661F771F440F551F661F771FF2
:101A3000440F551F661F771FF4CD823208F067C030
:101A4000A8E0B1CDAB01BC01440F551F661F771F45
:101A5000440F551F661F771F440F551F661F771FC2
:101A6000E0CD803308F058C0A7E0CA50DF4FA8830C
:101A7000C65FD0404A2FD4CAAB01BC01440F551FEA
:101A8000661F771F440F551F661F771FCACDAB0116
:101A9000BC01F601E00FF11F408351836283738321
:101AA000EDEDF0E0EC0FFD1FEE0DFF1D80810E94BB
:101AB0001304E9EAF0E0EC0FFD1FE00FF11F608373
:101AC00071838283938310CBAB01BC01440F551FFC
:101AD000661F771FA6CDAB01BC017695679557951C
:101AE0004795D7CFAB01BC0176956795579547953C
:101AF0007695679557954795CCCFAB01BC01A3E090
:101B00007695679557954795AA95D1F7C2CF8033BB
:101B100008F049C0A7E047CD8F3308F049C0B6E0D0
:101B2000CA50DF4FB883C65FD0404B2F79CAAB0194
:101B3000BC01F4E07695679557954795FA95D1F7EE
:101B40004C595F4F6F4F7F4FA4CFAB01BC0169CDA4
:101B5000AB01BC01769567955795479562CD4A2FA5
:101B6000552741950CF450959A01442737FD40952F
:101B7000542F0E94C60EBA01A90195CAAB01BC013F
:101B800076956795579547957695679557954795B7
:101B900048CDAB01BC0133E07695679557954795E5
:101BA0003A95D1F73ECD8F3308F047C0A6E0FBCC85
:101BB0008D3408F055C0E5E0CA50DF4FE883C65FBA
:101BC000D0404E2F2DCAAB01BC0124E0769567951D
:101BD000579547952A95D1F74C595F4F6F4F7F4FD7
:101BE000F601EE0DFF1D4083518362837383EDED9B
:101BF000F0E0EC0FFD1FE00FF11F80810E94130445
:101C0000E9EAF0E0EC0FFD1FEE0DFF1D608371832C
:101C10008283938320EF221609F44BCEF501EE0D5B
:101C2000FF1D1082118212821382C750DF4F38824B
:101C3000C95FD040212C312C9EC98D34D8F4A5E049
:101C4000B2CC4A2F552741950CF450959A01442760
:101C500037FD4095542F0E94C60EBA01A901E1CC70
:101C60008B3560F4F4E0CA50DF4FF883C65FD04094
:101C70004F2FD6C98B3560F4A4E095CC893660F43B
:101C800023E0CA50DF4F2883C65FD040422FC8C927
:101C9000893660F4A3E087CC873760F432E0CA501D
:101CA000DF4F3883C65FD040432FBAC98737D0F59E
:101CB000A2E079CC0E94AD06CA50DF4F8883C65F90
:101CC000D040E9EDF0E0EC0FFD1FEE0DFF1D80832D
:101CD000F401E00FF11F6081718182819381CA500C
:101CE000DF4FE881C65FD040E03409F0A7C9AB01FF
:101CF000BC01440F551F661F771F440F551F661FF9
:101D0000771F440F551F661F771F440F551F661F0F
:101D1000771F440F551F661F771F440F551F661FFF
:101D2000771F02CE0E94AD06A82FE9EDF0E0EC0F80
:101D3000FD1FE00FF11F80837801EE0CFF1CEE0CFD
:101D4000FF1CF401EE0DFF1D608171818281938182
:101D5000A03409F03BCCAB01BC01440F551F661FFA
:101D6000771F440F551F661F771F440F551F661FAF
:101D7000771F440F551F661F771F440F551F661F9F
:101D8000771F440F551F661F771F4BCCA1E21A2EF9
:101D9000AA1BBB1BFD010DC0AA1FBB1FEE1FFF1F0F
:101DA000A217B307E407F50720F0A21BB30BE40B5F
:101DB000F50B661F771F881F991F1A9469F76095A6
:101DC0007095809590959B01AC01BD01CF01089560
:101DD000B7FF0C94F00E0E94F00E821B930B089537
:101DE0000E94FB0EA59F900DB49F900DA49F800DA7
:101DF000911D11240895A29FB001B39FC001A39F1C
:101E0000700D811D1124911DB29F700D811D112433
:081E1000911D0895F894FFCF25
:101E1800F0F4F8F9FAFBFCFDFE01020304050607DD
:101E2800081020F0F4F8F9FAFBFCFDFE01020304A7
:101E3800050607081020F0F4F8F9FAFBFCFDFE018E
:101E4800020304050607081020F0F4F8F9FAFBFC71
:0C1E5800FDFE010203040506070810202F
:00000001FF
