:100000000C9434000C9451000C9451000C94510049
:100010000C9451000C942B010C9451000C94510041
:100020000C9451000C9451000C9451000C9451000C
:100030000C9451000C9451000C9451000C945100FC
:100040000C9453000C9451000C9451000C945100EA
:100050000C9451000C9451000C9451000C945100DC
:100060000C9451000C94510011241FBECFEFD8E026
:10007000DEBFCDBF11E0A0E0B1E0EEEBFFE202C0D9
:1000800005900D92AC34B107D9F721E0ACE4B1E0B2
:1000900001C01D92A839B207E1F70E946E060C94C8
:1000A000DD170C9400001F920F920FB60F921124CF
:1000B0008F939F93AF93BF93EF93FF93809194019E
:1000C00090919501A0919601B09197010196A11D83
:1000D000B11D8093940190939501A0939601B093E4
:1000E00097018091900190919101A0919201B0911E
:1000F00093010196A11DB11D8093900190939101F0
:10010000A0939201B0939301E0E8F1E080819181A6
:10011000A281B3810196A11DB11D80839183A28329
:10012000B383E4E8F1E080819181A281B3810196FB
:10013000A11DB11D80839183A283B383E8E8F1E020
:1001400080819181A281B3810196A11DB11D80831F
:100150009183A283B383ECE8F1E080819181A28155
:10016000B3810196A11DB11D80839183A283B383C6
:10017000E0E6F1E080819181A281B3810196A11D29
:10018000B11D80839183A283B383E4E6F1E0808193
:100190009181A281B3810196A11DB11D80839183BC
:1001A000A283B383E8E6F1E080819181A281B381EB
:1001B0000196A11DB11D80839183A283B383ECE6D8
:1001C000F1E080819181A281B3810196A11DB11DD1
:1001D00080839183A283B383E0E7F1E08081918102
:1001E000A281B3810196A11DB11D80839183A28359
:1001F000B383E4E7F1E080819181A281B38101962C
:10020000A11DB11D80839183A283B383E8E7F1E050
:1002100080819181A281B3810196A11DB11D80834E
:100220009183A283B383ECE7F1E080819181A28185
:10023000B3810196A11DB11D80839183A283B383F5
:10024000FF91EF91BF91AF919F918F910F900FBE52
:100250000F901F9018951F920F920FB60F921124B6
:100260002F938F939F93AF93BF9380914C014899A5
:100270007AC08E7F80934C01499955C08D7F8093C1
:100280004C014A9930C08B7F80934C014B9B27C017
:1002900083FD1BC0886080934C0180918C019091FC
:1002A0008D01A0918E01B0918F0180935C0190939C
:1002B0005D01A0935E01B0935F0110928C011092DA
:1002C0008D0110928E0110928F01BF91AF919F917D
:1002D0008F912F910F900FBE0F901F901895877FD1
:1002E00080934C01F2CF82FDD1CF282F2460209340
:1002F0004C018091880190918901A0918A01B0916F
:100300008B018093580190935901A0935A01B093A7
:100310005B01109288011092890110928A0110925B
:100320008B01822FB3CF81FDACCF282F2260209389
:100330004C018091840190918501A0918601B0913A
:1003400087018093540190935501A0935601B09377
:10035000570110928401109285011092860110922B
:100360008701822F8ECF80FD87CF282F2160209399
:100370004C018091800190918101A0918201B09106
:1003800083018093500190935101A0935201B09347
:1003900053011092800110928101109282011092FB
:1003A0008301822F69CF84E0809368008FE080937F
:1003B0006D000895F8946091940170919501809179
:1003C00096019091970178940895F8946091900126
:1003D0007091910180919201909193017894089588
:1003E000F894109290011092910110929201109243
:1003F000930178940895F8941092940110929501C5
:10040000109296011092970178940895F89414BC74
:1004100082E085BD16BCEEE6F0E0808181608083DD
:1004200010929001109291011092920110929301FA
:1004300010929401109295011092960110929701DA
:10044000109270011092710110927201109273015A
:10045000109274011092750110927601109277013A
:10046000109278011092790110927A0110927B011A
:1004700010927C0110927D0110927E0110927F01FA
:1004800010928001109281011092820110928301DA
:1004900010928401109285011092860110928701BA
:1004A000109288011092890110928A0110928B019A
:1004B00010928C0110928D0110928E0110928F017A
:1004C000109260011092610110926201109263011A
:1004D00010926401109265011092660110926701FA
:1004E000109268011092690110926A0110926B01DA
:1004F00010926C0110926D0110926E0110926F01BA
:100500007894089524982C9A259A8AB1807F8AB984
:100510008BB1807F8BB98AB18F708AB98BB18F70A4
:100520008BB984B18F6084B9089587B1807C87B915
:1005300088B1807C88B98FE380937E00EAE7F0E0A1
:1005400080E8808380E280937C0080818760808364
:100550008081806480830895863010F480E208955D
:10056000813110F480E10895803210F488E008951C
:100570008E3210F487E008958C3310F486E00895ED
:10058000893410F485E00895873510F484E00895E7
:10059000843610F483E00895813710F482E00895E2
:1005A0000C9448060F931F938034D9F1803209F4DC
:1005B00055C0803109F46BC0883011F1843009F4E2
:1005C0007BC0823009F483C091E0980F933008F427
:1005D00085C08E3F09F493C08C3F09F497C0883FD3
:1005E00009F49FC0803F09F47CC087FDA4C0A82FF8
:1005F000BB27A7FDB0959A01AB010E94BB170EC0A7
:10060000CB01BA01660F771F881F991F660F771FEE
:10061000881F991F660F771F881F991F1F910F91C1
:100620000895CB01BA01660F771F881F991F660FC7
:10063000771F881F991F660F771F881F991F660FE6
:10064000771F881F991F660F771F881F991F660FD6
:10065000771F881F991F1F910F910895CB01BA0131
:10066000660F771F881F991F660F771F881F991FB6
:10067000660F771F881F991F660F771F881F991FA6
:10068000660F771F881F991F1F910F910895CB0147
:10069000BA01660F771F881F991F660F771F881F83
:1006A000991F660F771F881F991F660F771F881F76
:1006B000991F1F910F910895CB01BA01660F771F03
:1006C000881F991F660F771F881F991FA7CFCB011F
:1006D000BA01660F771F881F991FA0CFCB01BA01FF
:1006E0009DCFCB01BA0124E09695879577956795C4
:1006F0002A95D1F76C597F4F8F4F9F4F8FCFCB01EA
:10070000BA01969587957795679588CFCB01BA0101
:10071000969587957795679596958795779567953B
:100720007DCFCB01BA0133E0969587957795679594
:100730003A95D1F773CF282F332721950CF43095B4
:100740008901222717FD2095322FCB01BA01A9017B
:1007500098010E949917CA01B90160CFCF92DF9228
:10076000EF92FF920F931F938A019B01E82FE09570
:10077000E430F8F4013345E714072105310508F4A6
:100780004BC060E177E280E090E000511742210920
:100790003109EA3F28F4061717072807390710F42C
:1007A000C901B8011F910F91FF90EF90DF90CF909A
:1007B0000895EE30B0F4CB01BA0155E096958795D7
:1007C000779567955A95D1F7013345E714072105C9
:1007D000310540F3603147E274078105910588F2E5
:1007E000D4CFE83148F1E23288F5CB01BA01A5E077
:1007F0009695879577956795AA95D1F768017901C0
:10080000B4E0F694E794D794C794BA95D1F76C0DF9
:100810007D1D8E1D9F1DD8CFC901B801E6E09695BC
:10082000879577956795EA95D1F71F910F91FF907E
:10083000EF90DF90CF900895CB01BA0144E09695F8
:100840008795779567954A95D1F7BECFEC32C8F07A
:10085000E63308F5CB01BA0145E096958795779583
:1008600067954A95D1F76801790153E0F694E794CA
:10087000D794C7945A95D1F76C0D7D1D8E1D9F1D81
:10088000A3CFCB01BA01F3E096958795779567954D
:10089000FA95D1F799CFE034B8F4CB01BA01A4E0CE
:1008A0009695879577956795AA95D1F7680179010F
:1008B000B3E0F694E794D794C794BA95D1F76C0D4A
:1008C0007D1D8E1D9F1D80CFEA3420F5CB01BA011E
:1008D00044E096958795779567954A95D1F7680195
:1008E000790153E0F694E794D794C7945A95D1F7D9
:1008F0006C0D7D1D8E1D9F1D68017901F5E0F6943C
:10090000E794D794C794FA95D1F76C0D7D1D8E1D91
:100910009F1D5ACFE53558F4CB01BA0196958795BE
:100920007795679596958795779567954DCFEE3531
:10093000C0F4CB01BA01F4E0969587957795679559
:10094000FA95D1F768017901F694E794D794C794A2
:10095000F694E794D794C7946C0D7D1D8E1D9F1D52
:1009600033CFE836C0F4CB01BA0143E096958795C2
:10097000779567954A95D1F768017901F694E794E0
:10098000D794C794F694E794D794C7946C0D7D1DC3
:100990008E1D9F1D19CFE23728F5CB01BA01F3E078
:1009A0009695879577956795FA95D1F768017901BE
:1009B000F694E794D794C794F694E794D794C794A1
:1009C0006C0D7D1D8E1D9F1D68017901B4E0F694AC
:1009D000E794D794C794BA95D1F76C0D7D1D8E1D01
:1009E0009F1DF2CEEC3838F4CB01BA01969587956D
:1009F00077956795E9CEE639A0F4CB01BA01B5E069
:100A00009695879577956795BA95D1F7680179019D
:100A1000F694E794D794C7946C0D7D1D8E1D9F1D91
:100A2000D3CEE03AA0F4CB01BA01F4E096958795D5
:100A300077956795FA95D1F768017901F694E7946F
:100A4000D794C7946C0D7D1D8E1D9F1DBDCEEA3AB7
:100A500008F5CB01BA0154E096958795779567958F
:100A60005A95D1F768017901F694E794D794C79421
:100A70006C0D7D1D8E1D9F1D68017901F5E0F694BA
:100A8000E794D794C794FA95D1F76C0D7D1D8E1D10
:100A90009F1D9ACEE43BA0F4CB01BA01B3E096953A
:100AA000879577956795BA95D1F768017901F6949E
:100AB000E794D794C7946C0D7D1D8E1D9F1D84CE29
:100AC000EE3B50F4CB01BA01A3E09695879577955C
:100AD0006795AA95D1F7C6CFE83C08F5CB01BA01D6
:100AE00043E096958795779567954A95D1F7680184
:100AF0007901F694E794D794C7946C0D7D1D8E1DF3
:100B00009F1D68017901F4E0F694E794D794C794A7
:100B1000FA95D1F76C0D7D1D8E1D9F1D55CEE23DC2
:100B200070F5CB01BA0153E0969587957795679557
:100B30005A95D1F768017901F694E794D794C79450
:100B40006C0D7D1D8E1D9F1D68017901A4E0F6943A
:100B5000E794D794C794AA95D1F76C0D7D1D8E1D8F
:100B60009F1D68017901B5E0F694E794D794C79486
:100B7000BA95D1F76C0D7D1D8E1D9F1D25CEEC3DC8
:100B8000A8F4CB01BA0196958795779567959695C8
:100B900087957795679568017901F694E794D794DE
:100BA000C7946C0D7D1D8E1D9F1D0ECEE63E58F424
:100BB000CB01BA0196958795779567959695879518
:100BC0007795679594CFE03F10F5CB01BA019695E4
:100BD0008795779567959695879577956795680139
:100BE0007901F694E794D794C7946C0D7D1D8E1D02
:100BF0009F1D6801790143E0F694E794D794C79468
:100C00004A95D1F76C0D7D1D8E1D9F1DDDCDEA3FF0
:100C100078F5CB01BA019695879577956795969566
:100C200087957795679568017901F694E794D7944D
:100C3000C7946C0D7D1D8E1D9F1D6801790153E0C9
:100C4000F694E794D794C7945A95D1F76C0D7D1D0F
:100C50008E1D9F1D68017901F4E0F694E794D79406
:100C6000C794FA95D1F76C0D7D1D8E1D9F1DACCDDF
:100C7000A5E07695679557954795AA95D1F76801B0
:100C80007901C41AD50AE60AF70AC701B6019CCD54
:100C90008E3790F08A3890F0883990F0853A90F04D
:100CA000823B90F0803C90F08E3C90F08B3D90F039
:100CB000883E90F484EF089581E008958EEF0895C2
:100CC0008DEF08958CEF08958BEF08958AEF0895C6
:100CD00089EF089588EF089580EF0895CF93DF930B
:100CE000CDB7DEB7C350D1400FB6F894DEBF0FBE0C
:100CF000CDBF9E0127533F4FCD50DF4F398328830F
:100D0000C35FD04080E1D901E82F1D92EA95E9F751
:100D10001E01F9EB2F0E311CD101E82F1D92EA952F
:100D2000E9F720523109CF50DF4F39832883C15F63
:100D3000D040D901E82F1D92EA95E9F77E01F9E943
:100D4000EF0EF11CD7011D928A95E9F7C351DF4FD1
:100D5000188219821A821B82CD5ED040C751DF4FA4
:100D6000188219821A821B82C95ED04081E0CB5161
:100D7000DF4F8883C55ED040CA51DF4F8883C65E8F
:100D8000D040C951DF4F8883C75ED040C851DF4F84
:100D90008883C85ED0408E01035B1F4F9CE4F8013E
:100DA000292F11922A95E9F7E0E0F1E0DE01119692
:100DB00001900D929A95E1F790E5CF51DF4F98831E
:100DC000C15ED0409FE7CE51DF4F9883C25ED040D6
:100DD000CD51DF4F9883C35ED040CC51DF4F988315
:100DE000C45ED040C352DF4F9883CD5DD040C25225
:100DF000DF4F9883CE5DD040C152DF4F9883CF5DE7
:100E0000D040C052DF4F9883C05ED040C752DF4F02
:100E10008883C95DD040C652DF4F8883CA5DD04009
:100E2000C552DF4F8883CB5DD040C452DF4F8883EB
:100E3000CC5DD0400E9406020E94820284E0809332
:100E400068008FE080936D000E9495028FE19EE420
:100E50000197F1F700C000002D9880914F01807F2D
:100E600080934F01C250DF4F1882CE5FD040CB50ED
:100E7000DF4F1882C55FD040CA50DF4F19821882F9
:100E8000C65FD040C350DF4F1882CD5FD040C45002
:100E9000DF4F1882CC5FD040C850DF4F18821982D4
:100EA0001A821B82C85FD040680193E1C90ED11C31
:100EB0003801A6E26A0E711C2801B9E34B0E511CE1
:100EC000489BA8C68091500190915101A091520178
:100ED000B0915301892B8A2B8B2B09F49BC68091EF
:100EE000500190915101A0915201B0915301C7530B
:100EF000DF4F88839983AA83BB83C95CD04010925B
:100F00005001109251011092520110925301F89425
:100F100010926001109261011092620110926301BF
:100F20007894CF51DF4F8881C15ED040863010F079
:100F30000C944910F0E2BF2EC752DF4FB882C95D52
:100F4000D040C753DF4F288139814A815B81C95C1A
:100F5000D040B0E2BB1611F40C94CC10E0E1BE1608
:100F600011F40C949011F8E0BF1611F40C94F811E0
:100F700064E0B61611F40C943F1272E0B71611F447
:100F80000C949B1281E08B0D833010F40C9424138D
:100F90008EEFB81611F40C9452139CEFB91611F49D
:100FA0000C946413A8EFBA1611F40C94D113B0EF9B
:100FB000BB1611F40C942314B7FE02C00C94FC145D
:100FC000AB2DBB27A7FDB0950E94BB17AB01BC01A1
:100FD000D1014D935D936D937C931397C352DF4F73
:100FE0008881CD5DD0400E94AE03C755DF4F688336
:100FF00079838A839B83C95AD040B1E0BB1534F012
:10100000E1E0CB51DF4FE883C55ED040CB51DF4FED
:101010004881C55ED040F801DE0111962B2D3327A3
:1010200027FD309590819F5F90838D91981730F0C8
:1010300090E02817390709F48DC710823196EC1516
:10104000FD0581F7CB51DF4F4883C55ED040499BFA
:1010500041C68091540190915501A0915601B091E3
:101060005701892B8A2B8B2B09F434C680915401AC
:1010700090915501A0915601B0915701C353DF4F94
:1010800088839983AA83BB83CD5CD040109254019E
:10109000109255011092560110925701F894109237
:1010A00064011092650110926601109267017894B4
:1010B000CE51DF4F8881C25ED040863010F00C9454
:1010C0003C1080E2B82EC652DF4FB882CA5DD040D5
:1010D000C353DF4F288139814A815B81CD5CD04089
:1010E000F0E2BF1611F40C94A01060E1B61611F4F2
:1010F0000C94B61178E0B71611F40C94161284E033
:10110000B81611F40C944A1292E0B91611F40C942A
:10111000A21281E08B0D833010F40C94D812AEEF44
:10112000BA1611F40C943D13BCEFBB1611F40C94D9
:10113000B113E8EFBE1611F40C94EE13F0EFBF16E6
:1011400011F40C946314B7FE02C00C94DA14AB2DA6
:10115000BB27A7FDB0950E94BB17AB01BC01D10115
:1011600014964D935D936D937C931797C252DF4F06
:101170008881CE5DD0400E94AE03C355DF4F6883A7
:1011800079838A839B83CD5AD040B1E0BB1534F07C
:10119000E1E0CA51DF4FE883C65ED040CA51DF4F5D
:1011A0004881C65ED040F601DE0154962B2D3327D0
:1011B00027FD309590819F5F90838D91981730F037
:1011C00090E02817390709F4C7C610823196E61552
:1011D000F70581F7CA51DF4F4883C65ED0404A9B6E
:1011E000DCC58091580190915901A0915A01B091AC
:1011F0005B01892B8A2B8B2B09F4CFC58091580179
:1012000090915901A0915A01B0915B01CF52DF4FEB
:1012100088839983AA83BB83C15DD0401092580113
:101220001092590110925A0110925B01F894109299
:1012300068011092690110926A0110926B01789412
:10124000CD51DF4F8881C35ED040863008F00EC795
:1012500030E2B32EC552DF4FB882CB5DD040CF52C3
:10126000DF4F288139814A815B81C15DD040F0E246
:10127000BF1609F4BDC760E1B61611F40C94A311B2
:1012800078E0B71611F40C94071284E0B81611F444
:101290000C94341292E0B91611F40C94B01281E05F
:1012A0008B0D833010F40C940C13AEEFBA1611F4BE
:1012B0000C944B13BCEFBB1611F40C945913E8EFCC
:1012C000BE1611F40C94F813F0EFBF1611F40C9441
:1012D0007114B7FE02C00C94B814AB2DBB27A7FD48
:1012E000B0950E94BB17AB01BC01D10118964D937C
:1012F0005D936D937C931B97C152DF4F8881CF5DC7
:10130000D0400E94AE03CF54DF4F688379838A8335
:101310009B83C15BD040B1E0BB1534F0E1E0C95123
:10132000DF4FE883C75ED040C951DF4F4881C75EB9
:10133000D040F301DE0197962B2D332727FD309502
:1013400090819F5F90838D91981730F090E02817DF
:10135000390709F403C610823196E415F50581F7C3
:10136000C951DF4F4883C75ED0404B9B79C5809100
:101370005C0190915D01A0915E01B0915F01892BAC
:101380008A2B8B2B09F46CC580915C0190915D01D7
:10139000A0915E01B0915F01CB52DF4F88839983AA
:1013A000AA83BB83C55DD04010925C0110925D01A1
:1013B00010925E0110925F01F89410926C011092ED
:1013C0006D0110926E0110926F017894CC51DF4F35
:1013D0008881C45ED040863008F055C660E2B62EE3
:1013E000C452DF4FB882CC5DD040CB52DF4F288152
:1013F00039814A815B81C55DD040F0E2BF1609F4B6
:1014000074C660E1B61609F4C4C778E0B71611F4E3
:101410000C94251284E0B81611F40C94551292E045
:10142000B91611F40C94A91281E08B0D833010F4DD
:101430000C94F212AEEFBA1611F40C944413BCEFF4
:10144000BB1611F40C94BC13E8EFBE1611F40C9407
:10145000C713F0EFBF1611F40C944614B7FE02C088
:101460000C949614AB2DBB27A7FDB0950E94BB171B
:10147000AB01BC01D1011C964D935D936D937C93A0
:101480001F97C052DF4F8881C05ED0400E94AE03DC
:10149000CB54DF4F688379838A839B83C55BD040BD
:1014A000B1E0BB1534F0E1E0C851DF4FE883C85E1E
:1014B000D040C851DF4F4881C85ED040F201DE0104
:1014C000DA962B2D332727FD309590819F5F9083EF
:1014D0008D91981730F090E02817390709F440C52E
:1014E00010823196EE15FF0581F7C851DF4F488312
:1014F000C85ED040CB50DF4FB881C55FD040BF5FE2
:10150000CB50DF4FB883C55FD040B43008F051C531
:101510008B2F90E0AC014C5F5F4F29B130E002C0EF
:10152000359527954A95E2F7EDEEF0E0EC0FFD1FBB
:10153000E80FF91F20FF16C52081211114C521E0F5
:1015400030E0082E01C0220F0A94EAF7209530916E
:101550004F01322330934F0123E1289FF001299F4F
:10156000F00D1124E00FF11F1082118212821382FC
:1015700014821582168217821086118612861386AF
:101580001486158616861786108A118A128AF89490
:10159000FC01EE0FFF1FEE0FFF1FE05AFE4F4081D0
:1015A00051816281738178949C01220F331F220F35
:1015B000331FF701E20FF31F40835183628373836C
:1015C000E9EEF0E0EC0FFD1FE80FF91FA1E0A083AA
:1015D000EDEEF0E0EC0FFD1FE80FF91FA083E5EE44
:1015E000F0E0EC0FFD1FE80FF91F1082E9EDF0E0CD
:1015F000EC0FFD1FE80FF91FE081E2300CF4E3C4AB
:10160000F101E20FF31F80809180A280B3808416E5
:101610009506A606B70638F4F701E20FF31F10820D
:10162000118212821382F894F901E05AFE4F408130
:101630005181628173817894FC01EE0FFF1FEE0FE0
:10164000FF1FEE0DFF1D80809180A280B3804815A2
:1016500059056A057B0590F0E5EEF0E0EC0FFD1F03
:10166000E80FF91F2081222349F0A9EEB0E0AC0F6A
:10167000BD1FA80FB91F21E02C931082F1018081BA
:101680009181A281B3810097A105B10509F48BC4B2
:10169000C751DF4F2881C95ED0402223C9F0C7510E
:1016A000DF4F1882C95ED040F894109270011092FA
:1016B00071011092720110927301789480914F0120
:1016C000816080934F01F10180819181A281B3817A
:1016D000409170015091710160917201709173019C
:1016E000C755DF4F88809980AA80BB80C95AD040F7
:1016F000481559056A057B0528F020914F012E7F7A
:1017000020934F0184179507A607B707B8F4481B25
:10171000590B6A0B7B0B452F562F672F7727F894B1
:101720004093700150937101609372017093730143
:10173000789480914F01816080934F01F101848101
:101740009581A681B7810097A105B10509F425C44B
:10175000C651DF4F2881CA5ED0402223C9F0C6514E
:10176000DF4F1882CA5ED040F89410927401109234
:1017700075011092760110927701789480914F0153
:10178000826080934F01F10184819581A681B781A8
:1017900040917401509175016091760170917701CB
:1017A000C355DF4F88809980AA80BB80CD5AD04036
:1017B000481559056A057B0528F020914F012D7FBA
:1017C00020934F0184179507A607B707B8F4481B65
:1017D000590B6A0B7B0B452F562F672F7727F894F1
:1017E0004093740150937501609376017093770173
:1017F000789480914F01826080934F01F101808540
:101800009185A285B3850097A105B10509F4BFC3F1
:10181000C551DF4F2881CB5ED0402223C9F0C5518E
:10182000DF4F1882CB5ED040F8941092780110926E
:10183000790110927A0110927B01789480914F0186
:10184000846080934F01F10180859185A285B385E5
:10185000409178015091790160917A0170917B01FA
:10186000CF54DF4F88809980AA80BB80C15BD04075
:10187000481559056A057B0528F020914F012B7FFB
:1018800020934F0184179507A607B707B8F4481BA4
:10189000590B6A0B7B0B452F562F672F7727F89430
:1018A000409378015093790160937A0170937B01A2
:1018B000789480914F01846080934F01F101848579
:1018C0009585A685B7850097A105B10509F458C38C
:1018D000C451DF4F2881CC5ED0402223C9F0C451CF
:1018E000DF4F1882CC5ED040F89410927C011092A9
:1018F0007D0110927E0110927F01789480914F01BA
:10190000886080934F01F10184859585A685B78510
:1019100040917C0150917D0160917E0170917F0129
:10192000CB54DF4F88809980AA80BB80C55BD040B4
:10193000481559056A057B0528F020914F01277F3E
:1019400020934F0184179507A607B70708F44CC3E7
:1019500090914F0185B1807F892B85B9CB50DF4FA6
:10196000F881C55FD040F33009F0AACA1C9954C36E
:10197000F8948091940190919501A0919601B09175
:1019800097017894C350DF4F2881CD5FD04021115B
:1019900087C3F894109294011092950110929601C9
:1019A000109297017894F8941092900110929101FE
:1019B000109292011092930178942D9AC850DF4FA3
:1019C00088839983AA83BB83C85FD04031E0C3502A
:1019D000DF4F3883CD5FD040C450DF4F1882CC5FDB
:1019E000D040892B8A2B8B2B09F436C3F894809135
:1019F000900190919101A0919201B09193017894FE
:101A0000C850DF4F488159816A817B81C85FD040CF
:101A1000769567955795479584179507A607B70755
:101A200008F02D98C850DF4F288139814A815B81A9
:101A3000C85FD040281739074A075B0798F4821B14
:101A4000930BA40BB50B892F9A2FAB2FBB27F894C0
:101A50008093900190939101A0939201B093930190
:101A600078942D9ACA50DF4F48815981C65FD04083
:101A70004F5F5F4FCA50DF4F59834883C65FD040E6
:101A8000453651050CF41CCA80917A0084FF18CAAF
:101A900080917A00806180937A0080917900C250B1
:101AA000DF4F5881CE5FD0405F5FCA50DF4F588311
:101AB000C65FD040583008F0D6C3952F90629093FF
:101AC0007C0090917A00906490937A00C250DF4F2E
:101AD0006881CE5FD040643008F0D2C3A62EB12C0E
:101AE000E1EEF0E0EC0FFD1FEA0DFB1D9081891780
:101AF00008F001C5492F50E0481B5109662757FDE2
:101B00006095762F423051056105710508F401C5D5
:101B1000E1EEF0E0EC0FFD1FEA0DFB1D8083E9ED27
:101B2000F0E0EC0FFD1FEA0DFB1D3081863008F060
:101B30003AC5A0E2E9EDF0E0EC0FFD1FEA0DFB1D58
:101B4000A0834501880C991C880C991CE9ECF0E0F5
:101B5000EC0FFD1FE80DF91D608171818281938179
:101B6000A03209F4BCC5A03109F425C6A83009F497
:101B70009BC6A43009F462C7A23009F46AC741E0E9
:101B80004A0F433008F493C7AE3F09F489C7AC3F0E
:101B900011F40C94D115A83F09F4E7C7A03F09F44C
:101BA00090C7A7FF02C00C943916BB27A7FDB095BC
:101BB0009B01AC010E94BB17AB01BC01F101E80D18
:101BC000F91D4083518362837383EDEDF0E0EC0FE8
:101BD000FD1FEA0DFB1D80810E94AE03E9EAF0E0E3
:101BE000EC0FFD1FE80DF91D6083718382839383E1
:101BF000CA50DF4F2881C65FD040C250DF4F2883D4
:101C0000CE5FD040CA50DF4F19821882C65FD040E5
:101C1000489958C9F89440916001509161016091D0
:101C20006201709163017894C753DF4F8881998175
:101C3000AA81BB81C95CD040880F991FAA1FBB1F16
:101C400084179507A607B70708F001CAD1011D92AE
:101C50001D921D921C921397F7011082118212821D
:101C60001382D8011C9211961C92119712961C9205
:101C7000129713961C92139714961C92149715960C
:101C80001C92159716961C92169717961C921797EA
:101C900018961C92189719961C9219971A961C92CE
:101CA0001A971B961C921B971C961C921C971D96AC
:101CB0001C921D971E961C921E971F961C921F9792
:101CC00050961C92509751961C92519752961C9286
:101CD0004999BFC9F89440916401509165016091A0
:101CE0006601709167017894C353DF4F88819981B1
:101CF000AA81BB81CD5CD040880F991FAA1FBB1F52
:101D000084179507A607B70708F069CAD10114968A
:101D10001D921D921D921C921797F7011482158235
:101D200016821782D80153961C92539754961C9290
:101D3000549755961C92559756961C9256975796BF
:101D40001C92579758961C92589759961C925997DF
:101D50005A961C925A975B961C925B975C961C92C3
:101D60005C975D961C925D975E961C925E975F965F
:101D70001C925F9790961C92909791961C929197C7
:101D800092961C92929793961C92939794961C927B
:101D9000949795961C924A9924CAF89440916801A8
:101DA0005091690160916A0170916B017894CF52F2
:101DB000DF4F88819981AA81BB81C15DD040880FA6
:101DC000991FAA1FBB1F84179507A607B70708F01E
:101DD000CCCAD10118961D921D921D921C921B9780
:101DE000F7011086118612861386D80196961C92EA
:101DF000969797961C92979798961C929897999673
:101E00001C9299979A961C929A979B961C929B97D4
:101E10009C961C929C979D961C929D979E961C92B8
:101E20009E979F961C929F97D0961C92D097D19682
:101E30001C92D197D2961C92D297D3961C92D3978C
:101E4000D4961C92D497D5961C92D597D6961C9270
:101E5000D697D7961C92D797D8961C924B9987CA3B
:101E6000F89440916C0150916D0160916E017091F8
:101E70006F017894CB52DF4F88819981AA81BB8111
:101E8000C55DD040880F991FAA1FBB1F84179507F7
:101E9000A607B70708F02ECBD1011C961D921D9204
:101EA0001D921C921F97F7011486158616861786B9
:101EB000D801D9961C92D997DA961C92DA97DB96BC
:101EC0001C92DB97DC961C92DC97DD961C92DD97CA
:101ED000DE961C92DE97DF961C92C357DF4F188266
:101EE000CD58D040C257DF4F1882CE58D040C1578E
:101EF000DF4F1882CF58D040C057DF4F1882C059EB
:101F0000D040CF56DF4F1882C159D040CE56DF4F58
:101F10001882C259D040CD56DF4F1882C359D040E5
:101F2000CC56DF4F1882C459D040CB56DF4F1882B1
:101F3000C559D040CA56DF4F1882C659D040C9563D
:101F4000DF4F1882C759D040C856DF4F1882C85992
:101F5000D040D0CA41E071C841E037C941E0FBC977
:101F600041E0BECA10829C01220F331F220F331F93
:101F7000F701E20FF31F408151816281738136CBFB
:101F800080914F01877F80934F01982FE3CC809100
:101F90004F018B7F80934F0191CC80914F018D7FBA
:101FA00080934F012BCC80914F018E7F80934F0106
:101FB000C5CB44E050E080E090E0CB50DF4F18828A
:101FC000C55FD040AACAE9ECF0E0EC0FFD1FE20FBC
:101FD000F31F80809180A280B38084169506A606A8
:101FE000B70608F020CB18CB481B590B6A0B7B0BAC
:101FF000452F562F672F7727F89440937C015093F5
:102000007D0160937E0170937F01789490914F01E0
:10201000986090934F019ECCC450DF4F5881CC5FA5
:10202000D040511154C02D98C350DF4F1882CD5F5E
:10203000D04061E0C450DF4F6883CC5FD040C850CF
:10204000DF4F88819981AA81BB81C85FD040892BED
:102050008A2B8B2B09F0CACC2D98C850DF4F1882E1
:1020600019821A821B82C85FD040FCCC813108F0F3
:10207000AAC120E1B22EEEC8813108F0B2C1B0E1B0
:10208000BB2E0C946308813108F096C150E1B52E47
:10209000A7C9813108F09EC1E0E1BE2E0C949C07D7
:1020A00081309543AC40B10508F4CFC0F89410924C
:1020B00090011092910110929201109293017894E4
:1020C0002D98C450DF4F1882CC5FD040C5CFC3508D
:1020D000DF4F1882CD5FD040C850DF4F8881998193
:1020E000AA81BB81C85FD0407CCCBA01A901440F52
:1020F000551F661F771F440F551F661F771F440F1C
:10210000551F661F771F440F551F661F771F440F0B
:10211000551F661F771FF1014487558766877787AC
:10212000C052DF4F8881C05ED0400E94AE03CB54C6
:10213000DF4F688379838A839B83C55BD040B9C9AD
:10214000BA01A901440F551F661F771F440F551F81
:10215000661F771F440F551F661F771F440F551FBB
:10216000661F771F440F551F661F771FF1014483B9
:10217000558366837783C252DF4F8881CE5DD0401E
:102180000E94AE03C355DF4F688379838A839B83A4
:10219000CD5AD0400C94CE08BA01A901440F551F66
:1021A000661F771F440F551F661F771F440F551F6B
:1021B000661F771F440F551F661F771F440F551F5B
:1021C000661F771FF1014083518362837383C3527B
:1021D000DF4F8881CD5DD0400E94AE03C755DF4FF1
:1021E000688379838A839B83C95AD0400C940608FC
:1021F000BA01A901440F551F661F771F440F551FD1
:10220000661F771F440F551F661F771F440F551F0A
:10221000661F771F440F551F661F771FD101189641
:102220004D935D936D937C931B97C152DF4F8881D3
:10223000CF5DD0400E94AE03CF54DF4F68837983D7
:102240008A839B83C15BD0406FC8C450DF4F188224
:10225000CC5FD040C850DF4F88819981AA81BB8173
:10226000C85FD040BECB90E290937C0090917A0002
:10227000906490937A00CA50DF4F1882C65FD040B6
:10228000C250DF4F9881CE5FD0409450A92EB12C20
:10229000EDEDF0E0EC0FFD1FEA0DFB1D90818917BD
:1022A00008F020C1492F50E0481B5109662757FD0F
:1022B0006095762F443051056105710508F400C121
:1022C000EDEDF0E0EC0FFD1FEA0DFB1D8083AA0C85
:1022D000BB1CAA0CBB1CF101EA0DFB1D4081518106
:1022E000628173810E94AE03E9EAF0E0EC0FFD1F0A
:1022F000EA0DFB1D6083718382839383CA50DF4F95
:102300002881C65FD040C250DF4F2883CE5FD040C7
:10231000CA50DF4F19821882C65FD0400C94600704
:10232000BA01A901440F551F661F771F440F551F9F
:10233000661F771F440F551F661F771F440F551FD9
:10234000661F771F3FCFBA01A901440F551F661FB3
:10235000771F440F551F661F771F440F551F661FB9
:10236000771F440F551F661F771F58CFBA01A90169
:10237000440F551F661F771F440F551F661F771F99
:10238000440F551F661F771F440F551F661F771F89
:10239000EDCEBA01A901440F551F661F771F440FE8
:1023A000551F661F771F440F551F661F771F440F69
:1023B000551F661F771FAFCE803208F0D8C048E0A7
:1023C000B42E0C94F009803208F0D8C098E0B92EF1
:1023D0000C942A09803208F0DFC078E0B72E0C9404
:1023E0009C07803208F0D1C0A8E0BA2E0C94630894
:1023F000BA01A901440F551F661F771F440F551FCF
:10240000661F771F440F551F661F771FDBCEBA016B
:10241000A901440F551F661F771F440F551F661FE4
:10242000771F440F551F661F771FF8CEBA01A90109
:10243000440F551F661F771F440F551F661F771FD8
:10244000440F551F661F771F91CEBA01A901440F93
:10245000551F661F771F440F551F661F771F440FB8
:10246000551F661F771F57CEBA01A901440F551F8C
:10247000661F771F440F551F661F771FCFCEBA0107
:10248000A901440F551F661F771F440F551F661F74
:10249000771F98CEBA01A901440F551F661F771FF9
:1024A000440F551F661F771F61CEBA01A901440F63
:1024B000551F661F771F440F551F661F771F2BCEB2
:1024C000CA50DF4FF881C65FD040C250DF4FF8835B
:1024D000CE5FD040CA50DF4F19821882C65FD0400D
:1024E0000C946007482F50E0491B5109662757FD9F
:1024F0006095762FDFCE482F50E0491B51096627A3
:1025000057FD6095762F423051056105710508F041
:10251000FFCACA50DF4FE881C65FD040C250DF4FCC
:10252000E883CE5FD040CA50DF4F19821882C65F61
:10253000D0400C946007BA01A901440F551F661FD3
:10254000771F40CEBA01A901440F551F661F771FA0
:102550000DCEBA01A901440F551F661F771FDBCDB1
:10256000BA01A901440F551F661F771F57CE8E323F
:1025700008F04DC137E0B32E0C94F0098E3208F00C
:1025800054C187E0B82E0C942A098E3208F054C149
:10259000F7E0BF2E0C9463088E3208F03FC167E06D
:1025A000B62E0C949C07813108F02CC1A0E1C2CA60
:1025B000BA01A901D10114964D935D936D937C935B
:1025C0001797C252DF4F8881CE5DD0400E94AE0384
:1025D000C355DF4F688379838A839B83CD5AD0406C
:1025E0000C94C808BA01A901D1011C964D935D93C2
:1025F0006D937C931F97C052DF4F8881C05ED0409F
:102600000E94AE03CB54DF4F688379838A839B8318
:10261000C55BD0400C94530ABA01A901F10140876F
:10262000518762877387C152DF4F8881CF5DD04069
:102630000E94AE03CF54DF4F688379838A839B83E4
:10264000C15BD0400C948E09BA01A901D1014D9310
:102650005D936D937C931397C352DF4F8881CD5D5B
:10266000D0400E94AE03C755DF4F688379838A83C9
:102670009B83C95AD0400C940008BA01A9017695F1
:1026800067955795479596CFBA01A90176956795B5
:1026900057954795A9CFBA01A901769567955795A2
:1026A0004795BCCFBA01A90176956795579547958F
:1026B000CDCFBA01A901769567955795479576953F
:1026C000679557954795AACFBA01A9017695679561
:1026D000579547957695679557954795B7CFAB0131
:1026E000BC01440F551F661F771F440F551F661FFF
:1026F000771F440F551F661F771F440F551F661F16
:10270000771F440F551F661F771FF101E80DF91D54
:102710004083518362837383EDEDF0E0EC0FFD1F86
:10272000EA0DFB1D80810E94AE03E9EAF0E0EC0FA8
:10273000FD1FE80DF91D6083718382839383CA5066
:10274000DF4FF881C65FD040C250DF4FF883CE5FC5
:10275000D040CA50DF4F19821882C65FD0400C9417
:102760006007BA01A90176956795579547957695C3
:102770006795579547951ECFBA01A901769567953C
:102780005795479576956795579547952DCFBA01FB
:10279000A901B3E07695679557954795BA95D1F716
:1027A00023CFBA01A901A3E0769567955795479580
:1027B000AA95D1F74BCFAB01BC01440F551F661F43
:1027C000771F440F551F661F771F440F551F661F45
:1027D000771F440F551F661F771F97CFBA01A901B6
:1027E000F3E07695679557954795FA95D1F7E2CE40
:1027F000BA01A901E3E07695679557954795EA9563
:10280000D1F70CCF803208F040C1A8E093C98C33D7
:1028100008F02DC126E0B22E0C94F0098C3308F09C
:102820001FC156E0B52E0C949C078C3308F026C1CE
:10283000B6E0BB2E0C942A098C3308F02BC1E6E0DD
:10284000BE2E0C946308BA01A901F4E07695679551
:1028500057954795FA95D1F74C595F4F6F4F7F4F7A
:10286000F1014083518362837383C352DF4F8881B8
:10287000CD5DD0400E94AE03C755DF4F688379839A
:102880008A839B83C95AD0400C940008BA01A901DD
:10289000A4E07695679557954795AA95D1F74C5939
:1028A0005F4F6F4F7F4FA0CEAB01BC01440F551F50
:1028B000661F771F440F551F661F771F440F551F54
:1028C000661F771F22CFBA01A901E4E076956795CC
:1028D00057954795EA95D1F74C595F4F6F4F7F4F0A
:1028E00069CEBA01A90134E0769567955795479569
:1028F0003A95D1F74C595F4F6F4F7F4FD1011896E2
:102900004D935D936D937C931B97C152DF4F8881EC
:10291000CF5DD0400E94AE03CF54DF4F68837983F0
:102920008A839B83C15BD0400C948E096B2D7727E3
:1029300061950CF47095CB01AA2797FDA095BA2F4D
:10294000C150DF4F88839983AA83BB83CF5FD04078
:10295000CA01B901C150DF4F288139814A815B81A9
:10296000CF5FD0400E949917BA01A9010C943A0A8E
:102970006B2D772761950CF47095CB01AA2797FDF5
:10298000A095BA2FC150DF4F88839983AA83BB8358
:10299000CF5FD040CA01B901C150DF4F28813981D2
:1029A0004A815B81CF5FD0400E949917BA01A9018B
:1029B0000C9475096B2D772761950CF47095CB01FC
:1029C000AA2797FDA095BA2FC150DF4F888399831E
:1029D000AA83BB83CF5FD040CA01B901C150DF4F8A
:1029E000288139814A815B81CF5FD0400E9499174D
:1029F000BA01A9010C94AF086B2D772761950CF4EF
:102A00007095CB01AA2797FDA095BA2FC150DF4F33
:102A100088839983AA83BB83CF5FD040CA01B90161
:102A2000C150DF4F288139814A815B81CF5FD0401F
:102A30000E949917BA01A9010C94E807AB01BC01E7
:102A4000440F551F661F771F440F551F661F771FC2
:102A50005CCEAB01BC01440F551F661F771F55CEDE
:102A6000893408F07BC045E0B42E0C949C0789346F
:102A700008F085C095E0B92E0C94F009893408F06F
:102A800089C0A5E0BA2E0C942A098E3208F07DC0C8
:102A9000A7E050C8893470F475E0B72E0C94630831
:102AA000AB01BC0176956795579547952ECEAB0146
:102AB000BC012BCE873508F08EC164E0B62E0C9495
:102AC0006308AB01BC01B4E07695679557954795CF
:102AD000BA95D1F74C595F4F6F4F7F4FF101E80D19
:102AE000F91D4083518362837383EDEDF0E0EC0FB9
:102AF000FD1FEA0DFB1D8081CD5FDE4F3883C35083
:102B0000D1400E94AE03E9EAF0E0EC0FFD1FE80DB2
:102B1000F91D6083718382839383CD5FDE4F38819B
:102B2000C350D140303F09F44DC0F701E80DF91D05
:102B30001082118212821382CA50DF4FF881C65F61
:102B4000D040C250DF4FF883CE5FD040CA50DF4F35
:102B500019821882C65FD0400C946007873508F050
:102B600098C034E0B32E0C949C07AB01BC0183E009
:102B700076956795579547958A95D1F7C6CD873550
:102B8000D8F484E0B82E0C94F0098C3368F5A6E0F4
:102B90000C949A0D873508F082C0F4E0BF2E0C9497
:102BA0002A09AB01BC0176956795579547957695AF
:102BB000679557954795A9CD8436D8F4B3E0BB2ED9
:102BC0000C94F009CA50DF4F8881C65FD040C250D4
:102BD000DF4F8883CE5FD040CA50DF4F1982188202
:102BE000C65FD0400C946007893448F4A5E00C948B
:102BF0009A0D813748F4A2E0BA2E0C94F00987357B
:102C000090F5A4E00C949A0D0E944806B82EC45288
:102C1000DF4F8883CC5DD040CB52DF4F2881398194
:102C20004A815B81C55DD040B0E48B130C94FD09F3
:102C3000BA01A901440F551F661F771F440F551F86
:102C4000661F771F440F551F661F771F440F551FC0
:102C5000661F771F440F551F661F771F440F551FB0
:102C6000661F771F58CA843608F0BBC0A3E00C94D7
:102C70009A0DEA2FFF27E1950CF4F0959F01442768
:102C800037FD4095542F0E949917BA01A9010C9461
:102C9000DE0D843650F423E0B22E0C949C0784366B
:102CA00050F4E3E0BE2E0C942A09813758F492E0E8
:102CB000B92E0C949C07813708F049C072E0B72EFA
:102CC0000C942A090E944806B82EC752DF4F888309
:102CD000C95DD040C753DF4F288139814A815B816C
:102CE000C95CD04060E486130C94A907BA01A9011D
:102CF000440F551F661F771F440F551F661F771F10
:102D0000440F551F661F771F440F551F661F771FFF
:102D1000440F551F661F771F440F551F661F771FEF
:102D2000D1014D935D936D937C931397C352DF4F05
:102D30008881CD5DD0400E94AE03C755DF4F6883C8
:102D400079838A839B83C95AD0400C9406080E94D9
:102D50004806B82EC552DF4F8883CB5DD040CF5296
:102D6000DF4F288139814A815B81C15DD040B0E469
:102D70008B130C943709BA01A901440F551F661F24
:102D8000771F440F551F661F771F440F551F661F7F
:102D9000771F440F551F661F771F440F551F661F6F
:102DA000771F440F551F661F771FF101408751871A
:102DB00062877387C152DF4F8881CF5DD0400E9408
:102DC000AE03CF54DF4F688379838A839B83C15BD3
:102DD000D0400C949409843648F453E0B52E0C94FA
:102DE0006308813750F4A2E00C949A0D813708F003
:102DF00071C042E0B42E0C946308CD5FDE4F38837F
:102E0000C350D1400E944806A82FE9EDF0E0EC0F36
:102E1000FD1FEA0DFB1D80834501880C991C880C61
:102E2000991CE9ECF0E0EC0FFD1FE80DF91D608145
:102E3000718182819381CD5FDE4F3881C350D14053
:102E4000A03411F00C94B00DAB01BC01440F551F20
:102E5000661F771F440F551F661F771F440F551FAE
:102E6000661F771F440F551F661F771F440F551F9E
:102E7000661F771F440F551F661F771FF101E80D6E
:102E8000F91D4083518362837383EDEDF0E0EC0F15
:102E9000FD1FEA0DFB1D80810E94AE03E9EAF0E010
:102EA000EC0FFD1FE80DF91D60837183828393830E
:102EB000CA50DF4F7881C65FD040C250DF4F788361
:102EC000CE5FD040CA50DF4F19821882C65FD04013
:102ED0000C9460070E944806B82EC652DF4F8883C4
:102EE000CA5DD040C353DF4F288139814A815B815D
:102EF000CD5CD040B0E48B130C947008BA01A901EA
:102F0000440F551F661F771F440F551F661F771FFD
:102F1000440F551F661F771F440F551F661F771FED
:102F2000440F551F661F771F440F551F661F771FDD
:102F30001DC9A1E21A2EAA1BBB1BFD010DC0AA1FB1
:102F4000BB1FEE1FFF1FA217B307E407F50720F012
:102F5000A21BB30BE40BF50B661F771F881F991F8D
:102F60001A9469F760957095809590959B01AC01D6
:102F7000BD01CF010895B7FF0C94C3170E94C3177A
:102F8000821B930B08950E94CE17A59F900DB49FAE
:102F9000900DA49F800D911D11240895A29FB00152
:102FA000B39FC001A39F700D811D1124911DB29F7D
:0E2FB000700D811D1124911D0895F894FFCF1E
:102FBE00F0F4F8F9FAFBFCFDFE0102030405060726
:102FCE00081020F0F4F8F9FAFBFCFDFE01020304F0
:102FDE00050607081020F0F4F8F9FAFBFCFDFE01D7
:102FEE00020304050607081020F0F4F8F9FAFBFCBA
:0C2FFE00FDFE0102030405060708102078
:00000001FF
