:100000000C9434000C9451000C9451000C94510049
:100010000C9451000C9419010C9451000C94510053
:100020000C9451000C9451000C9451000C9451000C
:100030000C9451000C9451000C9451000C945100FC
:100040000C9453000C9451000C9451000C945100EA
:100050000C9451000C9451000C9451000C945100DC
:100060000C9451000C94510011241FBECFEFD8E026
:10007000DEBFCDBF11E0A0E0B1E0E8E7F2E202C0F0
:1000800005900D92A036B107D9F721E0A0E6B1E0C6
:1000900001C01D92A63FB207E1F70E9427090C9408
:1000A0003A110C9400001F920F920FB60F92112478
:1000B0008F939F93AF93BF93EF93FF938091A6018C
:1000C0009091A701A091A801B091A9010196A11D4D
:1000D000B11D8093A6019093A701A093A801B093AE
:1000E000A9018091A2019091A301A091A401B091D6
:1000F000A5010196A11DB11D8093A2019093A301BA
:10010000A093A401B093A501E2E9F1E0808191817F
:10011000A281B3810196A11DB11D80839183A28329
:10012000B38384819581A681B7810196A11DB11DFC
:1001300084839583A683B78380859185A285B385C3
:100140000196A11DB11D80879187A287B387848501
:100150009585A685B7850196A11DB11D84879587D4
:10016000A687B787E2E7F1E080819181A281B38120
:100170000196A11DB11D80839183A283B3838481E5
:100180009581A681B7810196A11DB11D84839583B8
:10019000A683B78380859185A285B3850196A11D2D
:1001A000B11D80879187A287B38784859585A685B1
:1001B000B7850196A11DB11D84879587A687B7874E
:1001C000E2E8F1E080819181A281B3810196A11DD5
:1001D000B11D80839183A283B38384819581A6819D
:1001E000B7810196A11DB11D84839583A683B78332
:1001F00080859185A285B3850196A11DB11D80875B
:100200009187A287B38784859585A685B785019652
:10021000A11DB11D84879587A687B787FF91EF91B0
:10022000BF91AF919F918F910F900FBE0F901F9034
:1002300018951F920F920FB60F9211242F934F9380
:100240005F936F937F938F939F93AF93BF938091AF
:10025000600148998CC08E7F80936001499963C08A
:100260008D7F809360014A993AC08B7F80936001B3
:100270004B9B31C083FD21C08860809360018091D9
:100280009E0190919F01A091A001B091A10126B57E
:10029000BA2FA92F982F8827822B80936E019093D5
:1002A0006F01A0937001B093710110929E011092A2
:1002B0009F011092A0011092A101BF91AF919F9157
:1002C0008F917F916F915F914F912F910F900FBE02
:1002D0000F901F901895877F80936001EECF82FD6D
:1002E000C7CF84608093600140919A0150919B0137
:1002F00060919C0170919D0196B5762F652F542FCA
:100300004427492B40936A0150936B0160936C0121
:1003100070936D0110929A0110929B0110929C01B2
:1003200010929D01A5CF81FD9ECF826080936001D8
:1003300040919601509197016091980170919901B7
:1003400096B5762F652F542F4427492B409366018D
:100350005093670160936801709369011092960150
:100360001092970110929801109299017CCF80FD14
:1003700075CF81608093600140919201509193010B
:10038000609194017091950196B5762F652F542F49
:100390004427492B409362015093630160936401A9
:1003A0007093650110929201109293011092940142
:1003B0001092950153CF84E0809368008FE0809382
:1003C0006D000895F8948091A6019091A701A091E5
:1003D000A801B091A90126B57894BA2FA92F982F1A
:1003E0008827BC01CD01622B0895F8948091A20169
:1003F0009091A301A091A401B091A50126B5789494
:10040000BA2FA92F982F8827BC01CD01622B089500
:10041000F8941092A2011092A3011092A4011092DC
:10042000A50178940895F8941092A6011092A7015E
:100430001092A8011092A90178940895F894E82FD9
:10044000F0E0EE0FFF1FEE0FFF1FEE57FE4F808113
:100450009181A281B38126B57894BA2FA92F982FC4
:100460008827BC01CD01622B0895F894E82FF0E0B5
:10047000EE0FFF1FEE0FFF1FEE56FE4F80819181A2
:10048000A281B38126B57894BA2FA92F982F8827F7
:10049000BC01CD01622B0895F894E82FF0E0EE0F37
:1004A000FF1FEE0FFF1FEE58FE4F80819181A2814A
:1004B000B38126B57894BA2FA92F982F8827BC012D
:1004C000CD01622B089587B1807C87B988B1807C8B
:1004D00088B98FE380937E00EAE7F0E080E88083CC
:1004E00080E280937C00808187608083808180644B
:1004F00080830895289829982A982B9820E041E035
:1005000050E035B1822F8370BA0102C0660F771FA9
:100510008A95E2F7CB01932F982B95B97FEF34E6BC
:1005200064E0715030406040E1F700C0000095B1D8
:100530008095892385B92F5F283019F70895F8949D
:1005400014BC82E085BD16BCEEE6F0E080818160DF
:1005500080831092A2011092A3011092A401109224
:10056000A5011092A6011092A7011092A801109265
:10057000A901E2E8F1E01082118212821382148252
:1005800015821682178210861186128613861486AB
:10059000158616861786E2E9F1E010821182128232
:1005A0001382148215821682178210861186128693
:1005B00013861486158616861786E2E7F1E0108208
:1005C000118212821382148215821682178210867B
:1005D00011861286138614861586168617867894D9
:1005E000089524982C9A259A8AB1807F8AB98BB174
:1005F000807F8BB98AB18F708AB98BB18F708BB9BC
:1006000084B18F6084B90895BF92CF92DF92EF9248
:10061000FF920F931F93CF93DF93EAEAF1E085E017
:10062000B82EB08290E1C92EC1822FE1D22ED282A3
:100630003DE2E32EE3824BE3F42EF48208E40583EB
:1006400016E51683D3E6D783C0E7C087BDE7B18739
:10065000A9E8A28777E9738764EA648751EB558735
:100660004FEB46873DEC37872AED208B9BEE918B35
:100670008FEF828BB38AC48AD58AE68AF78A008F85
:10068000118FD28FC38FB48FA58F768F678F50A3B2
:1006900041A332A323A394A385A3B6A2C7A2D0A645
:1006A000E1A6F2A603A714A7D5A7C6A7B7A7A0AB34
:1006B00071AB62AB53AB44AB35AB26AB97AB80AF02
:1006C000B1AEC2AED3AEE4AEF092E7010093E80162
:1006D0001093E901D093EA01C093EB01B093EC01D0
:1006E000A093ED017093EE016093EF015093F00140
:1006F0004093F1013093F2012093F3019093F401C0
:100700008093F501DF91CF911F910F91FF90EF90B2
:10071000DF90CF90BF90089523E1829FC001112404
:10072000FC01E655FE4F20E030E08191861738F459
:100730002F5F3F4F23313105C1F780EF0895F90155
:10074000E45BFE4F808108950F931F938034D1F1B5
:10075000803209F454C0803109F46AC0883009F14C
:10076000843009F47AC0823009F482C091E0980F95
:10077000933008F484C08E3F09F492C08C3F09F492
:1007800096C0883F09F49EC0803F09F47BC087FD76
:10079000A3C0A82F880FBB0B9A01AB010E94E810E1
:1007A0000EC0440F551F661F771F440F551F661F4D
:1007B000771FCB01BA01660F771F881F991F1F9102
:1007C0000F910895440F551F661F771F440F551F43
:1007D000661F771F440F551F661F771F440F551F55
:1007E000661F771FCB01BA01660F771F881F991FFD
:1007F000660F771F881F991F1F910F910895440F4F
:10080000551F661F771F440F551F661F771F440F24
:10081000551F661F771F440F551F661F771FCB019B
:10082000BA01660F771F881F991F1F910F910895B6
:10083000440F551F661F771F440F551F661F771FF4
:10084000CB01BA01660F771F881F991F660F771FAC
:10085000881F991F1F910F910895CB01BA01660F50
:10086000771F881F991F660F771F881F991FA7CFB3
:10087000CB01BA01660F771F881F991FA0CFCB014C
:10088000BA019DCF84E076956795579547958A95EF
:10089000D1F7CB01BA016C597F4F8F4F9F4F8FCF4C
:1008A000CB01BA01969587957795679588CFCB014F
:1008B000BA019695879577956795969587957795DB
:1008C00067957DCFCB01BA0123E096958795779503
:1008D00067952A95D1F773CF282F332721950CF4EC
:1008E00030958901330F220B330BCB01BA01A901DB
:1008F00098010E94C610CA01B90161CFCF92DF9260
:10090000EF92FF920F931F9380958430A0F44133B0
:1009100085E758076105710508F455C000E117E245
:1009200020E030E0C901B8011F910F91FF90EF90D6
:10093000DF90CF9008958A019B018E30E0F4A5E00E
:100940003695279517950795AA95D1F7413395E7E1
:1009500059076105710530F3003197E21907210548
:10096000310510F58A3FD0F24051574261097109B3
:100970008A019B01D7CF883180F18232B0F594E0B3
:1009800036952795179507959A95D1F76A017B01BA
:10099000E5E0F694E794D794C794EA95D1F70C0D67
:1009A0001D1D2E1D3F1DD2CF4051574261097109B7
:1009B0008A3FF0F6401751076207730708F0B2CF7D
:1009C0008A019B01AFCF8A019B01B6E0369527953E
:1009D00017950795BA95D1F7A5CFF4E036952795E9
:1009E00017950795FA95D1F7B1CF8C32B8F08633C9
:1009F000E8F4F3E03695279517950795FA95D1F722
:100A00006A017B01A5E0F694E794D794C794AA9570
:100A1000D1F70C0D1D1D2E1D3F1D98CFB3E036954F
:100A2000279517950795BA95D1F790CF8034A8F4FC
:100A300093E036952795179507959A95D1F76A0112
:100A40007B01E4E0F694E794D794C794EA95D1F754
:100A50000C0D1D1D2E1D3F1D79CF8A3410F5B3E0FE
:100A60003695279517950795BA95D1F76A017B01B9
:100A700094E0F694E794D794C7949A95D1F7C00E72
:100A8000D11EE21EF31E8A019B01E5E036952795F3
:100A900017950795EA95D1F70C0D1D1D2E1D3F1DCD
:100AA00055CF853548F43695279517950795369592
:100AB0002795179507954ACF8E35B0F4369527952B
:100AC0001795079536952795179507956A017B0128
:100AD000F4E0F694E794D794C794FA95D1F70C0D07
:100AE0001D1D2E1D3F1D32CF8836B0F4369527953B
:100AF0001795079536952795179507956A017B01F8
:100B000093E0F694E794D794C7949A95D1F70C0D97
:100B10001D1D2E1D3F1D1ACF823718F536952795BE
:100B20001795079536952795179507956A017B01C7
:100B3000F3E0F694E794D794C794FA95D1F7C00EF2
:100B4000D11EE21EF31E8A019B01A4E03695279573
:100B500017950795AA95D1F70C0D1D1D2E1D3F1D4C
:100B6000F5CE8C3828F43695279517950795EECE57
:100B7000863990F436952795179507956A017B017C
:100B8000E5E0F694E794D794C794EA95D1F70C0D75
:100B90001D1D2E1D3F1DDACE803A90F43695279507
:100BA000179507956A017B01B4E0F694E794D79412
:100BB000C794BA95D1F70C0D1D1D2E1D3F1DC6CE35
:100BC0008A3A28F436952795179507954FCF843B99
:100BD00090F436952795179507956A017B01B3E048
:100BE000F694E794D794C794BA95D1F70C0D1D1DD0
:100BF0002E1D3F1DABCE8E3BF8F4369527951795ED
:100C000007956A017B01E3E0F694E794D794C794D3
:100C1000EA95D1F7C00ED11EE21EF31E8A019B0198
:100C2000F5E03695279517950795FA95D1F70C0DB0
:100C30001D1D2E1D3F1D8ACE883C28F43695279514
:100C40001795079573CF823D60F5369527951795D3
:100C500007956A017B01B3E0F694E794D794C794B3
:100C6000BA95D1F7C00ED11EE21EF31E8A019B0178
:100C700094E036952795179507959A95D1F7C00E6C
:100C8000D11EE21EF31E8A019B01E5E036952795F1
:100C900017950795EA95D1F70C0D1D1D2E1D3F1DCB
:100CA00055CE8C3D98F436952795179507956A0192
:100CB0007B01F694E794D794C794F694E794D7947D
:100CC000C7940C0D1D1D2E1D3F1D40CE863E00F508
:100CD00036952795179507956A017B01F694E79459
:100CE000D794C794F694E794D794C794C00ED11EB6
:100CF000E21EF31E8A019B0194E036952795179515
:100D000007959A95D1F70C0D1D1D2E1D3F1D1ECE6A
:100D1000803F00F536952795179507956A017B0169
:100D2000F694E794D794C794F694E794D794C7942D
:100D3000C00ED11EE21EF31E8A019B01F3E0369520
:100D4000279517950795FA95D1F70C0D1D1D2E1DAA
:100D50003F1DFCCD8A3F68F5369527951795079579
:100D60006A017B01F694E794D794C794F694E794CC
:100D7000D794C794C00ED11EE21EF31E8A019B01B8
:100D8000A3E03695279517950795AA95D1F7C00E3C
:100D9000D11EE21EF31E8A019B01B4E03695279511
:100DA00017950795BA95D1F70C0D1D1D2E1D3F1DEA
:100DB000CDCD95E036952795179507959A95D1F75E
:100DC0006A017B01C01AD10AE20AF30A970186017F
:100DD000BDCD806280937C0080917A008064809396
:100DE0007A0080917A0084FFFCCF80917A00806144
:100DF00080937A0080917900089584E690E021E064
:100E0000290F1C9B922F8150D1F720E030E040E069
:100E1000E1E0F0E0822F806280937C0080917A0094
:100E2000806480937A0080917A0084FFFCCF809167
:100E30007A00806180937A0080917900893038F45B
:100E4000BF01022E01C0660F0A94EAF7462B2F5FFE
:100E50003F4F24303105F1F6EFE3FCE93197F1F72C
:100E600000C0000084E621E0290F1C99292F922F51
:100E70008150C9F7273908F0842F08952F923F92A7
:100E80005F926F927F928F929F92AF92BF92CF921A
:100E9000DF92EF92FF920F931F93CF93DF93CDB723
:100EA000DEB7A6970FB6F894DEBF0FBECDBF682E93
:100EB000712C0CEB202E01E0302EE12CF12C88243B
:100EC0008394912CBE01695D7F4F55245A94C301D0
:100ED0000E2C02C0959587950A94E2F780FF56C1C3
:100EE000A4010E2C01C0440F0A94EAF7B42EB0946A
:100EF000BE2DB062FE013196A0E085B18B2185B98F
:100F00000FEF16E721E0015010402040E1F700C04C
:100F10000000B0937C0080917A00806480937A0016
:100F200080917A0084FFFCCF80917A008061809369
:100F30007A00309179008FEF96E701E08150904080
:100F40000040E1F700C00000B0937C0080917A007F
:100F5000806480937A0080917A0084FFFCCF809136
:100F60007A00806180937A00809179001FEF26E7F4
:100F700091E0115020409040E1F700C00000B09394
:100F80007C0090917A00906490937A0090917A001E
:100F900094FFFCCF90917A00906190937A00209119
:100FA00079000FEF16E791E0015010409040E1F713
:100FB00000C00000B0937C0090917A009064909300
:100FC0007A0090917A0094FFFCCF90917A00906122
:100FD00090937A00D090790090E0830F911D820F5A
:100FE000911D8D0D911D9695879596958795918369
:100FF0008083A23109F4B7C085B1842B85B9AA23B7
:1010000009F4E7C0A13109F4E4C02AE030E00FEFB1
:1010100013EC89E0015010408040E1F700C000006F
:101020009FEF06E711E0915000401040E1F700C04B
:101030000000B0937C0080917A00806480937A00F5
:1010400080917A0084FFFCCF80917A008061809348
:101050007A00A09079008FEF96E701E081509040F0
:101060000040E1F700C00000B0937C0080917A005E
:10107000806480937A0080917A0084FFFCCF809115
:101080007A00806180937A00809179001FEF96E763
:1010900001E0115090400040E1F700C00000B09323
:1010A0007C0090917A00906490937A0090917A00FD
:1010B00094FFFCCF90917A00906190937A00C09059
:1010C00079001FEF96E701E0115090400040E1F7F2
:1010D00000C00000B0937C0090917A0090649093DF
:1010E0007A0090917A0094FFFCCF90917A00906101
:1010F00090937A00D090790090E08A0D911D8C0D2C
:10110000911D8D0D911D9695879596958795C0801B
:10111000D1808C199D098217930708F481CF2D9AED
:1011200085B18B2185B980E090E01C9B06C01C999D
:10113000FECF81E090E01C99FACF019684369105AC
:10114000A0F380E090E01C9906C01C9BFECF81E0DC
:1011500090E01C9BFACF019684369105A0F32D9860
:10116000AF5F3296CACE89819A81FE013396D10152
:10117000529721913191820F931F969587958D9368
:10118000C901E617F707A9F7F1015082FFEFEF1A3F
:10119000FF0A03E1200E311C14E0E116F10409F00E
:1011A00096CEA6960FB6F894DEBF0FBECDBFDF91E8
:1011B000CF911F910F91FF90EF90DF90CF90BF9054
:1011C000AF909F908F907F906F905F903F902F9007
:1011D000089525E030E01BCF82E090E00E941A11D4
:1011E00091E08A3A09F090E0892F08954CE450E0AC
:1011F00068E070E08AEA91E00C940A112AEA31E092
:10120000F90191912D5E3F4F8191981750F4982FDD
:101210002E173F07C9F781E0263F380789F781E09D
:10122000089580E00895F999FECF4CE450E068E01D
:1012300070E08AEA91E00E942211F999FECF6AEAF1
:1012400082E090E00E942C11F999FECF0895CF938F
:10125000DF93CDB7DEB7C250D1400FB6F894DEBFF2
:101260000FBECDBF4E0129EC820E911C80E1D4014E
:10127000E82F1D92EA95E9F73E01F9EB6F0E711C1C
:10128000D301E82F1D92EA95E9F79E0127553F4FBC
:10129000CD50DF4F39832883C35FD040D901E82F79
:1012A0001D92EA95E9F76E01F9E9CF0ED11CD6013E
:1012B0001D928A95E9F7C351DF4F188219821A826D
:1012C0001B82CD5ED040C751DF4F188219821A822F
:1012D0001B82C95ED04081E0CB51DF4F8883C55E61
:1012E000D040CA51DF4F8883C65ED040C951DF4F1E
:1012F0008883C75ED040C851DF4F8883C85ED04026
:10130000FE01E35BFF4FCF50DF4FF983E883C15FFE
:10131000D0409CE4292F11922A95E9F7E0E0F1E012
:10132000DE01119601900D929A95E1F790E5CF516B
:10133000DF4F9883C15ED0409FE7CE51DF4F988347
:10134000C25ED040CD51DF4F9883C35ED040CC51B8
:10135000DF4F9883C45ED040C352DF4F9883CD5D8A
:10136000D040C252DF4F9883CE5DD040C152DF4F94
:101370009883CF5DD040C052DF4F9883C05ED0408D
:10138000C752DF4F8883C95DD040C652DF4F888384
:10139000CA5DD040C552DF4F8883CB5DD040C45278
:1013A000DF4F8883CC5DD0400E949F020E94F102F3
:1013B00084E0809368008FE080936D000E94630258
:1013C0008FE19EE40197F1F700C000002D9882E0C4
:1013D00090E00E941A118A3A09F4BEC60E940403E2
:1013E0000E94FD06882331F00E943E070E941309E7
:1013F0000E947A020E946302289829982A982B98C2
:10140000C250DF4F1882CE5FD040CB50DF4F1882E2
:10141000C55FD040A12CB12CC550DF4F1882CB5FE7
:10142000D040C650DF4F1882CA5FD040212C312CEB
:101430002101CB50DF4FB881C55FD040BF5FCB509B
:10144000DF4FB883C55FD040B43008F0C1C3EB2E86
:10145000F12C89B190E00E2C02C0959587950A94E5
:10146000E2F78701000F111F000F111F80FF37C324
:10147000F801EE59FE4F80819181A281B381892BC1
:101480008A2B8B2B09F42BC340815181628173819C
:10149000D401A00FB11F4D935D936D937C9313976F
:1014A0001082118212821382F894F801EE58FE4FD6
:1014B00010821182128213827894E1EEF0E0EC0F38
:1014C000FD1FEE0DFF1D308123E12E9DF0012F9DAC
:1014D000F00D1124C450DF4FF983E883CC5FD04076
:1014E000E655FE4F80E090E02191231708F00DC4EF
:1014F000019683319105C1F7E9EDF0E0EC0FFD1F96
:10150000EE0DFF1D90EF9083F401E00FF11F40817D
:10151000518162817381E4E076956795579547958F
:10152000EA95D1F74C595F4F6F4F7F4F90EFCA50FC
:10153000DF4F9883C65FD040F301E00FF11F408377
:10154000518362837383EDEDF0E0EC0FFD1FEE0D30
:10155000FF1D80810E947E04E9EAF0E0EC0FFD1F90
:10156000E00FF11F6083718382839383E5EEF0E0E7
:10157000EC0FFD1FEE0DFF1DB1E0B083EDE4F0E0D8
:10158000EC0FFD1FC450DF4F28813981CC5FD04064
:10159000E20FF31FA1E0B0E0AC0FBD1FA20FB31F1D
:1015A0002D5E3F4F8DE490E08C0F9D1F280F391F5B
:1015B000CA50DF4F9881C65FD040492F990F550B15
:1015C00065EE70E06C0F7D1F6E0D7F1DCA50DF4F02
:1015D000B983A883C65FD04090819F5F9083CA5033
:1015E000DF4FA881B981C65FD0408D91CA50DF4FCF
:1015F000B983A883C65FD040981730F090E04817B1
:10160000590709F459C210823196E217F30721F7FE
:1016100089B190E097012C5F3F4F02C09595879567
:101620002A95E2F780FF4CC2ADEEB0E0AC0FBD1FD3
:10163000AE0DBF1D8C9181114AC225B181E090E0B1
:101640000E2C01C0880F0A94EAF78095822385B991
:1016500023E12E9DF0012F9DF00D11248DE490E0EB
:101660008C0F9D1FE80FF91F1082118212821382C6
:1016700014821582168217821086118612861386AE
:101680001486158616861786108A118A128AF8948F
:10169000F801EE58FE4F408151816281738186B519
:1016A000762F652F542F4427482B7894F601E00FAE
:1016B000F11F4083518362837383E9EEF0E0EC0F06
:1016C000FD1FEE0DFF1D91E090839C93E5EEF0E091
:1016D000EC0FFD1FEE0DFF1D1082E9EDF0E0EC0FA9
:1016E000FD1FEE0DFF1D808182300CF479C2F301E5
:1016F000E00FF11F80819181A281B381841795074A
:10170000A607B70738F4F601E00FF11F1082118227
:1017100012821382F894F801EE58FE4F8081918175
:10172000A281B38126B57894BA2FA92F982F882744
:10173000822BF601E00FF11F40815181628173819C
:1017400084179507A607B70790F0E5EEF0E0EC0FD9
:10175000FD1FEE0DFF1D8081882349F0A9EEB0E04A
:10176000AC0FBD1FAE0DBF1D21E02C931082F30105
:10177000E00FF11F80819181A281B381892B8A2B97
:101780008B2B09F4FAC1E9EEF0E0EC0FFD1FEE0D32
:10179000FF1D80818823A1F01082F894F801EE5794
:1017A000FE4F1082118212821382789425B181E05B
:1017B00090E00E2C01C0880F0A94EAF7822B85B9BD
:1017C000F894F801EE57FE4F408151816281738198
:1017D00086B5762F652F542F4427482B7894E9EA55
:1017E000F0E0EC0FFD1FE00FF11F80819181A281DD
:1017F000B381481759076A077B0758F025B181E084
:1018000090E00E2C01C0880F0A94EAF7809582239D
:1018100085B9F301E00FF11F80819181A281B3812D
:1018200084179507A607B707D0F4481B590B6A0B16
:101830007B0B452F562F672F7727F894F801EE572B
:10184000FE4F4083518362837383789425B181E096
:1018500090E001C0880FEA94EAF7822B85B91C99C1
:1018600099C1F8948091A6019091A701A091A80137
:10187000B091A90126B5BA2FA92F982F8827822BBE
:101880007894C550DF4F3881CB5FD0403111B6C15D
:10189000F8941092A6011092A7011092A80110923C
:1018A000A9017894F8941092A2011092A3011092C9
:1018B000A4011092A50178942D9A1C012D0181E0BC
:1018C000C550DF4F8883CB5FD040C650DF4F1882B2
:1018D000CA5FD040211431044104510409F473C19A
:1018E000F8948091A2019091A301A091A401B091DC
:1018F000A50126B5BA2FA92F982F8827822B789477
:10190000B201A1017695679557954795841795077C
:10191000A607B70708F02D98281639064A065B0671
:1019200098F482199309A409B509892F9A2FAB2F2E
:10193000BB27F8948093A2019093A301A093A401E4
:10194000B093A50178942D9AAFEFAA1ABA0AB5E61A
:10195000AB16B1040CF46DCD80917A0084FF69CD93
:1019600080917A00806180937A0080917900C250E2
:10197000DF4FB880CE5FD040B394E7E0EB1508F4BA
:101980006AC19B2D906290937C0090917A00906444
:1019900090937A00C250DF4FF881CE5FD040F43090
:1019A00008F062C10F2F10E0E1EEF0E0EC0FFD1F38
:1019B000E00FF11F9081891708F01CC2292F30E039
:1019C000281B3109A901330F660B770B42305105F3
:1019D0006105710508F406C2E1EEF0E0EC0FFD1FB1
:1019E000E00FF11F8083E9EDF0E0EC0FFD1FE00F49
:1019F000F11FA080C250DF4F3881CE5FD04023E17D
:101A0000329FF0011124E655FE4F40E050E09191E5
:101A1000981708F034C24F5F5F4F43315105B9F753
:101A2000E9EDF0E0EC0FFD1FE00FF11FB0EFB08328
:101A30007801EE0CFF1CEE0CFF1CF401EE0DFF1DF7
:101A4000408151816281738124E076956795579535
:101A500047952A95D1F74C595F4F6F4F7F4FF30150
:101A6000EE0DFF1D4083518362837383EDEDF0E043
:101A7000EC0FFD1FE00FF11F80810E947E04E9EA58
:101A8000F0E0EC0FFD1FEE0DFF1D6083718382837C
:101A9000938380EFA81609F4A5C1F601EE0DFF1D92
:101AA0001082118212821382C250DF4FB882CE5F41
:101AB000D040A12CB12CBDCC81E0DB018C93A3CD17
:101AC000EDEEF0E0EC0FFD1FEE0DFF1D1082F601B4
:101AD000E00FF11F4081518162817381FECDF89446
:101AE000F801EE58FE4F80819181A281B38126B525
:101AF0007894F401E00FF11F40815181628173817C
:101B0000440F551F661F771FBA2FA92F982F8827BC
:101B1000822B481759076A077B0708F079CDF30134
:101B2000E00FF11F1082118212821382F601E00F82
:101B3000F11F108211821282138293E19E9DF001A7
:101B40009F9DF00D1124ADE4B0E0AC0FBD1FEA0F76
:101B5000FB1F108211821282138214821582168258
:101B600017821086118612861386148615861686AD
:101B70001786108A118A128A4BCD95B121E030E088
:101B800001C0220FEA94EAF7822F8095892385B954
:101B90001C9B67CEC650DF4F2881CA5FD040211101
:101BA0004EC02D98C550DF4F1882CB5FD04031E03A
:101BB000C650DF4F3883CA5FD0402114310441043E
:101BC000510409F08DCE2D98212C312C2101BCCE51
:101BD000E12CF12CCB50DF4F1882C55FD04039CCBF
:101BE000F401E00FF11F80819181A281B3818417FC
:101BF0009507A607B70708F08DCD85CD81309543B1
:101C0000AC40B10508F475C0F8941092A20110928E
:101C1000A3011092A4011092A50178942D98F1E0EF
:101C2000C550DF4FF883CB5FD040C650DF4F1882DE
:101C3000CA5FD0402D98212C312C210185CEC55072
:101C4000DF4F1882CB5FD04091E0C650DF4F9883C2
:101C5000CA5FD0403FCEA0E2A0937C0090917A0072
:101C6000906490937A00B12CC250DF4F0881CE5F10
:101C7000D040045010E0EDEDF0E0EC0FFD1FE00F60
:101C8000F11F9081891708F0BEC0292F30E0281B72
:101C90003109A901330F660B770B443051056105FB
:101CA000710508F49FC0EDEDF0E0EC0FFD1FE00FB3
:101CB000F11F8083000F111F000F111FF301E00FB0
:101CC000F11F40815181628173810E947E04E9EAA3
:101CD000F0E0EC0FFD1FE00FF11F60837183828342
:101CE0009383C250DF4FB882CE5FD040A12CB12C7D
:101CF000A0CB81E0C550DF4F8883CB5FD040C6507A
:101D0000DF4F1882CA5FD040E5CDFC01E45BFE4F97
:101D10003081CA50DF4F3883C65FD040E9EDF0E034
:101D2000EC0FFD1FEE0DFF1D3083F401E00FF11FDE
:101D30004081518162817381303409F46DC0303249
:101D400009F403C1303109F415C1383009F423C155
:101D5000343009F42DC1323009F44CC1832F8F5F28
:101D6000833008F4E9CBCA50DF4FF881C65FD0401A
:101D7000FE3F09F485C1FC3F09F487C1F83F09F42F
:101D80008DC1F03F09F4C7CBF7FD90C1AF2FFF0F16
:101D9000BB0B9A01AB010E94E810AB01BC01F3013F
:101DA000E00FF11F4083518362837383EDEDF0E018
:101DB000EC0FFD1FEE0DFF1D80810E947E04E9EAFD
:101DC000F0E0EC0FFD1FE00FF11F60837183828351
:101DD0009383CA50DF4FA881C65FD040A2300CF475
:101DE000C5CBCCCBC250DF4FB882CE5FD040A12C48
:101DF000B12C1FCB282F30E0291B3109A901330F4B
:101E0000660B770BE3CD282F30E0291B3109A901A0
:101E1000330F660B770B41CF440F551F661F771F9B
:101E2000440F551F661F771F440F551F661F771FEE
:101E3000440F551F661F771F440F551F661F771FDE
:101E4000440F551F661F771FF301E00FF11F4083FA
:101E5000518362837383EDEDF0E0EC0FFD1FEE0D17
:101E6000FF1D80810E947E04E9EAF0E0EC0FFD1F77
:101E7000E00FF11F60837183828393837FCBFA012C
:101E8000E45BFE4FA081E9EDF0E0EC0FFD1FE00FF9
:101E9000F11FA0837801EE0CFF1CEE0CFF1CF40177
:101EA000EE0DFF1D4081518162817381A03409F4E0
:101EB00088C0A03209F4A3C0A03109F4B5C0A8308D
:101EC00009F4C3C0A43009F4CDC0A23009F4D3C0D2
:101ED00091E09A0F9330B8F0AE3F09F407C1AC3FE0
:101EE00009F409C1A83F09F40FC1A03F09F4ACCD22
:101EF000A7FD12C10A2E000CBB0B9A01AB010E9478
:101F0000E810AB01BC01F301EE0DFF1D40835183CE
:101F100062837383EDEDF0E0EC0FFD1FE00FF11F26
:101F200080810E947E04E9EAF0E0EC0FFD1FEE0DD7
:101F3000FF1D6083718382839383C250DF4FB88219
:101F4000CE5FD040A12CB12C74CA440F551F661F20
:101F5000771F440F551F661F771F440F551F661FBD
:101F6000771F440F551F661F771F440F551F661FAD
:101F7000771F6ACF440F551F661F771F440F551FE9
:101F8000661F771F440F551F661F771F440F551F8D
:101F9000661F771F59CF440F551F661F771F440FC9
:101FA000551F661F771F440F551F661F771F4CCFA5
:101FB000440F551F661F771F440F551F661F771F5D
:101FC00043CF440F551F661F771F440F551F661FD1
:101FD000771F440F551F661F771F440F551F661F3D
:101FE000771F440F551F661F771F440F551F661F2D
:101FF000771F89CF440F551F661F771F25CF440FCA
:10200000551F661F771F440F551F661F771F440F0C
:10201000551F661F771F440F551F661F771F440FFC
:10202000551F661F771F6FCF440F551F661F771F01
:10203000440F551F661F771F440F551F661F771FDC
:10204000440F551F661F771F5ECF440F551F661F35
:10205000771F440F551F661F771F440F551F661FBC
:10206000771F51CF440F551F661F771F440F551F11
:10207000661F771F48CF440F551F661F771F43CF3A
:10208000769567955795479557CA7695679557956D
:10209000479576956795579547954ECAF3E076959F
:1020A000679557954795FA95D1F746CA2F2F33274D
:1020B00021950CF43095C901330FAA0BBB0BC1500D
:1020C000DF4F88839983AA83BB83CF5FD040CB0146
:1020D000BA01C150DF4F288139814A815B81CF5FCE
:1020E000D0400E94C610BA01A90126CA769567950C
:1020F0005795479508CF7695679557954795769567
:10210000679557954795FFCE33E076956795579538
:1021100047953A95D1F7F7CE2A2F332721950CF41E
:102120003095C901330FAA0BBB0BCA50DF4F888310
:102130009983AA83BB83C65FD040CB01BA01CA5042
:10214000DF4F288139814A815B81C65FD0400E9480
:10215000C610BA01A901D7CE4CE450E068E070E0A7
:102160008AEA91E00E940A118AEA91E0FC01219139
:1021700043963191231708F031C9232F8E179F07FB
:10218000C1F7A1E0863F9A0789F72AC9A1E21A2E72
:10219000AA1BBB1BFD010DC0AA1FBB1FEE1FFF1F0B
:1021A000A217B307E407F50720F0A21BB30BE40B5B
:1021B000F50B661F771F881F991F1A9469F76095A2
:1021C0007095809590959B01AC01BD01CF0108955C
:1021D000B7FF0C94F0100E94F010821B930B08952F
:1021E0000E94FB10A59F900DB49F900DA49F800DA1
:1021F000911D11240895A29FB001B39FC001A39F18
:10220000700D811D1124911DB29F700D811D11242F
:10221000911D0895DC01CB01FC01F999FECF06C0A8
:10222000F2BDE1BDF89A319600B40D924150504094
:10223000B8F70895F999FECF92BD81BDF89A992714
:1022400080B50895DC01CB0103C02D910E942D11B2
:1022500041505040D0F70895262FF999FECF1FBA6C
:1022600092BD81BD20BD0FB6F894FA9AF99A0FBEBF
:0822700001960895F894FFCFD8
:10227800F0F4F8F9FAFBFCFDFE0102030405060779
:10228800081020F0F4F8F9FAFBFCFDFE0102030443
:10229800050607081020F0F4F8F9FAFBFCFDFE012A
:1022A800020304050607081020F0F4F8F9FAFBFC0D
:1022B800FDFE010203040506070810202010080788
:1022C800060504030201FEFDFCFBFAF9F8F4F00030
:00000001FF
