:100000000C9434000C9451000C9451000C94510049
:100010000C9451000C942D010C9451000C9451003F
:100020000C9451000C9451000C9451000C9451000C
:100030000C9451000C9451000C9451000C945100FC
:100040000C9453000C9451000C9451000C945100EA
:100050000C9451000C9451000C9451000C945100DC
:100060000C9451000C94510011241FBECFEFD8E026
:10007000DEBFCDBF11E0A0E0B1E0EAEFF6E202C0E2
:1000800005900D92AC34B107D9F721E0ACE4B1E0B2
:1000900001C01D92AF39B207E1F70E9471060C94BE
:1000A0007B130C9400001F920F920FB60F92112435
:1000B0008F939F93AF93BF93EF93FF93F8948091A7
:1000C0009B0190919C01A0919D01B0919E01019690
:1000D000A11DB11D80939B0190939C01A0939D0154
:1000E000B0939E018091970190919801A091990100
:1000F000B0919A010196A11DB11D80939701909333
:100100009801A0939901B0939A01E7E8F1E080810A
:100110009181A281B3810196A11DB11D808391833C
:10012000A283B383EBE8F1E080819181A281B38166
:100130000196A11DB11D80839183A283B383EFE853
:10014000F1E080819181A281B3810196A11DB11D51
:1001500080839183A283B383E3E9F1E0808191817D
:10016000A281B3810196A11DB11D80839183A283D9
:10017000B383E7E6F1E080819181A281B3810196AA
:10018000A11DB11D80839183A283B383EBE6F1E0CF
:1001900080819181A281B3810196A11DB11D8083CF
:1001A0009183A283B383EFE6F1E080819181A28104
:1001B000B3810196A11DB11D80839183A283B38376
:1001C000E3E7F1E080819181A281B3810196A11DD5
:1001D000B11D80839183A283B383E7E7F1E080813F
:1001E0009181A281B3810196A11DB11D808391836C
:1001F000A283B383EBE7F1E080819181A281B38197
:100200000196A11DB11D80839183A283B383EFE783
:10021000F1E080819181A281B3810196A11DB11D80
:1002200080839183A283B383E3E8F1E080819181AD
:10023000A281B3810196A11DB11D80839183A28308
:10024000B3837894FF91EF91BF91AF919F918F917C
:100250000F900FBE0F901F9018951F920F920FB620
:100260000F9211242F938F939F93AF93BF9348992D
:100270007EC010925001499958C0109251014A997C
:1002800032C0109252014B9B2BC0809153018111BF
:100290001DC021E02093530180919301909194011E
:1002A000A0919501B09196018093630190936401B0
:1002B000A0936501B093660110929301109294018E
:1002C000109295011092960120934F01BF91AF912A
:1002D0009F918F912F910F900FBE0F901F901895A7
:1002E00010925301F3CF809152018111CCCF21E0C4
:1002F0002093520180918F0190919001A0919101E2
:10030000B091920180935F0190936001A09361018D
:10031000B093620110928F0110929001109291019E
:100320001092920120934E01AECF80915101811124
:10033000A6CF21E02093510180918B0190918C01F7
:10034000A0918D01B0918E0180935B0190935C012F
:10035000A0935D01B0935E0110928B0110928C010D
:1003600010928D0110928E0120934D0188CF8091C3
:100370005001811180CF21E02093500180918701AD
:1003800090918801A0918901B0918A0180935701D1
:1003900090935801A0935901B0935A01109287018C
:1003A000109288011092890110928A0120934C01C9
:1003B00062CF84E0809368008FE080936D000895A1
:1003C000F89460919B0170919C0180919D019091A6
:1003D0009E0178940895F894609197017091980126
:1003E0008091990190919A0178940895F8941092CF
:1003F0009701109298011092990110929A017894A5
:100400000895F89410929B0110929C0110929D0106
:1004100010929E0178940895F8941092970110928A
:1004200098011092990110929A0110929B011092DA
:100430009C0110929D0110929E01109277011092E2
:1004400078011092790110927A0110927B0110923A
:100450007C0110927D0110927E0110927F0110921A
:1004600080011092810110928201109283011092FA
:1004700084011092850110928601109287011092DA
:1004800088011092890110928A0110928B011092BA
:100490008C0110928D0110928E0110928F0110929A
:1004A000900110929101109292011092930110927A
:1004B000940110929501109296011092670110928A
:1004C00068011092690110926A0110926B011092FA
:1004D0006C0110926D0110926E0110926F011092DA
:1004E00070011092710110927201109273011092BA
:1004F0007401109275011092760114BC82E085BDE2
:1005000016BCEEE6F0E080818160808378940895E7
:1005100024982C9A259A8AB1807F8AB98BB1807FE2
:100520008BB98AB18F708AB98BB18F708BB984B156
:100530008F6084B9089587B1807C87B988B1807C49
:1005400088B98FE380937E00EAE7F0E080E880835B
:1005500080E280937C0080818760808380818064DA
:1005600080830895853010F480E20895813110F47D
:1005700080E108958E3110F488E008958B3210F4F4
:1005800087E00895883310F486E00895843410F4E9
:1005900085E00895803510F484E008958B3510F4DB
:1005A00083E00895873610F482E008950C944B069A
:1005B0000F931F938034D9F1803209F455C08031F4
:1005C00009F46BC0883011F1843009F47BC08230AB
:1005D00009F483C091E0980F933008F485C08E3FF2
:1005E00009F493C08C3F09F497C0883F09F49FC079
:1005F000803F09F47CC087FDA4C0A82FBB27A7FDBE
:10060000B0959A01AB010E9459130EC0CB01BA01FB
:10061000660F771F881F991F660F771F881F991F06
:10062000660F771F881F991F1F910F910895CB01A7
:10063000BA01660F771F881F991F660F771F881FE3
:10064000991F660F771F881F991F660F771F881FD6
:10065000991F660F771F881F991F660F771F881FC6
:10066000991F1F910F910895CB01BA01660F771F53
:10067000881F991F660F771F881F991F660F771FA6
:10068000881F991F660F771F881F991F660F771F96
:10069000881F991F1F910F910895CB01BA01660F12
:1006A000771F881F991F660F771F881F991F660F76
:1006B000771F881F991F660F771F881F991F1F912B
:1006C0000F910895CB01BA01660F771F881F991FFC
:1006D000660F771F881F991FA7CFCB01BA01660F3E
:1006E000771F881F991FA0CFCB01BA019DCFCB01E7
:1006F000BA0124E096958795779567952A95D1F765
:100700006F5F7F4F8F4F9F4F8FCFCB01BA01969571
:1007100087957795679588CFCB01BA019695879590
:100720007795679596958795779567957DCFCB015A
:10073000BA0133E096958795779567953A95D1F705
:1007400073CF282F332721950CF430958901222768
:1007500017FD2095322FCB01BA01A90198010E9403
:100760003713CA01B90160CFCF92DF92EF92FF92A7
:100770000F931F938A019B01E82FE095E430F0F47A
:10078000413A51056105710508F449C064E670E01D
:1007900080E090E00456110921093109EA3F28F46C
:1007A000061717072807390710F4C901B8011F9168
:1007B0000F91FF90EF90DF90CF900895EE30A0F46E
:1007C000CB01BA0155E096958795779567955A952F
:1007D000D1F7013A11052105310548F36436710559
:1007E0008105910598F2D6CFE83148F1E23288F5DB
:1007F000CB01BA01A5E09695879577956795AA955F
:10080000D1F768017901B4E0F694E794D794C794DE
:10081000BA95D1F76C0D7D1D8E1D9F1DDACFCB01D2
:10082000BA01E6E09695879577956795EA95D1F7B1
:100830001F910F91FF90EF90DF90CF900895CB0123
:10084000BA0144E096958795779567954A95D1F7D3
:10085000C0CFEC32C8F0E63308F5CB01BA0145E071
:1008600096958795779567954A95D1F768017901AF
:1008700053E0F694E794D794C7945A95D1F76C0D4A
:100880007D1D8E1D9F1DA5CFCB01BA01F3E096956E
:10089000879577956795FA95D1F79BCFE034B8F4B3
:1008A000CB01BA01A4E09695879577956795AA95AF
:1008B000D1F768017901B3E0F694E794D794C7942F
:1008C000BA95D1F76C0D7D1D8E1D9F1D82CFEA3428
:1008D00020F5CB01BA0144E0969587957795679509
:1008E0004A95D1F76801790153E0F694E794D794DB
:1008F000C7945A95D1F76C0D7D1D8E1D9F1D680103
:100900007901F5E0F694E794D794C794FA95D1F776
:100910006C0D7D1D8E1D9F1D5CCFE53558F4CB0100
:10092000BA0196958795779567959695879577956A
:1009300067954FCFEE35C0F4CB01BA01F4E0969540
:10094000879577956795FA95D1F768017901F694BF
:10095000E794D794C794F694E794D794C7946C0D12
:100960007D1D8E1D9F1D35CFE836C0F4CB01BA0129
:1009700043E096958795779567954A95D1F76801F5
:100980007901F694E794D794C794F694E794D794B2
:10099000C7946C0D7D1D8E1D9F1D1BCFE23728F562
:1009A000CB01BA01F3E09695879577956795FA950F
:1009B000D1F768017901F694E794D794C794F69437
:1009C000E794D794C7946C0D7D1D8E1D9F1D680103
:1009D0007901B4E0F694E794D794C794BA95D1F727
:1009E0006C0D7D1D8E1D9F1DF4CEEC3838F4CB01AF
:1009F000BA019695879577956795EBCEE639A0F481
:100A0000CB01BA01B5E09695879577956795BA952C
:100A1000D1F768017901F694E794D794C7946C0DE7
:100A20007D1D8E1D9F1DD5CEE03AA0F4CB01BA01ED
:100A3000F4E09695879577956795FA95D1F76801D3
:100A40007901F694E794D794C7946C0D7D1D8E1DA3
:100A50009F1DBFCEEA3A08F5CB01BA0154E0969546
:100A60008795779567955A95D1F768017901F6943E
:100A7000E794D794C7946C0D7D1D8E1D9F1D680152
:100A80007901F5E0F694E794D794C794FA95D1F7F5
:100A90006C0D7D1D8E1D9F1D9CCEE43BA0F4CB01F3
:100AA000BA01B3E09695879577956795BA95D1F792
:100AB00068017901F694E794D794C7946C0D7D1D75
:100AC0008E1D9F1D86CEEE3B50F4CB01BA01A3E0F4
:100AD0009695879577956795AA95D1F7C6CFE83C07
:100AE00008F5CB01BA0143E0969587957795679510
:100AF0004A95D1F768017901F694E794D794C794A1
:100B00006C0D7D1D8E1D9F1D68017901F4E0F6942A
:100B1000E794D794C794FA95D1F76C0D7D1D8E1D7F
:100B20009F1D57CEE23D70F5CB01BA0153E096957B
:100B30008795779567955A95D1F768017901F6946D
:100B4000E794D794C7946C0D7D1D8E1D9F1D680181
:100B50007901A4E0F694E794D794C794AA95D1F7C5
:100B60006C0D7D1D8E1D9F1D68017901B5E0F69409
:100B7000E794D794C794BA95D1F76C0D7D1D8E1D5F
:100B80009F1D27CEEC3DA8F4CB01BA019695879521
:100B9000779567959695879577956795680179011B
:100BA000F694E794D794C7946C0D7D1D8E1D9F1D00
:100BB00010CEE63E58F4CB01BA019695879577950D
:100BC0006795969587957795679594CFE03F10F553
:100BD000CB01BA01969587957795679596958795F8
:100BE0007795679568017901F694E794D794C7944F
:100BF0006C0D7D1D8E1D9F1D6801790143E0F694EB
:100C0000E794D794C7944A95D1F76C0D7D1D8E1D3E
:100C10009F1DDFCDEA3F78F5CB01BA019695879508
:100C2000779567959695879577956795680179018A
:100C3000F694E794D794C7946C0D7D1D8E1D9F1D6F
:100C40006801790153E0F694E794D794C7945A95D4
:100C5000D1F76C0D7D1D8E1D9F1D68017901F4E09B
:100C6000F694E794D794C794FA95D1F76C0D7D1D4F
:100C70008E1D9F1DAECDA5E076956795579547953E
:100C8000AA95D1F768017901C41AD50AE60AF70ACC
:100C9000C701B6019ECD843790F087FF12C08B3814
:100CA00090F0883990F0853A90F0823B90F08F3B3D
:100CB00090F08D3C90F08D3D90F484EF089581E0AC
:100CC00008958EEF08958DEF08958CEF08958BEFC2
:100CD00008958AEF089589EF089588EF089580EFC9
:100CE0000895CF93DF93CDB7DEB7C155D1400FB68E
:100CF000F894DEBF0FBECDBF9E0127513F4FCD5DA3
:100D0000DE4F39832883C352D14080E1D901E82FD7
:100D10001D92EA95E9F720513109CF5DDE4F398305
:100D20002883C152D140D901E82F1D92EA95E9F7F5
:100D300020513109C15EDE4F39832883CF51D14024
:100D4000D901E82F1D92EA95E9F720513109C35ED8
:100D5000DE4F39832883CD51D140D901E82F1D9230
:100D6000EA95E9F720513109C55EDE4F39832883C2
:100D7000CB51D140D901E82F1D92EA95E9F72051D6
:100D80003109C75EDE4F39832883C951D140D9016B
:100D90001D928A95E9F7CB5EDE4F188219821A827E
:100DA0001B82C551D14081E0CF5EDE4F8883C151A7
:100DB000D140CE5EDE4F8883C251D140CD5EDE4F42
:100DC0008883C351D140CC5EDE4F8883C451D1406B
:100DD000FE01E35BFF4FCB5DDE4FF983E883C55235
:100DE000D1409CE4492E11924A94E9F7C35FDE4F4B
:100DF000188219821A821B82CD50D140E0E0F1E0C6
:100E0000DE01119601900D929A95E1F79FE7C75F79
:100E1000DE4F9883C950D140C65FDE4F9883CA50D9
:100E2000D140C55FDE4F9883CB50D140C45FDE4FC9
:100E30009883CC50D140CB5FDE4F9883C550D140D2
:100E4000CA5FDE4F9883C650D140C95FDE4F98839A
:100E5000C750D140C85FDE4F9883C850D140CF5FA4
:100E6000DE4F8883C150D140CE5FDE4F8883C250B1
:100E7000D140CD5FDE4F8883C350D140CC5FDE4F81
:100E80008883C450D1400E940C020E94880284E0F2
:100E9000809368008FE080936D000E949B028FE139
:100EA0009EE40197F1F700C0000080915601807D1B
:100EB00080935601CF5BDE4F1882C154D140CE5B88
:100EC000DE4F1882C254D140CD5BDE4F1882C3542E
:100ED000D140CC5BDE4F1882C454D140C35BDE4F9F
:100EE0001882CD54D140C65CDE4F1882CA53D1401F
:100EF000CB5BDE4F19821882C554D140C05CDE4FF7
:100F00001882C054D140C15CDE4F1882CF53D1400B
:100F1000C55CDE4F188219821A821B82CB53D140E6
:100F2000DE01A750BF4FC85CDE4FB983A883C8530A
:100F3000D140C85CDE4F4880C853D140C75BDE4F0C
:100F40004882C954D140C75CDE4F5880C953D14054
:100F5000C65BDE4F5882CA54D140C55BDE4F488223
:100F6000CB54D140C45BDE4F5882CC54D1402DE4E9
:100F700030E02C0F3D1F2F5F3F4FC95BDE4F3983A1
:100F80002883C754D140F89480914C01C85CDE4F4F
:100F9000A881B981C853D1408C9380914D0111969D
:100FA0008C93119780914E0112968C931297809199
:100FB0004F0113968C937894C75BDE4F4880C954D9
:100FC000D140C85CDE4F4882C853D140C65BDE4F7B
:100FD0005880CA54D140C75CDE4F5882C953D140B3
:100FE000C55BDE4F6880CB54D140C95DDE4F68825F
:100FF000C752D140C45BDE4F7880CC54D140C85D2D
:10100000DE4F7882C852D1409E0127563F4F69017A
:10101000AE01435B5F4FCC5CDE4F59834883C453C2
:10102000D140C95BDE4F48805980C754D140CE5C67
:10103000DE4F59824882C253D1409A015A01445826
:101040005F4F4A018E010F5F1E4FBE016B5F7E4FE7
:10105000C75DDE4F79836883C952D140CE01875581
:101060009F4FC15DDE4F99838883CF52D140DE010F
:10107000A35FBE4FC35DDE4FB983A883CD52D1407D
:10108000FE01EF5EFE4F2F0124593F4F1901612CE5
:10109000712CE12CF12CC95DDE4FA881B981C752BA
:1010A000D1408D91C95DDE4FB983A883C752D1402D
:1010B000882309F4D8C6F894F701EE0FFF1FEE0F4E
:1010C000FF1FCA5CDE4FF983E883C653D1409F01FE
:1010D000295A3E4FF90180819181A281B381F401A7
:1010E00080839183A283B383D701A45BBE4F1C92FC
:1010F000D9011D921D921D921C921397CA5CDE4F5E
:10110000E881F981C653D140E959FE4F108211821E
:10111000128213827894E9E0F1E0EC0FFD1FEE0DEE
:10112000FF1D8081853008F01CC7F0E2CF5CDE4FE8
:10113000F883C153D140EF2FD801EC93D4016D91C6
:101140007D918D919C91BE2FB03209F468C7EB2F31
:10115000B03109F4A0C7B83011F40C94B9102E2F97
:10116000B43011F40C94C810B23011F40C94D610B1
:101170002F5F233010F40C94FD10CF5CDE4F4881BC
:10118000C153D1404E3F11F40C9420114C3F11F447
:101190000C946411A42F483F11F40C947C11403F2F
:1011A00011F40C94911147FF02C00C94B111A42FBB
:1011B000BB27A7FDB0959B01AC010E945913AB0161
:1011C000BC01D1014D935D936D937C931397C75DE3
:1011D000DE4FE881F981C952D14080810E94B40379
:1011E000C15DDE4FA881B981CF52D1406D937D930F
:1011F0008D939C931397C35DDE4FE881F981CD52A7
:10120000D1401082CF5CDE4FF881C153D140F23023
:10121000D4F4E1E0D201EC93F60180819181A281C6
:10122000B381892B8A2B8B2B71F4F894CA5CDE4F27
:10123000E881F981C653D140E958FE4F10821182EE
:10124000128213827894C5014396A1E0B0E0AC0FFE
:10125000BD1FA60DB71DF501CA5CDE4F68817981FF
:10126000C653D14069587E4F5D0130813F5F308366
:10127000D5012D915D01321758F0D8014C915527B9
:1012800047FD509530E04217530709F4CCC5108252
:101290003196E817F90749F7CC5CDE4F4881598150
:1012A000C453D140FFEFEF1AFF0A24E0220E311C95
:1012B00034E0C30ED11C4C5E5F4FCC5CDE4F5983D3
:1012C0004883C453D140CE5CDE4F68817981C253DC
:1012D000D1406D5E7F4FCE5CDE4F79836883C25311
:1012E000D14073E1670E711C5C0184E0880E911C93
:1012F0009FEF491A590A0F5F1F4FC75DDE4FA88144
:10130000B981C952D1401196C75DDE4FB983A88318
:10131000C952D140C15DDE4FE881F981CF52D14041
:101320003496C15DDE4FF983E883CF52D140C35D6F
:10133000DE4F28813981CD52D1402F5F3F4FC35DB1
:10134000DE4F39832883CD52D14034E0E316F104D7
:1013500009F0A1CEF8948091670190916801A09165
:101360006901B0916A01C752DF4F88839983AA83CC
:10137000BB83C95DD04080916B0190916C01A091BD
:101380006D01B0916E01C352DF4F88839983AA83A8
:10139000BB83CD5DD04080916F0190917001A09191
:1013A0007101B0917201CF51DF4F88839983AA8375
:1013B000BB83C15ED0408091730190917401A09174
:1013C0007501B0917601CB51DF4F88839983AA8351
:1013D000BB83C55ED04078944C9B1BC6CC5BDE4F74
:1013E0004880C454D14041108FC628982E961FAE15
:1013F0002E972F961FAE2F9760961FAE609761961F
:101400001FAE619762961FAE629763961FAE639799
:1014100064961FAE649765961FAE659766961FAE7D
:10142000669767961FAE679768961FAE689769962E
:101430001FAE69976A961FAE6A976B961FAE6B9741
:101440006C961FAE6C976D961FAE6D976E961FAE25
:101450006E976F961FAE6F97A0961FAEA097C7525C
:10146000DF4F88819981AA81BB81C95DD040C75671
:10147000DF4F88839983AA83BB83C959D040552401
:101480005394CB5EDE4F5882C551D140CF5EDE4FC4
:101490001882C151D14021E0CC5BDE4F2883C45477
:1014A000D1404D9B7DC5CD5BDE4F4880C354D140BC
:1014B00041104CC62998A1961FAEA197A2961FAEC7
:1014C000A297A3961FAEA397A4961FAEA497A59626
:1014D0001FAEA597A6961FAEA697A7961FAEA79775
:1014E000A8961FAEA897A9961FAEA997AA961FAE59
:1014F000AA97AB961FAEAB97AC961FAEAC97AD96C6
:101500001FAEAD97AE961FAEAE97AF961FAEAF971C
:10151000E0961FAEE097E1961FAEE197E2961FAE10
:10152000E297E3961FAEE397C352DF4F888199811C
:10153000AA81BB81CD5DD040C356DF4F888399839C
:10154000AA83BB83CD59D04055245394CA5EDE4F45
:101550005882C651D140CE5EDE4F1882C251D14072
:1015600021E0CD5BDE4F2883C354D1404E9B12C592
:10157000CE5BDE4F4880C254D1404110BEC52A9890
:10158000E4961FAEE497E5961FAEE597E6961FAE8C
:10159000E697E7961FAEE797E8961FAEE897E996BD
:1015A0001FAEE997EA961FAEEA97EB961FAEEB9750
:1015B000EC961FAEEC97ED961FAEED97EE961FAE34
:1015C000EE97EF961FAEEF97C158DF4F1882CF57B7
:1015D000D040C058DF4F1882C058D040CF57DF4F9F
:1015E0001882C158D040CE57DF4F1882C258D04021
:1015F000CD57DF4F1882C358D040CC57DF4F1882E9
:10160000C458D040CB57DF4F1882C558D040CF5177
:10161000DF4F88819981AA81BB81C15ED040CF55BF
:10162000DF4F88839983AA83BB83C15AD040552456
:101630005394C95EDE4F5882C751D140CD5EDE4F14
:101640001882C351D14021E0CE5BDE4F2883C254C3
:10165000D14089B190E0880F892F881F990B892B81
:1016600009F492C4CF5BDE4F4880C154D140411091
:1016700066C52B98CA57DF4F1882C658D040C95745
:10168000DF4F1882C758D040C857DF4F1882C8585C
:10169000D040C757DF4F1882C958D040C657DF4FD8
:1016A0001882CA58D040C557DF4F1882CB58D04057
:1016B000C457DF4F1882CC58D040C357DF4F188231
:1016C000CD58D040C257DF4F1882CE58D040C157B6
:1016D000DF4F1882CF58D040C057DF4F1882C05913
:1016E000D040CF56DF4F1882C159D040CE56DF4F81
:1016F0001882C259D040CD56DF4F1882C359D0400E
:10170000CC56DF4F1882C459D040CB56DF4F1882D9
:10171000C559D040CA56DF4F1882C659D040C95665
:10172000DF4F1882C759D040C856DF4F1882C859BA
:10173000D040CB51DF4F88819981AA81BB81C55EA2
:10174000D040CB55DF4F88839983AA83BB83C55A8A
:10175000D04055245394C85EDE4F5882C851D140C2
:10176000CC5EDE4F1882C451D14021E0CF5BDE4F0A
:101770002883C154D140C65CDE4F4881CA53D14052
:101780004F5FC65CDE4F4883CA53D140443008F0F7
:10179000F3C3242F30E0C901880F991F880F991FC8
:1017A000E9E9F0E0EC0FFD1FE80FF91F40815181DE
:1017B000628173814115510561057105F1F0A1E068
:1017C000B1E0AC0FBD1FA20FB31F2C9122300CF45F
:1017D000EAC4A9EBB0E0AC0FBD1FA80FB91F8D91F3
:1017E0009D910D90BC91A02D84179507A607B70772
:1017F00020F41082118212821382F8948091770172
:1018000090917801A0917901B0917A01C751DF4F91
:1018100088839983AA83BB83C95ED04080917B0172
:1018200090917C01A0917D01B0917E01C351DF4F69
:1018300088839983AA83BB83CD5ED04080917F014A
:1018400090918001A0918101B0918201CF50DF4F32
:1018500088839983AA83BB83C15FD0408091830131
:1018600090918401A0918501B0918601CB50DF4F0A
:1018700088839983AA83BB83C55FD0408091670129
:1018800090916801A0916901B0916A01C752DF4F40
:1018900088839983AA83BB83C95DD04080916B0103
:1018A00090916C01A0916D01B0916E01C352DF4F18
:1018B00088839983AA83BB83CD5DD04080916F01DB
:1018C00090917001A0917101B0917201CF51DF4FE1
:1018D00088839983AA83BB83C15ED04080917301C2
:1018E00090917401A0917501B0917601CB51DF4FB9
:1018F00088839983AA83BB83C55ED0407894D090B7
:1019000056018E0103501F4FBE016B5E7E4F4B018F
:10191000CE018F5E9E4F1C01DE01A35FBE4F5D01B5
:10192000FE01E754FF4FC95DDE4FF983E883C752DC
:10193000D140E0E0F0E020E030E0C35DDE4FF9832D
:10194000E883CD52D140C22EEFEFD801EC93C95DB0
:10195000DE4FE881F981C752D14081919191A191E7
:10196000B191C95DDE4FF983E883C752D14000973A
:10197000A105B10509F46DC249EE50E04C0F5D1FA1
:10198000C35DDE4F48805980CD52D140440D551D76
:10199000FA014080518062807380C25BDE4F4882D2
:1019A00059826A827B82CE54D14049EAE42EF12CDE
:1019B000EC0EFD1EC35DDE4F48805980CD52D140F4
:1019C000E40CF51CF7014080518062807380C25B9B
:1019D000DE4F488159816A817B81CE54D1404415C4
:1019E00055056605770550F0EE24E394F12C022EA0
:1019F00001C0EE0C0A94EAF7E094DE2069E9E62ED5
:101A0000F12CEC0EFD1EC35DDE4F68817981CD5255
:101A1000D140E60EF71EF70140805180628073804E
:101A2000E9EDEE2EF12CEC0EFD1EE60EF71EF70191
:101A300040815181628173814415550566057705A2
:101A400008F42FC2F101F080FF2009F42AC2F4014A
:101A50001082F1011082F8011082F501F080FA94F1
:101A6000F082EE24E394F12C0C2C01C0EE0C0A94CD
:101A7000EAF7DE2845284628472809F01BC2EE244D
:101A8000E394FE2CEC0EFD1EE20EF31EF701F08037
:101A90001F140CF0FAC22F5F3F4F0F5F1F4FC35D43
:101AA000DE4F48815981CD52D1404C5F5F4FC35DBD
:101AB000DE4F59834883CD52D1405FEFA51AB50A56
:101AC0006FEF861A960A7FEF271A370A24303105FE
:101AD00009F039CFD0925601F894C350DF4F888176
:101AE000CD5FD0408F3F59F090E0A0E0B0E0809310
:101AF000770190937801A0937901B0937A01C25055
:101B0000DF4F8881CE5FD0408F3F59F090E0A0E05A
:101B1000B0E080937B0190937C01A0937D01B09312
:101B20007E01C150DF4F8881CF5FD0408F3F59F099
:101B300090E0A0E0B0E080937F0190938001A093BB
:101B40008101B0938201C050DF4F8881C050D140E5
:101B50008F3F59F090E0A0E0B0E080938301909334
:101B60008401A0938501B0938601789485B1807D2E
:101B700090915601892B85B91C9918C2F8948091CF
:101B80009B0190919C01A0919D01B0919E01789440
:101B9000C05CDE4F4880C054D14041108FC2F894E1
:101BA00010929B0110929C0110929D0110929E0137
:101BB0007894F894109297011092980110929901DC
:101BC00010929A0178942091560120622093560138
:101BD000C55CDE4F88839983AA83BB83CB53D140F6
:101BE00021E0C05CDE4F2883C054D140C15CDE4F91
:101BF0001882CF53D1402C013D014114510461049E
:101C0000710409F4F8C1F8948091970190919801BA
:101C1000A0919901B0919A017894B301A2017695AF
:101C200067955795479584179507A607B70728F036
:101C3000209156012F7D20935601C55CDE4F4880D0
:101C400059806A807B80CB53D140481659066A067A
:101C50007B0698F484199509A609B709F89480932E
:101C6000970190939801A0939901B0939A01789469
:101C700080915601806280935601C65CDE4F2881B8
:101C8000CA53D140233009F07EC9CB5BDE4F488177
:101C90005981C554D1404F5F5F4FCB5BDE4F5983B5
:101CA0004883C554D140453051050CF46CC980912E
:101CB0007A0084FF68C980917A00806180937A00FD
:101CC00080917900C35BDE4FD880CD54D140D3944E
:101CD00057E05D1508F4BBC29D2D906290937C0087
:101CE00090917A00906490937A00C35BDE4F688194
:101CF000CD54D140643008F0B3C2E62EF12CE9E0B7
:101D0000F1E0EC0FFD1FEE0DFF1D9081891708F02B
:101D10001FC3492F50E0481B5109662757FD6095A6
:101D2000762F423051056105710508F4D8C2E9E00B
:101D3000F1E0EC0FFD1FEE0DFF1D8083E1E0F1E00F
:101D4000EC0FFD1FEE0DFF1DC080853008F024C391
:101D5000A0E2E1E0F1E0EC0FFD1FEE0DFF1DA0831E
:101D60008701000F111F000F111FE9ECF0E0EC0FCD
:101D7000FD1FE00FF11F6081718182819381A0328C
:101D800009F41EC3A03109F43DC3A83009F409C306
:101D9000A43009F44EC3A23009F47BC331E03A0FFA
:101DA000333008F473C3AE3F09F469C3AC3F09F4A0
:101DB000D6C3A83F09F479C3A03F09F480C3A7FDA7
:101DC0004FC3BB27A7FDB0959B01AC010E945913DF
:101DD000AB01BC01E9EBF0E0EC0FFD1FE00FF11FE0
:101DE0004083518362837383E5E0F1E0EC0FFD1FD4
:101DF000EE0DFF1D80810E94B403E9EAF0E0EC0FD4
:101E0000FD1FE00FF11F6083718382839383C35BA7
:101E1000DE4FD882CD54D140CB5BDE4F1982188281
:101E2000C554D140B0C821E0D2012C93D6012D91E8
:101E30003D914D915C91232B242B252B09F027CA32
:101E4000F894DB011D921D921D921C9213977894B9
:101E50001ECA81E090E0022E01C0880F0A94EAF7C2
:101E60008095D82218CEF894F701EE0FFF1FEE0FE1
:101E7000FF1FE959FE4F408151816281738178943F
:101E8000F40180819181A281B381880F991FAA1FDB
:101E9000BB1F84179507A607B70778F1C5014396BE
:101EA000FBC9F401F080F110D2CD4528462847281F
:101EB00009F4E5CDC25BDE4F488059806A807B80A3
:101EC000CE54D140481659066A067B0608F4E3CD85
:101ED000B301A201481B590B6A0B7B0BD8014C9331
:101EE00081E090E00C2C01C0880F0A94EAF7F5011C
:101EF000908191509083D82ACECDD1011D921D9210
:101F00001D921C921397F601108211821282138285
:101F1000CC5CDE4FA881B981C453D1401C92CE5C09
:101F2000DE4FE881F981C253D1401082EDE4F0E048
:101F3000EC0FFD1FE60DF71D12821382148215822D
:101F400016821782108611861286138614861586CD
:101F500016861786108A118A128AC5014396AD012A
:101F6000A1C9813108F0F9C020E1CF5CDE4F2883A0
:101F7000C153D140E22FE0C820E030E0C65CDE4F24
:101F80001882CA53D14007CCCF5BDE4F1882C154B0
:101F9000D140F1CBCE5BDE4F1882C254D14059CB39
:101FA000CD5BDE4F1882C354D140E0CAC15CDE4F26
:101FB0004880CF53D1404110AEC0809156018F7DF3
:101FC00080935601C05CDE4F1882C054D14021E09E
:101FD000C15CDE4F2883CF53D140C55CDE4F4880C3
:101FE00059806A807B80CB53D140411451046104F5
:101FF000710409F008CE809156018F7D80935601BF
:10200000C55CDE4F188219821A821B82CB53D140E5
:1020100034CECC5BDE4F1882C454D14042CAAB01EF
:10202000BC01440F551F661F771F440F551F661FC5
:10203000771F440F551F661F771F440F551F661FDC
:10204000771F440F551F661F771FF101408351838F
:1020500062837383C75DDE4FA881B981C952D140C5
:102060008C910E94B403C15DDE4FE881F981CF52AB
:10207000D1406083718382839383C35DDE4FA881E7
:10208000B981CD52D1401C92DEC8F501E080FE142A
:102090000CF001CD0FCFAB01BC01440F551F661FE3
:1020A000771F440F551F661F771F440F551F661F6C
:1020B000771F440F551F661F771FC7CF81389E4378
:1020C000A105B10508F479C0F89410929701109217
:1020D00098011092990110929A017894809156017A
:1020E0008F7D41E0C05CDE4F4883C054D140C15C6D
:1020F000DE4F1882CF53D14080CF31E0CE5BDE4F30
:102100003883C254D140A5CA31E0CC5BDE4F38835E
:10211000C454D140C6C9C05CDE4F1882C054D140FF
:1021200041E0C15CDE4F4883CF53D140C55CDE4FF8
:10213000488059806A807B80CB53D1405ECD31E0AE
:10214000CF5BDE4F3883C154D14015CB31E0CD5B3E
:10215000DE4F3883C354D14009CA8E3108F041C0E4
:1021600038E0CF5CDE4F3883C153D140E32F0C946D
:102170009C08AB01BC01440F551F661F771F440F1D
:10218000551F661F771F440F551F661F771F5DCFB2
:10219000AB01BC01440F551F661F771F440F551F2D
:1021A000661F771F52CFA9ECB0E015CBAB01BC0185
:1021B000440F551F661F771F48CF31E0C05CDE4FCC
:1021C0003883C054D140C15CDE4F1882CF53D14018
:1021D000C55CDE4F488059806A807B80CB53D140FC
:1021E0000CCD8B3208F092C047E0CF5CDE4F4883C5
:1021F000C153D140E42F0C949C08AB01BC01F10108
:102200004083518362837383C75DDE4FA881B981A8
:10221000C952D1408C910E94B403C15DDE4FE88168
:10222000F981CF52D1406083718382839383C35DF0
:10223000DE4FA881B981CD52D1401C920C9409097E
:10224000AB01BC017695679557954795D8CF90E23D
:1022500090937C0090917A00906490937A00D12CB6
:10226000C35BDE4F0881CD54D140045010E0E5E05F
:10227000F1E0EC0FFD1FE00FF11F9081891708F0CE
:102280005EC0492F50E0481B5109662757FD6095F5
:10229000762F443051056105710508F1E5E0F1E064
:1022A000EC0FFD1FE00FF11F8083000F111F000FC7
:1022B000111FE9EBF0E0EC0FFD1FE00FF11F408173
:1022C00051816281738197CDAB01BC017695679591
:1022D00057954795769567955795479590CFC35BEA
:1022E000DE4FD882CD54D140CB5BDE4F19821882AD
:1022F000C554D1400C94C307AB01BC01A3E0769553
:10230000679557954795AA95D1F779CF8833C8F542
:1023100056E0CF5CDE4F5883C153D140E52F0C947B
:102320009C08AB01BC01F4E07695679557954795FD
:10233000FA95D1F74F5F5F4F6F4F7F4F60CF482FB8
:1023400050E0491B5109662757FD6095762FA1CFB4
:10235000482F50E0491B5109662757FD6095762F9D
:10236000E0CCEA2FFF27E1950CF4F0959F0144277C
:1023700037FD4095542F0E943713BA01A9010C94E0
:10238000E1088434A0F565E0CF5CDE4F6883C1537B
:10239000D140E62F0C949C08813108F046C0A0E1A2
:1023A000D8CCAB01BC01440F551F661F771F440FEB
:1023B000551F661F771F440F551F661F771F0ACDD5
:1023C000AB01BC01440F551F661F771F440F551FFB
:1023D000661F771F440F551F661F771F440F551F39
:1023E000661F771F440F551F661F771FF3CC80357C
:1023F00058F574E0CF5CDE4F7883C153D140E72FAE
:102400000C949C08AB01BC01440F551F661F771F3D
:10241000440F551F661F771F440F551F661F771FF8
:10242000440F551F661F771FD5CC8E31C8F5A8E025
:1024300090CCAB01BC01440F551F661F771F440FA2
:10244000551F661F771FC6CC8B3508F07DC083E013
:10245000CF5CDE4F8883C153D140E82F0C949C0899
:10246000EA2FFF27E1950CF4F0959F01442737FDF3
:102470004095542F0E943713BA01A901ABCCAB0190
:10248000BC017695679557954795A4CCAB01BC01E7
:10249000A1CCAB01BC01440F551F661F771F9ACC1E
:1024A0008B3208F067C0A7E054CCAB01BC0183E0DD
:1024B00076956795579547958A95D1F78BCCAB0163
:1024C000BC01B4E07695679557954795BA95D1F7D5
:1024D0004F5F5F4F6F4F7F4FE9EBF0E0EC0FFD1F59
:1024E000E00FF11F4083518362837383E5E0F1E0E5
:1024F000EC0FFD1FEE0DFF1D80810E94B403E9EA81
:10250000F0E0EC0FFD1FE00FF11F60837183828309
:10251000938370EFC71609F4E2CEE9E9F0E0EC0F1F
:10252000FD1FE00FF11F1082118212821382C35B24
:10253000DE4FD882CD54D140CB5BDE4F198218825A
:10254000C554D1400C94C3078736C0F492E0CF5CE9
:10255000DE4F9883C153D140E92F0C949C08AB0106
:10256000BC017695679557954795769567955795EC
:10257000479530CC8833A0F5A6E0EBCB0E944B0604
:10258000CF5CDE4F8883C153D140F8018083D401F2
:102590006D917D918D919C91CF5CDE4FB881C1533F
:1025A000D140B03411F00C94A408AB01BC01440F2D
:1025B000551F661F771F440F551F661F771F440F57
:1025C000551F661F771F440F551F661F771F440F47
:1025D000551F661F771F440F551F661F771F35CD88
:1025E000843410F4A5E0B5CB803510F4A4E0B1CB71
:1025F0008B3510F4A3E0ADCB873610F4A2E0A9CB65
:102600000E944B06A82FE1E0F1E0EC0FFD1FEE0D5C
:10261000FF1D80838701000F111F000F111FE9ECC0
:10262000F0E0EC0FFD1FE00FF11F608171818281EE
:102630009381A03409F0A3CBAB01BC01440F551F1B
:10264000661F771F440F551F661F771F440F551FC6
:10265000661F771F440F551F661F771F440F551FB6
:10266000661F771F440F551F661F771FB3CBA1E26C
:102670001A2EAA1BBB1BFD010DC0AA1FBB1FEE1FFC
:10268000FF1FA217B307E407F50720F0A21BB30B47
:10269000E40BF50B661F771F881F991F1A9469F7C3
:1026A00060957095809590959B01AC01BD01CF011F
:1026B0000895B7FF0C9461130E946113821B930B62
:1026C00008950E946C13A59F900DB49F900DA49F38
:1026D000800D911D11240895A29FB001B39FC001E8
:1026E000A39F700D811D1124911DB29F700D811D3E
:0A26F0001124911D0895F894FFCF06
:1026FA00F0F4F8F9FAFBFCFDFE01020304050607F3
:10270A00081020F0F4F8F9FAFBFCFDFE01020304BC
:10271A00050607081020F0F4F8F9FAFBFCFDFE01A3
:10272A00020304050607081020F0F4F8F9FAFBFC86
:0C273A00FDFE0102030405060708102044
:00000001FF
