:100000000C9434000C9451000C9451000C94510049
:100010000C9451000C941B010C9451000C94510051
:100020000C9451000C9451000C9451000C9451000C
:100030000C9451000C9451000C9451000C945100FC
:100040000C9453000C9451000C9451000C945100EA
:100050000C9451000C9451000C9451000C945100DC
:100060000C9451000C94510011241FBECFEFD8E026
:10007000DEBFCDBF11E0A0E0B1E0EEE9FBE202C0DF
:1000800005900D92A036B107D9F721E0A0E6B1E0C6
:1000900001C01D92AF3FB207E1F70E94BA080C946D
:1000A000CD150C9400001F920F920FB60F921124E1
:1000B0008F939F93AF93BF93EF93FF93F8948091A7
:1000C000AF019091B001A091B101B091B201019640
:1000D000A11DB11D8093AF019093B001A093B10118
:1000E000B093B2018091AB019091AC01A091AD01B0
:1000F000B091AE010196A11DB11D8093AB0190930B
:10010000AC01A093AD01B093AE01EBE9F1E08081C9
:100110009181A281B3810196A11DB11D808391833C
:10012000A283B38384819581A681B7810196A11DA5
:10013000B11D84839583A683B78380859185A2852D
:10014000B3850196A11DB11D80879187A287B387D2
:1001500084859585A685B7850196A11DB11D8487E7
:100160009587A687B787EBE7F1E080819181A2812F
:10017000B3810196A11DB11D80839183A283B383B6
:1001800084819581A681B7810196A11DB11D8483CB
:100190009583A683B78380859185A285B3850196D3
:1001A000A11DB11D80879187A287B387848595851E
:1001B000A685B7850196A11DB11D84879587A68761
:1001C000B787EBE8F1E080819181A281B38101964C
:1001D000A11DB11D80839183A283B3838481958106
:1001E000A681B7810196A11DB11D84839583A68345
:1001F000B78380859185A285B3850196A11DB11D28
:1002000080879187A287B38784859585A685B785E2
:100210000196A11DB11D84879587A687B78778941D
:10022000FF91EF91BF91AF919F918F910F900FBE72
:100230000F901F9018951F920F920FB60F921124D6
:100240004F935F936F937F938F9348997EC01092E3
:100250006401499958C0109265014A9932C01092C0
:1002600066014B9B2BC08091670181111DC081E00D
:10027000809367014091A7015091A8016091A90165
:100280007091AA01409377015093780160937901AE
:1002900070937A011092A7011092A8011092A901FF
:1002A0001092AA01809363018F917F916F915F916A
:1002B0004F910F900FBE0F901F90189510926701ED
:1002C000F3CF809166018111CCCF81E080936601EC
:1002D0004091A3015091A4016091A5017091A601E4
:1002E000409373015093740160937501709376018C
:1002F0001092A3011092A4011092A5011092A601E0
:1003000080936201AECF809165018111A6CF81E01B
:100310008093650140919F015091A0016091A101DE
:100320007091A20140936F0150937001609371012D
:100330007093720110929F011092A0011092A1017E
:100340001092A2018093610188CF80916401811194
:1003500080CF81E08093640140919B0150919C018A
:1003600060919D0170919E0140936B0150936C01CF
:1003700060936D0170936E0110929B0110929C012D
:1003800010929D0110929E018093600162CF84E0E3
:10039000809368008FE080936D000895F8946091D9
:1003A000AF017091B0018091B1019091B201789448
:1003B0000895F8946091AB017091AC018091AD010A
:1003C0009091AE0178940895F8941092AB01109238
:1003D000AC011092AD011092AE0178940895F8949A
:1003E0001092AF011092B0011092B1011092B201BF
:1003F0007894089587B1807C87B988B1807C88B96A
:100400008FE380937E00EAE7F0E080E8808380E27B
:1004100080937C008081876080838081806480837A
:100420000895289829982A982B9820E041E050E0D8
:1004300035B1822F8370BA0102C0660F771F8A958B
:10044000E2F7CB01932F982B95B97FEF34E664E068
:10045000715030406040E1F700C0000095B18095D8
:10046000892385B92F5F283019F70895F8941092E1
:10047000AB011092AC011092AD011092AE0110923E
:10048000AF011092B0011092B1011092B201EBE8ED
:10049000F1E0108211821282138214821582168278
:1004A0001782108611861286138614861586168684
:1004B0001786EBE9F1E01082118212821382148216
:1004C000158216821782108611861286138614866C
:1004D000158616861786EBE7F1E0108211821282EC
:1004E0001382148215821682178210861186128654
:1004F0001386148615861686178614BC82E085BD81
:1005000016BCEEE6F0E080818160808378940895E7
:1005100024982C9A259A8AB1807F8AB98BB1807FE2
:100520008BB98AB18F708AB98BB18F708BB984B156
:100530008F6084B90895BF92CF92DF92EF92FF92BD
:100540000F931F93CF93DF93E3EBF1E085E0B82E99
:10055000B08290E1C92EC1822FE1D22ED2823DE23B
:10056000E32EE3824BE3F42EF48208E4058316E5E0
:100570001683D3E6D783C0E7C087BDE7B187A9E874
:10058000A28777E9738764EA648751EB55874FEB5D
:1005900046873DEC37872AED208B9BEE918B8FEFC2
:1005A000828BB38AC48AD58AE68AF78A008F118F34
:1005B000D28FC38FB48FA58F768F678F50A341A33F
:1005C00032A323A394A385A3B6A2C7A2D0A6E1A673
:1005D000F2A603A714A7D5A7C6A7B7A7A0AB71AB70
:1005E00062AB53AB44AB35AB26AB97AB80AFB1AE90
:1005F000C2AED3AEE4AEF092F0010093F1011093DD
:10060000F201D093F301C093F401B093F501A093EC
:10061000F6017093F7016093F8015093F90140934C
:10062000FA013093FB012093FC019093FD0180932C
:10063000FE01DF91CF911F910F91FF90EF90DF901E
:10064000CF90BF90089523E1829FC0011124FC0147
:10065000ED54FE4F20E030E08191861738F42F5F93
:100660003F4F23313105C1F780EF0895F901E45B75
:10067000FE4F808108950F931F938034D1F1803213
:1006800009F454C0803109F46AC0883009F184301B
:1006900009F47AC0823009F482C091E0980F933057
:1006A00008F484C08E3F09F492C08C3F09F496C0D0
:1006B000883F09F49EC0803F09F47BC087FDA3C03A
:1006C000A82F880FBB0B9A01AB010E947B150EC0AF
:1006D000440F551F661F771F440F551F661F771F56
:1006E000CB01BA01660F771F881F991F1F910F91C9
:1006F0000895440F551F661F771F440F551F661F2F
:10070000771F440F551F661F771F440F551F661F25
:10071000771FCB01BA01660F771F881F991F660FDD
:10072000771F881F991F1F910F910895440F551F20
:10073000661F771F440F551F661F771F440F551FF5
:10074000661F771F440F551F661F771FCB01BA0125
:10075000660F771F881F991F1F910F910895440FEF
:10076000551F661F771F440F551F661F771FCB014C
:10077000BA01660F771F881F991F660F771F881FA2
:10078000991F1F910F910895CB01BA01660F771F32
:10079000881F991F660F771F881F991FA7CFCB014E
:1007A000BA01660F771F881F991FA0CFCB01BA012E
:1007B0009DCF84E076956795579547958A95D1F7B3
:1007C000CB01BA016F5F7F4F8F4F9F4F8FCFCB0110
:1007D000BA01969587957795679588CFCB01BA0131
:1007E000969587957795679596958795779567956B
:1007F0007DCFCB01BA0123E09695879577956795D4
:100800002A95D1F773CF282F332721950CF43095F3
:100810008901330F220B330BCB01BA01A9019801D7
:100820000E945915CA01B90161CFCF92DF92EF92B0
:10083000FF920F931F9380958430F0F4413A510555
:100840006105710508F44DC004E610E020E030E0D9
:10085000445651096109710940175107620773072E
:1008600010F48A019B01C901B8011F910F91FF90FB
:10087000EF90DF90CF9008958A019B018E30C0F4F5
:10088000A5E03695279517950795AA95D1F7413A92
:1008900051056105710538F304361105210531054F
:1008A00050F18A3FA8F24456510961097109D9CF24
:1008B000883130F1823260F594E0369527951795AE
:1008C00007959A95D1F76A017B01E5E0F694E794E4
:1008D000D794C794EA95D1F70C0D1D1D2E1D3F1D11
:1008E000D6CF8A019B01B6E03695279517950795D7
:1008F000BA95D1F7B8CF04E610E020E030E0D1CFD0
:10090000F4E03695279517950795FA95D1F7BFCF5F
:100910008C32B8F08633E8F4F3E0369527951795D6
:100920000795FA95D1F76A017B01A5E0F694E79463
:10093000D794C794AA95D1F70C0D1D1D2E1D3F1DF0
:10094000A6CFB3E03695279517950795BA95D1F7B9
:100950009ECF8034A8F493E0369527951795079598
:100960009A95D1F76A017B01E4E0F694E794D79475
:10097000C794EA95D1F70C0D1D1D2E1D3F1D87CF85
:100980008A3410F5B3E03695279517950795BA95F3
:10099000D1F76A017B0194E0F694E794D794C79469
:1009A0009A95D1F7C00ED11EE21EF31E8A019B015B
:1009B000E5E03695279517950795EA95D1F70C0D43
:1009C0001D1D2E1D3F1D63CF853548F43695279597
:1009D00017950795369527951795079558CF8E3516
:1009E000B0F4369527951795079536952795179561
:1009F00007956A017B01F4E0F694E794D794C794D5
:100A0000FA95D1F70C0D1D1D2E1D3F1D40CF8836C8
:100A1000B0F4369527951795079536952795179530
:100A200007956A017B0193E0F694E794D794C79405
:100A30009A95D1F70C0D1D1D2E1D3F1D28CF823715
:100A400018F5369527951795079536952795179597
:100A500007956A017B01F3E0F694E794D794C79475
:100A6000FA95D1F7C00ED11EE21EF31E8A019B013A
:100A7000A4E03695279517950795AA95D1F70C0D03
:100A80001D1D2E1D3F1D03CF8C3828F4369527954C
:100A900017950795FCCE863990F4369527951795CE
:100AA00007956A017B01E5E0F694E794D794C79433
:100AB000EA95D1F70C0D1D1D2E1D3F1DE8CE803A85
:100AC00090F436952795179507956A017B01B4E058
:100AD000F694E794D794C794BA95D1F70C0D1D1DE1
:100AE0002E1D3F1DD4CE8A3A28F4369527951795AA
:100AF00007954FCF843B90F436952795179507952A
:100B00006A017B01B3E0F694E794D794C794BA9551
:100B1000D1F70C0D1D1D2E1D3F1DB9CE8E3BF8F4D7
:100B200036952795179507956A017B01E3E0F694C2
:100B3000E794D794C794EA95D1F7C00ED11EE21E70
:100B4000F31E8A019B01F5E03695279517950795C9
:100B5000FA95D1F70C0D1D1D2E1D3F1D98CE883C1A
:100B600028F4369527951795079573CF823D60F544
:100B700036952795179507956A017B01B3E0F694A2
:100B8000E794D794C794BA95D1F7C00ED11EE21E50
:100B9000F31E8A019B0194E03695279517950795DA
:100BA0009A95D1F7C00ED11EE21EF31E8A019B0159
:100BB000E5E03695279517950795EA95D1F70C0D41
:100BC0001D1D2E1D3F1D63CE8C3D98F43695279537
:100BD000179507956A017B01F694E794D794C7941B
:100BE000F694E794D794C7940C0D1D1D2E1D3F1D40
:100BF0004ECE863E00F536952795179507956A01E6
:100C00007B01F694E794D794C794F694E794D7942D
:100C1000C794C00ED11EE21EF31E8A019B0194E010
:100C200036952795179507959A95D1F70C0D1D1DAB
:100C30002E1D3F1D2CCE803F00F53695279517952C
:100C400007956A017B01F694E794D794C794F694CC
:100C5000E794D794C794C00ED11EE21EF31E8A01FA
:100C60009B01F3E03695279517950795FA95D1F7EF
:100C70000C0D1D1D2E1D3F1D0ACE8A3F68F53695B1
:100C80002795179507956A017B01F694E794D79409
:100C9000C794F694E794D794C794C00ED11EE21E71
:100CA000F31E8A019B01A3E03695279517950795BA
:100CB000AA95D1F7C00ED11EE21EF31E8A019B0138
:100CC000B4E03695279517950795BA95D1F70C0D91
:100CD0001D1D2E1D3F1DDBCD95E0369527951795E3
:100CE00007959A95D1F76A017B01C01AD10AE20AE9
:100CF000F30A97018601CBCD806280937C008091BE
:100D00007A00806480937A0080917A0084FFFCCF1F
:100D100080917A00806180937A00809179000895B3
:100D200084E690E021E0290F1C9B922F8150D1F79F
:100D300020E030E040E0E1E0F0E0822F806280934C
:100D40007C0080917A00806480937A0080917A00A0
:100D500084FFFCCF80917A00806180937A0080913B
:100D60007900893038F4BF01022E01C0660F0A9461
:100D7000EAF7462B2F5F3F4F24303105F1F6EFE3C2
:100D8000FCE93197F1F700C0000084E621E0290F6B
:100D90001C99292F922F8150C9F7273908F0842FE9
:100DA00008952F923F925F926F927F928F929F92BF
:100DB000AF92BF92CF92DF92EF92FF920F931F9369
:100DC000CF93DF93CDB7DEB7A6970FB6F894DEBF0B
:100DD0000FBECDBF682E712C05EC202E01E0302E09
:100DE000E12CF12C88248394912CBE01695D7F4F06
:100DF00055245A94C3010E2C02C0959587950A94E8
:100E0000E2F780FF56C1A4010E2C01C0440F0A94E2
:100E1000EAF7B42EB094BE2DB062FE013196A0E088
:100E200085B18B2185B90FEF16E721E00150104005
:100E30002040E1F700C00000B0937C0080917A0070
:100E4000806480937A0080917A0084FFFCCF809147
:100E50007A00806180937A00309179008FEF96E775
:100E600001E0815090400040E1F700C00000B093E5
:100E70007C0080917A00806480937A0080917A006F
:100E800084FFFCCF80917A00806180937A0080910A
:100E900079001FEF26E791E0115020409040E1F7E4
:100EA00000C00000B0937C0090917A009064909311
:100EB0007A0090917A0094FFFCCF90917A00906133
:100EC00090937A00209179000FEF16E791E001509E
:100ED00010409040E1F700C00000B0937C0090917A
:100EE0007A00906490937A0090917A0094FFFCCFFE
:100EF00090917A00906190937A00D090790090E080
:100F0000830F911D820F911D8D0D911D96958795D3
:100F10009695879591838083A23109F4B7C085B1F6
:100F2000842B85B9AA2309F4E7C0A13109F4E4C0F0
:100F30002AE030E00FEF13EC89E0015010408040D0
:100F4000E1F700C000009FEF06E711E0915000407C
:100F50001040E1F700C00000B0937C0080917A005F
:100F6000806480937A0080917A0084FFFCCF809126
:100F70007A00806180937A00A09079008FEF96E7E5
:100F800001E0815090400040E1F700C00000B093C4
:100F90007C0080917A00806480937A0080917A004E
:100FA00084FFFCCF80917A00806180937A008091E9
:100FB00079001FEF96E701E0115090400040E1F703
:100FC00000C00000B0937C0090917A0090649093F0
:100FD0007A0090917A0094FFFCCF90917A00906112
:100FE00090937A00C09079001FEF96E701E01150CE
:100FF00090400040E1F700C00000B0937C00909169
:101000007A00906490937A0090917A0094FFFCCFDC
:1010100090917A00906190937A00D090790090E05E
:101020008A0D911D8C0D911D8D0D911D96958795A5
:1010300096958795C080D1808C199D09821793075A
:1010400008F481CF2D9A85B18B2185B980E090E09D
:101050001C9B06C01C99FECF81E090E01C99FACF42
:10106000019684369105A0F380E090E01C9906C0BB
:101070001C9BFECF81E090E01C9BFACF019684364A
:101080009105A0F32D98AF5F3296CACE89819A81DF
:10109000FE013396D101529721913191820F931F16
:1010A000969587958D93C901E617F707A9F7F10182
:1010B0005082FFEFEF1AFF0A03E1200E311C14E00B
:1010C000E116F10409F096CEA6960FB6F894DEBFAD
:1010D0000FBECDBFDF91CF911F910F91FF90EF9089
:1010E000DF90CF90BF90AF909F908F907F906F9048
:1010F0005F903F902F90089525E030E01BCF82E075
:1011000090E00E94AD1591E08A3A09F090E0892FB5
:1011100008954CE450E068E070E083EB91E00C94BB
:101120009D1523EB31E0F90191912D5E3F4F8191A7
:10113000981750F4982F2E173F07C9F781E02F3FDB
:10114000380789F781E0089580E00895F999FECF86
:101150004CE450E068E070E083EB91E00E94B5154C
:10116000F999FECF6AEA82E090E00E94BF15F999F2
:10117000FECF0895CF93DF93CDB7DEB7C255D140F0
:101180000FB6F894DEBF0FBECDBF9E0127513F4F73
:10119000CB5DDE4F39832883C552D14080E1D90130
:1011A000E82F1D92EA95E9F720513109CD5DDE4F18
:1011B00039832883C352D140D901E82F1D92EA9583
:1011C000E9F720513109CF5DDE4F39832883C152C1
:1011D000D140D901E82F1D92EA95E9F72051310954
:1011E000C15EDE4F39832883CF51D140D901E82F2A
:1011F0001D92EA95E9F720513109C35EDE4F39832C
:101200002883CD51D140D901E82F1D92EA95E9F705
:1012100020513109C55EDE4F39832883CB51D1403F
:10122000D9011D928A95E9F7CB5EDE4F18821982AB
:101230001A821B82C551D14081E0CF5EDE4F888388
:10124000C151D140CE5EDE4F8883C251D140CD5EC8
:10125000DE4F8883C351D140CC5EDE4F8883C451BA
:10126000D140FE01E35BFF4FC75EDE4FF983E883A9
:10127000C951D1409CE4C92E1192CA94E9F7C35FC9
:10128000DE4F188219821A821B82CD50D140E0E0D5
:10129000F1E0DE01119601900D929A95E1F79FE73A
:1012A000C75FDE4F9883C950D140C65FDE4F988339
:1012B000CA50D140C55FDE4F9883CB50D140C45F48
:1012C000DE4F9883CC50D140CB5FDE4F9883C55022
:1012D000D140CA5FDE4F9883C650D140C95FDE4F10
:1012E0009883C750D140C85FDE4F9883C850D14023
:1012F000CF5FDE4F8883C150D140CE5FDE4F888301
:10130000C250D140CD5FDE4F8883C350D140CC5F07
:10131000DE4F8883C450D1400E9436020E9488026A
:1013200084E0809368008FE080936D000E94FA0152
:101330008FE19EE40197F1F700C0000080916A01FF
:101340008F7D80936A0182E090E00E94AD158A3A19
:1013500011F40C942F150E949B020E949006882382
:1013600031F00E94D1060E94A6080E9411020E943C
:10137000FA0180916A01807F80936A01C65BDE4F2B
:101380001882CA54D140C55BDE4F1882CB54D1407D
:10139000C45BDE4F1882CC54D140C35BDE4F188251
:1013A000CD54D140CE5ADE4F1882C255D140C15CD7
:1013B000DE4F1882CF53D140C25BDE4F19821882B4
:1013C000CE54D140C75BDE4F1882C954D140C85BB0
:1013D000DE4F1882C854D140C05CDE4F188219829B
:1013E0001A821B82C054D140EDE4F0E0EC0FFD1FE7
:1013F0003196C05BDE4FF983E883C055D140F89445
:1014000080916001C750DF4F8883C95FD0408091D1
:101410006101C650DF4F8883CA5FD040809162016E
:10142000C550DF4F8883CB5FD04080916301C450AB
:10143000DF4F8883CC5FD04078949E0127503F4F88
:10144000C55CDE4F39832883CB53D140AE0147546E
:101450005F4FC35CDE4F59834883CD53D140BE01FB
:1014600067567F4F6B01CE01835B9F4FCD5CDE4F94
:1014700099838883C353D140C05BDE4FE880F980F5
:10148000C055D140CB5CDE4FF982E882C553D140D4
:10149000205331093901485B51091A0168587F4FBF
:1014A000CC5BDE4F79836883C454D1408E010F5FDB
:1014B0001E4F88549F4FC35DDE4F99838883CD5262
:1014C000D140DE01A755BF4FC15DDE4FB983A88370
:1014D000CF52D140FE01E35FFE4FCA5BDE4FF9837E
:1014E000E883C654D14023EB31E0C55DDE4F39833C
:1014F0002883CB52D140CF5CDE4FF983E883C153C0
:10150000D1402B01885B91094C015096C95DDE4F9B
:10151000B983A883C752D140E12CF12CC55CDE4FC2
:10152000E881F981CB53D1408191C55CDE4FF983CD
:10153000E883CB53D140882309F48EC6F894570131
:10154000AA0CBB1CAA0CBB1C950125593E4FF901E6
:1015500080819181A281B381F30180839183A283F1
:10156000B383D701A05ABE4F1C92D9011D921D9280
:101570001D921C921397F501E558FE4F10821182BF
:10158000128213827894E9E0F1E0EC0FFD1FEE0D7A
:10159000FF1D3081C55DDE4FE881F981CB52D1401E
:1015A00080E090E02191231708F0F3C60196833183
:1015B0009105C1F7E0EFD801EC93D3014D915D9116
:1015C0006D917C91F4E07695679557954795FA95DE
:1015D000D1F74F5F5F4F6F4F7F4FC95DDE4FE8819F
:1015E000F981C752D1404083518362837383C35DC5
:1015F000DE4FA881B981CD52D1408C910E94150453
:10160000C15DDE4FE881F981CF52D14060837183A3
:1016100082839383CF5CDE4FA881B981C153D140CF
:101620001C92E1E0D201EC93F60180819181A281CC
:10163000B381892B8A2B8B2B49F4F894F501E5575C
:10164000FE4F10821182128213827894A4014D5EA3
:101650005F4FF401B50165577E4FC95CDE4F39829B
:101660002882C753D14090819F5F9083C95CDE4F31
:10167000A881B981C753D1408D91C95CDE4FB98330
:10168000A883C753D140981758F0D8012C91022E47
:10169000000C330B90E02817390709F4BDC5108200
:1016A0003196E417F507F9F6CB5CDE4F6881798156
:1016B000C553D140BFEFEB1AFB0AC95DDE4FE8818D
:1016C000F981C752D1403496C95DDE4FF983E88372
:1016D000C752D140F4E0CF0ED11CCD5CDE4F288143
:1016E0003981C353D1402C5E3F4FCD5CDE4F3983EF
:1016F0002883C353D1406D5E7F4FCB5CDE4F79832F
:101700006883C553D1404A0174E0670E711C83E1C0
:10171000280E311C9FEF491A590A0F5F1F4FC35DF6
:10172000DE4FA881B981CD52D1401196C35DDE4F05
:10173000B983A883CD52D140C15DDE4FE881F981E4
:10174000CF52D1403496C15DDE4FF983E883CF524A
:10175000D140CF5CDE4F28813981C153D1402F5F0A
:101760003F4FCF5CDE4F39832883C153D140C55DE5
:10177000DE4F48815981CB52D1404D5E5F4FC55DF0
:10178000DE4F59834883CB52D14054E0E516F10433
:1017900009F0C4CEF89480917B0190917C01A091D6
:1017A0007D01B0917E01C752DF4F88839983AA8360
:1017B000BB83C95DD04080917F0190918001A09151
:1017C0008101B0918201C352DF4F88839983AA833C
:1017D000BB83CD5DD0408091830190918401A09125
:1017E0008501B0918601CF51DF4F88839983AA8309
:1017F000BB83C15ED0408091870190918801A09108
:101800008901B0918A01CB51DF4F88839983AA83E4
:10181000BB83C55ED04078944C9B58C6C35BDE4FFB
:10182000C880CD54D140C11034C728982E961FAE21
:101830002E972F961FAE2F9760961FAE60976196DA
:101840001FAE619762961FAE629763961FAE639755
:1018500064961FAE649765961FAE659766961FAE39
:10186000669767961FAE679768961FAE68976996EA
:101870001FAE69976A961FAE6A976B961FAE6B97FD
:101880006C961FAE6C976D961FAE6D976E961FAEE1
:101890006E976F961FAE6F97A0961FAEA097C75218
:1018A000DF4F88819981AA81BB81C95DD040C7562D
:1018B000DF4F88839983AA83BB83C959D040DD2435
:1018C000D394CB5EDE4FD882C551D140CF5EDE4F80
:1018D0001882C151D14021E0C35BDE4F2883CD5433
:1018E000D1404D9BD8C5C45BDE4FC880CC54D1409D
:1018F000C110C8C62998A1961FAEA197A2961FAE87
:10190000A297A3961FAEA397A4961FAEA497A596E1
:101910001FAEA597A6961FAEA697A7961FAEA79730
:10192000A8961FAEA897A9961FAEA997AA961FAE14
:10193000AA97AB961FAEAB97AC961FAEAC97AD9681
:101940001FAEAD97AE961FAEAE97AF961FAEAF97D8
:10195000E0961FAEE097E1961FAEE197E2961FAECC
:10196000E297E3961FAEE397C352DF4F88819981D8
:10197000AA81BB81CD5DD040C356DF4F8883998358
:10198000AA83BB83CD59D040DD24D394CA5EDE4FF9
:10199000D882C651D140CE5EDE4F1882C251D140AE
:1019A00021E0C45BDE4F2883CC54D1404E9B7AC5E6
:1019B000C55BDE4FC880CB54D140C11071C62A9898
:1019C000E4961FAEE497E5961FAEE597E6961FAE48
:1019D000E697E7961FAEE797E8961FAEE897E99679
:1019E0001FAEE997EA961FAEEA97EB961FAEEB970C
:1019F000EC961FAEEC97ED961FAEED97EE961FAEF0
:101A0000EE97EF961FAEEF97C158DF4F1882CF5772
:101A1000D040C058DF4F1882C058D040CF57DF4F5A
:101A20001882C158D040CE57DF4F1882C258D040DC
:101A3000CD57DF4F1882C358D040CC57DF4F1882A4
:101A4000C458D040CB57DF4F1882C558D040CF5133
:101A5000DF4F88819981AA81BB81C15ED040CF557B
:101A6000DF4F88839983AA83BB83C15AD040DD248A
:101A7000D394C95EDE4FD882C751D140CD5EDE4FD0
:101A80001882C351D14021E0C55BDE4F2883CB547F
:101A9000D14089B190E0880F892F881F990B892B3D
:101AA00009F40EC5C65BDE4FC880CA54D140C110D0
:101AB000E2C52B98CA57DF4F1882C658D040C95785
:101AC000DF4F1882C758D040C857DF4F1882C85818
:101AD000D040C757DF4F1882C958D040C657DF4F94
:101AE0001882CA58D040C557DF4F1882CB58D04013
:101AF000C457DF4F1882CC58D040C357DF4F1882ED
:101B0000CD58D040C257DF4F1882CE58D040C15771
:101B1000DF4F1882CF58D040C057DF4F1882C059CE
:101B2000D040CF56DF4F1882C159D040CE56DF4F3C
:101B30001882C259D040CD56DF4F1882C359D040C9
:101B4000CC56DF4F1882C459D040CB56DF4F188295
:101B5000C559D040CA56DF4F1882C659D040C95621
:101B6000DF4F1882C759D040C856DF4F1882C85976
:101B7000D040CB51DF4F88819981AA81BB81C55E5E
:101B8000D040CB55DF4F88839983AA83BB83C55A46
:101B9000D040DD24D394C85EDE4FD882C851D140F6
:101BA000CC5EDE4F1882C451D14021E0C65BDE4FCF
:101BB0002883CA54D140C15CDE4F4881CF53D14005
:101BC0004F5FC15CDE4F4883CF53D140443008F0B3
:101BD0005AC4242F30E0C901880F991F880F991F1C
:101BE000E9E9F0E0EC0FFD1FE80FF91F408151819A
:101BF000628173814115510561057105F1F0A1E024
:101C0000B1E0AC0FBD1FA20FB31F2C9122300CF41A
:101C100064C5A9EBB0E0AC0FBD1FA80FB91F8D9133
:101C20009D910D90BC91A02D84179507A607B7072D
:101C300020F41082118212821382F89480918B0119
:101C400090918C01A0918D01B0918E01C751DF4F11
:101C500088839983AA83BB83C95ED04080918F011A
:101C600090919001A0919101B0919201C351DF4FE9
:101C700088839983AA83BB83CD5ED04080919301F2
:101C800090919401A0919501B0919601CF50DF4FB2
:101C900088839983AA83BB83C15FD04080919701D9
:101CA00090919801A0919901B0919A01CB50DF4F8A
:101CB00088839983AA83BB83C55FD04080917B01D1
:101CC00090917C01A0917D01B0917E01C752DF4FC0
:101CD00088839983AA83BB83C95DD04080917F01AB
:101CE00090918001A0918101B0918201C352DF4F98
:101CF00088839983AA83BB83CD5DD0408091830183
:101D000090918401A0918501B0918601CF51DF4F60
:101D100088839983AA83BB83C15ED0408091870169
:101D200090918801A0918901B0918A01CB51DF4F38
:101D300088839983AA83BB83C55ED0407894109131
:101D40006A01FE01E350FF4FBE016B5E7E4F5B01F7
:101D500020E030E080E090E0CC5BDE4F28803980EE
:101D6000C454D140CA5BDE4F88809980C654D140AC
:101D7000082F7FEF7083C35CDE4FA881B981CD53FC
:101D8000D1404D915D916D917D91C35CDE4FB983E2
:101D9000A883CD53D140411551056105710509F462
:101DA00051C2A9EEB0E0AC0FBD1FA20FB31FCD9082
:101DB000DD90ED90FC90C95CDE4FC882D982EA824A
:101DC000FB82C753D140A9EAB0E0AC0FBD1FA20F00
:101DD000B31F4D905D906D907C90C414D504E604C3
:101DE000F70448F0A1E0B0E0082E01C0AA0F0A9461
:101DF000EAF7A0951A23A9E9B0E0AC0FBD1FA20F26
:101E0000B31F4D905D906D907C90A9EDB0E0AC0F4C
:101E1000BD1FA20FB31FCD90DD90ED90FC90C414B8
:101E2000D504E604F70408F436C2D101FC90FF2083
:101E300009F431C2D5011C92D1011C921082A1E09B
:101E4000B0E0002E01C0AA0F0A94EAF71A2BD401C1
:101E5000FC90FA94FC9245284628472809F024C2B1
:101E6000A1E0B1E0AC0FBD1FA80FB91FFC901F147B
:101E70000CF0B7C3019631962C5F3F4FBFEF8B1A22
:101E80009B0A4FEFA41AB40A5FEF251A350A843073
:101E9000910509F06DCF10936A01F894C350DF4F9C
:101EA0008881CD5FD0408F3F59F090E0A0E0B0E056
:101EB00080938B0190938C01A0938D01B0938E0140
:101EC000C250DF4F8881CE5FD0408F3F59F090E005
:101ED000A0E0B0E080938F0190939001A0939101D6
:101EE000B0939201C150DF4F8881CF5FD0408F3FC8
:101EF00059F090E0A0E0B0E08093930190939401BA
:101F0000A0939501B0939601C050DF4F8881C050D7
:101F1000D1408F3F59F090E0A0E0B0E0809397016E
:101F200090939801A0939901B0939A01789485B108
:101F3000807D90916A01892B85B91C99CDC2F89456
:101F40008091AF019091B001A091B101B091B20127
:101F50007894C75BDE4FC880C954D140C1106CC3B0
:101F6000F8941092AF011092B0011092B10110924A
:101F7000B2017894F8941092AB011092AC011092D7
:101F8000AD011092AE01789420916A0120622093F5
:101F90006A01C05CDE4F88839983AA83BB83C054E7
:101FA000D14021E0C75BDE4F2883C954D140C85BD4
:101FB000DE4F1882C854D1406C017D01C114D10498
:101FC000E104F10409F4ADC2F8948091AB01909161
:101FD000AC01A091AD01B091AE017894B701A6011A
:101FE000769567955795479584179507A607B70780
:101FF00028F020916A012F7D20936A01C05CDE4F9A
:10200000C880D980EA80FB80C054D140C816D90668
:10201000EA06FB0698F48C199D09AE09BF09F894ED
:102020008093AB019093AC01A093AD01B093AE014E
:10203000789480916A01806280936A01C15CDE4F6E
:102040002881CF53D140233009F0D9C9C25BDE4F7C
:1020500048815981CE54D1404F5F5F4FC25BDE4F04
:1020600059834883CE54D140453051050CF4C7C93B
:1020700080917A0084FFC3C980917A008061809347
:102080007A0080917900CE5ADE4FD880C255D14077
:10209000D39457E05D1508F442C39D2D9062909350
:1020A0007C0090917A00906490937A00CE5ADE4F33
:1020B0006881C255D140643008F03AC3E62EF12C55
:1020C000E9E0F1E0EC0FFD1FEE0DFF1D208182170E
:1020D00008F0D1C330E0281B3109A901330F660B8A
:1020E000770B423051056105710508F467C3E9E0DB
:1020F000F1E0EC0FFD1FEE0DFF1D8083E1E0F1E04C
:10210000EC0FFD1FEE0DFF1DC080CE5ADE4F288163
:10211000C255D140B3E12B9FF0011124ED54FE4F85
:1021200020E030E006C02F5F3F4F2331310509F436
:10213000ACC391919817B8F3F901E45BFE4FA0810D
:10214000E1E0F1E0EC0FFD1FEE0DFF1DA083870124
:10215000000F111F000F111FE9ECF0E0EC0FFD1F45
:10216000E00FF11F6081718182819381A03409F4B5
:1021700001C4A03209F4E5C3A03109F440C4A83079
:1021800009F42CC4A43009F420C4A23009F454C4C6
:1021900021E02A0F2330A8F0AE3F09F45BC4AC3F26
:1021A00009F44FC4A83F09F43FC4A03F09F484C315
:1021B000A7FD71C40A2E000CBB0B9B01AC010E9451
:1021C0007B15E9EBF0E0EC0FFD1FE00FF11F6083E2
:1021D000718382839383E5E0F1E0EC0FFD1FEE0D48
:1021E000FF1DAB01BC0180810E941504E9EAF0E00B
:1021F000EC0FFD1FE00FF11F6083718382839383D7
:10220000CE5ADE4FD882C255D140C25BDE4F198212
:102210001882CE54D140F3C821E0D2012C93D601CC
:102220008D909D90AD90BC9089288A288B2809F0CC
:1022300036CAF894DB011D921D921D921C921397D1
:1022400078942DCA41E050E0082E01C0440F0A9452
:10225000EAF7409514230ECEF894F701EE0FFF1F16
:10226000EE0FFF1FE558FE4F40815181628173815F
:102270007894F30180819181A281B381880F991FA5
:10228000AA1FBB1F84179507A607B70760F1A40113
:102290004D5E5F4F09CAD501FC90F110CBCD4528AA
:1022A0004628472809F4DCCDC95CDE4FC880D980B8
:1022B000EA80FB80C753D140C416D506E606F70670
:1022C00008F4D8CDC41AD50AE60AF70AC08241E05C
:1022D00050E001C0440F0A95EAF7142BD4014C9149
:1022E00041504C93C7CDC95DDE4FA881B981C7521B
:1022F000D1401D921D921D921C921397F6011082DF
:10230000118212821382CD5CDE4FA881B981C35342
:10231000D1401C92CB5CDE4FE881F981C553D1409E
:102320001082D40112961C92129713961C92139746
:1023300014961C92149715961C92159716961C923B
:10234000169717961C92179718961C92189719961D
:102350001C9219971A961C921A971B961C921B97FF
:102360001C961C921C971D961C921D971E961C92E3
:102370001E971F961C921F9750961C92509751962D
:102380001C92519752961C92A4014D5E5F4FBF0163
:1023900091C9FC01E45BFE4FB081C95CDE4FB8839C
:1023A000C753D1402B2FF801B083D3014D915D91DC
:1023B0006D917C91203409F4C2C0C95CDE4FB881B4
:1023C000C753D140B03209F4F7C0EB2FB03109F454
:1023D0000EC1B83009F46BC12E2FB43009F474C1AA
:1023E000B23009F47DC1822F8F5F833008F4F5C8C5
:1023F000C95CDE4F8881C753D1408E3F09F489C143
:102400008C3F09F4C8C1883F09F4CFC1803F09F46B
:10241000D9C887FDE0C1A82F880FBB0B9A01AB017B
:102420000E947B15AB01BC01C95DDE4FA881B9815B
:10243000C752D1404D935D936D937C931397C35DC9
:10244000DE4FE881F981CD52D14080810E94150490
:10245000C15DDE4FA881B981CF52D1406D937D938C
:102460008D939C931397CF5CDE4FE881F981C15324
:10247000D1401082C95CDE4FF881C753D140F230A1
:102480000CF4CFC8E3C820E030E0C15CDE4F188216
:10249000CF53D140A0CBC45BDE4F1882CC54D14087
:1024A0004E9986CAC55BDE4F1882CB54D14089B1A4
:1024B00090E0880F892F881F990B892B09F0F2CAA9
:1024C000C65BDE4F1882CA54D14075CBC35BDE4F6A
:1024D0001882CD54D14005CAC85BDE4FC880C854AD
:1024E000D140C11095C080916A018F7D80936A01AF
:1024F000C75BDE4F1882C954D14021E0C85BDE4F74
:102500002883C854D140C05CDE4FC880D980EA809F
:10251000FB80C054D140C114D104E104F10409F09E
:1025200053CD80916A018F7D80936A01C05CDE4F3C
:10253000188219821A821B82C054D1407FCD440F69
:10254000551F661F771F440F551F661F771F440FC7
:10255000551F661F771F440F551F661F771F440FB7
:10256000551F661F771F440F551F661F771FC95DD4
:10257000DE4FE881F981C752D140408351836283A5
:102580007383C35DDE4FA881B981CD52D1408C9158
:102590000E941504C15DDE4FE881F981CF52D14020
:1025A0006083718382839383CF5CDE4FA881B9817E
:1025B000C153D1401C924AC8440F551F661F771F54
:1025C000440F551F661F771F440F551F661F771F47
:1025D000440F551F661F771F440F551F661F771F37
:1025E000C6CFD401EC90FE140CF044CC5DCE440F69
:1025F000551F661F771F440F551F661F771F440F17
:10260000551F661F771F440F551F661F771FAFCFDB
:10261000C75BDE4F1882C954D14041E0C85BDE4F32
:102620004883C854D140C05CDE4FC880D980EA805E
:10263000FB80C054D140C2CC81389E43A105B10576
:1026400008F453C0F8941092AB011092AC011092B0
:10265000AD011092AE01789480916A018F7D41E0C6
:10266000C75BDE4F4883C954D140C85BDE4F188238
:10267000C854D14058CF31E0C65BDE4F3883CA54CE
:10268000D14099CA31E0C45BDE4F3883CC54D1408D
:102690008DC931E0C35BDE4F3883CD54D14021C9B1
:1026A00031E0C55BDE4F3883CB54D140F2C9440FD3
:1026B000551F661F771F440F551F661F771F440F56
:1026C000551F661F771F53CF440F551F661F771F77
:1026D000440F551F661F771F4ACFA9ECB0E09BCA75
:1026E000440F551F661F771F42CF31E0C75BDE4F97
:1026F0003883C954D140C85BDE4F1882C854D140DA
:10270000C05CDE4FC880D980EA80FB80C054D140D5
:1027100055CC76956795579547950C94ED0A90E2C0
:1027200090937C0090917A00906490937A00D12CE1
:10273000CE5ADE4F0881C255D140045010E0E5E08A
:10274000F1E0EC0FFD1FE00FF11F2081821708F070
:1027500088C030E0281B3109A901330F660B770BC5
:10276000443051056105710548F1E5E0F1E0EC0FF9
:10277000FD1FE00FF11F8083000F111F000F111FBD
:10278000E9EBF0E0EC0FFD1FE00FF11F40815181FC
:102790006281738129CD7695679557954795769592
:1027A0006795579547950C94ED0AA3E07695679544
:1027B00057954795AA95D1F70C94ED0ACE5ADE4F5E
:1027C000D882C255D140C25BDE4F19821882CE54E6
:1027D000D1400C94FF09992781950CF49095092E0E
:1027E000000CAA0BBB0BC95CDE4F88839983AA83BC
:1027F000BB83C753D140CB01BA01C95CDE4F2881EE
:1028000039814A815B81C753D1400E945915BA0171
:10281000A901C95DDE4FA881B981C752D1404D934E
:102820005D936D937C931397C35DDE4FE881F981CF
:10283000CD52D14080810E941504C15DDE4FA88138
:10284000B981CF52D1406D937D938D939C93139713
:10285000CF5CDE4FE881F981C153D14010820C94E6
:10286000110B482F50E0BA01621B7109AB01770FC1
:10287000660B770B75CF482F50E0DA01A21BB10928
:10288000AD01BB0F660B770B2CCCE1E0F1E0EC0F58
:10289000FD1FEE0DFF1DB0EFB0838701000F111F6C
:1028A000000F111FE9ECF0E0EC0FFD1FE00FF11F2E
:1028B0006081718182819381AB01BC0124E07695B6
:1028C0006795579547952A95D1F74F5F5F4F6F4FA3
:1028D0007F4FE9EBF0E0EC0FFD1FE00FF11F4083AD
:1028E000518362837383E5E0F1E0EC0FFD1FEE0D91
:1028F000FF1D80810E941504E9EAF0E0EC0FFD1F46
:10290000E00FF11F608371838283938330EFC316DE
:1029100009F454CFE9E9F0E0EC0FFD1FE00FF11FDF
:102920001082118212821382CE5ADE4FD882C25593
:10293000D140C25BDE4F19821882CE54D1400C9434
:10294000FF09DC01CB01880F991FAA1FBB1F880F4D
:10295000991FAA1FBB1F880F991FAA1FBB1F880F93
:10296000991FAA1FBB1FBC01CD01660F771F881FCF
:10297000991F27CCAB01BC01440F551F661F771F61
:10298000440F551F661F771F440F551F661F771F83
:10299000440F551F661F771F440F551F661F771F73
:1029A000440F551F661F771FE9EBF0E0EC0FFD1F8A
:1029B000E00FF11F4083518362837383E5E0F1E010
:1029C000EC0FFD1FEE0DFF1D0ECC660F771F881F4D
:1029D000991F660F771F881F991FF3CBDC01CB016E
:1029E000880F991FAA1FBB1F880F991FAA1FBB1F03
:1029F000BC01CD01660F771F881F991FE2CBDC0158
:102A0000CB01880F991FAA1FBB1F880F991FAA1FF0
:102A1000BB1FBC01CD01660F771F881F991F660F72
:102A2000771F881F991FCDCB33E0969587957795B3
:102A300067953A95D1F7C5CB660F771F881F991F09
:102A4000C0CB969587957795679596958795779559
:102A50006795B7CB9695879577956795B2CB4CE4FC
:102A600050E068E070E083EB91E00E949D1583EBFD
:102A700091E0FC01219143963191231710F00C94C1
:102A8000AB09232F8E179F07B9F7A1E08F3F9A0755
:102A900081F70C94AD094A2F552741950CF45095B8
:102AA0009A01550F440B550B0E945915CA01B901E3
:102AB00088CBA1E21A2EAA1BBB1BFD010DC0AA1FC9
:102AC000BB1FEE1FFF1FA217B307E407F50720F097
:102AD000A21BB30BE40BF50B661F771F881F991F12
:102AE0001A9469F760957095809590959B01AC015B
:102AF000BD01CF010895B7FF0C9483150E94831583
:102B0000821B930B08950E948E15A59F900DB49F74
:102B1000900DA49F800D911D11240895A29FB001D6
:102B2000B39FC001A39F700D811D1124911DB29F01
:102B3000700D811D1124911D0895DC01CB01FC0154
:102B4000F999FECF06C0F2BDE1BDF89A319600B406
:102B50000D9241505040B8F70895F999FECF92BDBB
:102B600081BDF89A992780B50895DC01CB0103C097
:102B70002D910E94C01541505040D0F70895262F46
:102B8000F999FECF1FBA92BD81BD20BD0FB6F89452
:0E2B9000FA9AF99A0FBE01960895F894FFCFB5
:102B9E00F0F4F8F9FAFBFCFDFE010203040506074A
:102BAE00081020F0F4F8F9FAFBFCFDFE0102030414
:102BBE00050607081020F0F4F8F9FAFBFCFDFE01FB
:102BCE00020304050607081020F0F4F8F9FAFBFCDE
:102BDE00FDFE010203040506070810202010080759
:102BEE00060504030201FEFDFCFBFAF9F8F4F00001
:00000001FF
