:100000000C9434000C9451000C9451000C94510049
:100010000C9451000C942D010C9451000C9451003F
:100020000C9451000C9451000C9451000C9451000C
:100030000C9451000C9451000C9451000C945100FC
:100040000C9453000C9451000C9451000C945100EA
:100050000C9451000C9451000C9451000C945100DC
:100060000C9451000C94510011241FBECFEFD8E026
:10007000DEBFCDBF11E0A0E0B1E0E2E5F2E202C0F8
:1000800005900D92AC34B107D9F721E0ACE4B1E0B2
:1000900001C01D92AF39B207E1F70E9471060C94BE
:1000A00027110C9400001F920F920FB60F9211248B
:1000B0008F939F93AF93BF93EF93FF93F8948091A7
:1000C0009B0190919C01A0919D01B0919E01019690
:1000D000A11DB11D80939B0190939C01A0939D0154
:1000E000B0939E018091970190919801A091990100
:1000F000B0919A010196A11DB11D80939701909333
:100100009801A0939901B0939A01E7E8F1E080810A
:100110009181A281B3810196A11DB11D808391833C
:10012000A283B383EBE8F1E080819181A281B38166
:100130000196A11DB11D80839183A283B383EFE853
:10014000F1E080819181A281B3810196A11DB11D51
:1001500080839183A283B383E3E9F1E0808191817D
:10016000A281B3810196A11DB11D80839183A283D9
:10017000B383E7E6F1E080819181A281B3810196AA
:10018000A11DB11D80839183A283B383EBE6F1E0CF
:1001900080819181A281B3810196A11DB11D8083CF
:1001A0009183A283B383EFE6F1E080819181A28104
:1001B000B3810196A11DB11D80839183A283B38376
:1001C000E3E7F1E080819181A281B3810196A11DD5
:1001D000B11D80839183A283B383E7E7F1E080813F
:1001E0009181A281B3810196A11DB11D808391836C
:1001F000A283B383EBE7F1E080819181A281B38197
:100200000196A11DB11D80839183A283B383EFE783
:10021000F1E080819181A281B3810196A11DB11D80
:1002200080839183A283B383E3E8F1E080819181AD
:10023000A281B3810196A11DB11D80839183A28308
:10024000B3837894FF91EF91BF91AF919F918F917C
:100250000F900FBE0F901F9018951F920F920FB620
:100260000F9211242F938F939F93AF93BF9348992D
:100270007EC010925001499958C0109251014A997C
:1002800032C0109252014B9B2BC0809153018111BF
:100290001DC021E02093530180919301909194011E
:1002A000A0919501B09196018093630190936401B0
:1002B000A0936501B093660110929301109294018E
:1002C000109295011092960120934F01BF91AF912A
:1002D0009F918F912F910F900FBE0F901F901895A7
:1002E00010925301F3CF809152018111CCCF21E0C4
:1002F0002093520180918F0190919001A0919101E2
:10030000B091920180935F0190936001A09361018D
:10031000B093620110928F0110929001109291019E
:100320001092920120934E01AECF80915101811124
:10033000A6CF21E02093510180918B0190918C01F7
:10034000A0918D01B0918E0180935B0190935C012F
:10035000A0935D01B0935E0110928B0110928C010D
:1003600010928D0110928E0120934D0188CF8091C3
:100370005001811180CF21E02093500180918701AD
:1003800090918801A0918901B0918A0180935701D1
:1003900090935801A0935901B0935A01109287018C
:1003A000109288011092890110928A0120934C01C9
:1003B00062CF84E0809368008FE080936D000895A1
:1003C000F89460919B0170919C0180919D019091A6
:1003D0009E0178940895F894609197017091980126
:1003E0008091990190919A0178940895F8941092CF
:1003F0009701109298011092990110929A017894A5
:100400000895F89410929B0110929C0110929D0106
:1004100010929E0178940895F8941092970110928A
:1004200098011092990110929A0110929B011092DA
:100430009C0110929D0110929E01109277011092E2
:1004400078011092790110927A0110927B0110923A
:100450007C0110927D0110927E0110927F0110921A
:1004600080011092810110928201109283011092FA
:1004700084011092850110928601109287011092DA
:1004800088011092890110928A0110928B011092BA
:100490008C0110928D0110928E0110928F0110929A
:1004A000900110929101109292011092930110927A
:1004B000940110929501109296011092670110928A
:1004C00068011092690110926A0110926B011092FA
:1004D0006C0110926D0110926E0110926F011092DA
:1004E00070011092710110927201109273011092BA
:1004F0007401109275011092760114BC82E085BDE2
:1005000016BCEEE6F0E080818160808378940895E7
:1005100024982C9A259A8AB1807F8AB98BB1807FE2
:100520008BB98AB18F708AB98BB18F708BB984B156
:100530008F6084B9089587B1807C87B988B1807C49
:1005400088B98FE380937E00EAE7F0E080E880835B
:1005500080E280937C0080818760808380818064DA
:1005600080830895863010F480E20895813110F47C
:1005700080E10895803210F488E008958E3210F4FE
:1005800087E008958C3310F486E00895893410F4E0
:1005900085E00895873510F484E00895843610F4DA
:1005A00083E00895813710F482E008950C944B069F
:1005B0000F931F938034D9F1803209F455C08031F4
:1005C00009F46BC0883011F1843009F47BC08230AB
:1005D00009F483C091E0980F933008F485C08E3FF2
:1005E00009F493C08C3F09F497C0883F09F49FC079
:1005F000803F09F47CC087FDA4C0A82FBB27A7FDBE
:10060000B0959A01AB010E9405110EC0CB01BA0151
:10061000660F771F881F991F660F771F881F991F06
:10062000660F771F881F991F1F910F910895CB01A7
:10063000BA01660F771F881F991F660F771F881FE3
:10064000991F660F771F881F991F660F771F881FD6
:10065000991F660F771F881F991F660F771F881FC6
:10066000991F1F910F910895CB01BA01660F771F53
:10067000881F991F660F771F881F991F660F771FA6
:10068000881F991F660F771F881F991F660F771F96
:10069000881F991F1F910F910895CB01BA01660F12
:1006A000771F881F991F660F771F881F991F660F76
:1006B000771F881F991F660F771F881F991F1F912B
:1006C0000F910895CB01BA01660F771F881F991FFC
:1006D000660F771F881F991FA7CFCB01BA01660F3E
:1006E000771F881F991FA0CFCB01BA019DCFCB01E7
:1006F000BA0124E096958795779567952A95D1F765
:100700006F5F7F4F8F4F9F4F8FCFCB01BA01969571
:1007100087957795679588CFCB01BA019695879590
:100720007795679596958795779567957DCFCB015A
:10073000BA0133E096958795779567953A95D1F705
:1007400073CF282F332721950CF430958901222768
:1007500017FD2095322FCB01BA01A90198010E9403
:10076000E310CA01B90160CFCF92DF92EF92FF92FE
:100770000F931F938A019B01E82FE095E430F0F47A
:10078000413F51056105710508F449C068E270E018
:1007900080E090E00852110921093109EA3F28F46C
:1007A000061717072807390710F4C901B8011F9168
:1007B0000F91FF90EF90DF90CF900895EE30A0F46E
:1007C000CB01BA0155E096958795779567955A952F
:1007D000D1F7013F11052105310548F36832710554
:1007E0008105910598F2D6CFE83148F1E23288F5DB
:1007F000CB01BA01A5E09695879577956795AA955F
:10080000D1F768017901B4E0F694E794D794C794DE
:10081000BA95D1F76C0D7D1D8E1D9F1DDACFCB01D2
:10082000BA01E6E09695879577956795EA95D1F7B1
:100830001F910F91FF90EF90DF90CF900895CB0123
:10084000BA0144E096958795779567954A95D1F7D3
:10085000C0CFEC32C8F0E63308F5CB01BA0145E071
:1008600096958795779567954A95D1F768017901AF
:1008700053E0F694E794D794C7945A95D1F76C0D4A
:100880007D1D8E1D9F1DA5CFCB01BA01F3E096956E
:10089000879577956795FA95D1F79BCFE034B8F4B3
:1008A000CB01BA01A4E09695879577956795AA95AF
:1008B000D1F768017901B3E0F694E794D794C7942F
:1008C000BA95D1F76C0D7D1D8E1D9F1D82CFEA3428
:1008D00020F5CB01BA0144E0969587957795679509
:1008E0004A95D1F76801790153E0F694E794D794DB
:1008F000C7945A95D1F76C0D7D1D8E1D9F1D680103
:100900007901F5E0F694E794D794C794FA95D1F776
:100910006C0D7D1D8E1D9F1D5CCFE53558F4CB0100
:10092000BA0196958795779567959695879577956A
:1009300067954FCFEE35C0F4CB01BA01F4E0969540
:10094000879577956795FA95D1F768017901F694BF
:10095000E794D794C794F694E794D794C7946C0D12
:100960007D1D8E1D9F1D35CFE836C0F4CB01BA0129
:1009700043E096958795779567954A95D1F76801F5
:100980007901F694E794D794C794F694E794D794B2
:10099000C7946C0D7D1D8E1D9F1D1BCFE23728F562
:1009A000CB01BA01F3E09695879577956795FA950F
:1009B000D1F768017901F694E794D794C794F69437
:1009C000E794D794C7946C0D7D1D8E1D9F1D680103
:1009D0007901B4E0F694E794D794C794BA95D1F727
:1009E0006C0D7D1D8E1D9F1DF4CEEC3838F4CB01AF
:1009F000BA019695879577956795EBCEE639A0F481
:100A0000CB01BA01B5E09695879577956795BA952C
:100A1000D1F768017901F694E794D794C7946C0DE7
:100A20007D1D8E1D9F1DD5CEE03AA0F4CB01BA01ED
:100A3000F4E09695879577956795FA95D1F76801D3
:100A40007901F694E794D794C7946C0D7D1D8E1DA3
:100A50009F1DBFCEEA3A08F5CB01BA0154E0969546
:100A60008795779567955A95D1F768017901F6943E
:100A7000E794D794C7946C0D7D1D8E1D9F1D680152
:100A80007901F5E0F694E794D794C794FA95D1F7F5
:100A90006C0D7D1D8E1D9F1D9CCEE43BA0F4CB01F3
:100AA000BA01B3E09695879577956795BA95D1F792
:100AB00068017901F694E794D794C7946C0D7D1D75
:100AC0008E1D9F1D86CEEE3B50F4CB01BA01A3E0F4
:100AD0009695879577956795AA95D1F7C6CFE83C07
:100AE00008F5CB01BA0143E0969587957795679510
:100AF0004A95D1F768017901F694E794D794C794A1
:100B00006C0D7D1D8E1D9F1D68017901F4E0F6942A
:100B1000E794D794C794FA95D1F76C0D7D1D8E1D7F
:100B20009F1D57CEE23D70F5CB01BA0153E096957B
:100B30008795779567955A95D1F768017901F6946D
:100B4000E794D794C7946C0D7D1D8E1D9F1D680181
:100B50007901A4E0F694E794D794C794AA95D1F7C5
:100B60006C0D7D1D8E1D9F1D68017901B5E0F69409
:100B7000E794D794C794BA95D1F76C0D7D1D8E1D5F
:100B80009F1D27CEEC3DA8F4CB01BA019695879521
:100B9000779567959695879577956795680179011B
:100BA000F694E794D794C7946C0D7D1D8E1D9F1D00
:100BB00010CEE63E58F4CB01BA019695879577950D
:100BC0006795969587957795679594CFE03F10F553
:100BD000CB01BA01969587957795679596958795F8
:100BE0007795679568017901F694E794D794C7944F
:100BF0006C0D7D1D8E1D9F1D6801790143E0F694EB
:100C0000E794D794C7944A95D1F76C0D7D1D8E1D3E
:100C10009F1DDFCDEA3F78F5CB01BA019695879508
:100C2000779567959695879577956795680179018A
:100C3000F694E794D794C7946C0D7D1D8E1D9F1D6F
:100C40006801790153E0F694E794D794C7945A95D4
:100C5000D1F76C0D7D1D8E1D9F1D68017901F4E09B
:100C6000F694E794D794C794FA95D1F76C0D7D1D4F
:100C70008E1D9F1DAECDA5E076956795579547953E
:100C8000AA95D1F768017901C41AD50AE60AF70ACC
:100C9000C701B6019ECD8E3790F08A3890F0883922
:100CA00090F0853A90F0823B90F0803C90F08E3C42
:100CB00090F08B3D90F0883E90F484EF089581E0B1
:100CC00008958EEF08958DEF08958CEF08958BEFC2
:100CD00008958AEF089589EF089588EF089580EFC9
:100CE0000895CF93DF93CDB7DEB7CC54D1400FB684
:100CF000F894DEBF0FBECDBF9E0127513F4FC95DA7
:100D0000DE4F39832883C752D14080E1D901E82FD3
:100D10001D92EA95E9F720513109CB5DDE4F398309
:100D20002883C552D140D901E82F1D92EA95E9F7F1
:100D300020513109CD5DDE4F39832883C352D14024
:100D4000D901E82F1D92EA95E9F71E01F9EB2F0E64
:100D5000311CD101E82F1D92EA95E9F720523109A3
:100D6000CF5DDE4F39832883C152D140D901E82FAE
:100D70001D92EA95E9F720513109C15EDE4F3983B2
:100D80002883CF51D140D9011D928A95E9F7C75EDA
:100D9000DE4F188219821A821B82C951D140CB5E64
:100DA000DE4F188219821A821B82C551D14081E020
:100DB000CF5EDE4F8883C151D140CE5EDE4F888347
:100DC000C251D140CD5EDE4F8883C351D140CC5E4D
:100DD000DE4F8883C451D140FE01E35BFF4FC35E09
:100DE000DE4FF983E883CD51D1409CE4892E1192E6
:100DF0008A94E9F7C35FDE4F188219821A821B8238
:100E0000CD50D140E0E0F1E0DE01119601900D926D
:100E10009A95E1F79FE7C75FDE4F9883C950D140AD
:100E2000C65FDE4F9883CA50D140C55FDE4F9883BE
:100E3000CB50D140C45FDE4F9883CC50D140CB5FC4
:100E4000DE4F9883C550D140CA5FDE4F9883C650AD
:100E5000D140C95FDE4F9883C750D140C85FDE4F95
:100E60009883C850D140CF5FDE4F8883C150D140B6
:100E7000CE5FDE4F8883C250D140CD5FDE4F888386
:100E8000C350D140CC5FDE4F8883C450D1400E9414
:100E90000C020E94880284E0809368008FE08093B7
:100EA0006D000E949B028FE19EE40197F1F700C064
:100EB00000002D9880915601807F80935601C65B7B
:100EC000DE4F1882CA54D140C55CDE4F1882CB5326
:100ED000D140C25CDE4F19821882CE53D140C45B30
:100EE000DE4F1882CC54D140C55BDE4F1882CB5404
:100EF000D140CA5BDE4F188219821A821B82C65407
:100F0000D140DE01A750BF4FC75CDE4FB983A88335
:100F1000C953D140C75CDE4F8880C953D140CE5BF6
:100F2000DE4F8882C254D140C65CDE4F9880CA53DF
:100F3000D140CD5BDE4F9882C354D140CC5BDE4FB5
:100F40008882C454D140CB5BDE4F9882C554D140D7
:100F50002DE430E02C0F3D1F2F5F3F4FC05CDE4F74
:100F600039832883C054D140F89480914C01C75CE8
:100F7000DE4FA881B981C953D1408C9380914D0136
:100F800011968C93119780914E0112968C93129723
:100F900080914F0113968C937894CE5BDE4F8880BE
:100FA000C254D140C75CDE4F8882C953D140CD5B6B
:100FB000DE4F9880C354D140C65CDE4F9882CA533E
:100FC000D140CC5BDE4F8880C454D140C75DDE4F3A
:100FD0008882C952D140CB5BDE4F9880C554D14046
:100FE000C65DDE4F9882CA52D14051019E012756FC
:100FF0003F4F6901AE01435B5F4FCB5CDE4F5983CE
:101000004883C553D140C05CDE4F88809980C0546E
:10101000D140CD5CDE4F99828882C353D140C55DFB
:10102000DE4F59834883CB52D14044585F4F4A0129
:10103000BE016F5E7E4F2B018E010F5F1E4FCE01F2
:101040008B5F9E4FCF5CDE4F99838883C153D14025
:10105000DE01A755BF4FC15DDE4FB983A883CF52D4
:10106000D140FE01E35FFE4FC35DDE4FF983E883AD
:10107000CD52D140612C712CE12CF12CC45CDE4F9F
:1010800039822882CC53D140C75DDE4FA881B98117
:10109000C952D1408D91C75DDE4FB983A883C95233
:1010A000D140882309F4E7C4F894F701EE0FFF1F3D
:1010B000EE0FFF1FC95CDE4FF983E883C753D140B1
:1010C0009F01295A3E4FF90180819181A281B3810C
:1010D000F40180839183A283B383D701A45BBE4FC5
:1010E0001C92D9011D921D921D921C921397C95CEE
:1010F000DE4FE881F981C753D140E959FE4F108294
:101100001182128213827894E9E0F1E0EC0FFD1F66
:10111000EE0DFF1D8081863008F04FC560E2362E4F
:10112000F8013082D4016D917D918D919C91B0E256
:101130003B1609F44EC5E0E13E1609F49FC5F8E000
:101140003F1609F4B4C524E0321609F4BFC532E0F5
:10115000331609F402C621E0230D233008F418C623
:101160004EEF341609F436C65CEF351609F481C625
:10117000A8EF3A1609F488C6B0EF3B1609F49FC6EB
:1011800037FCB4C6A32DBB27A7FDB0959B01AC01CE
:101190000E940511AB01BC01D5014D935D936D9388
:1011A0007C931397CF5CDE4FE881F981C153D14026
:1011B00080810E94B403C15DDE4FA881B981CF5206
:1011C000D1406D937D938D939C931397C35DDE4FB8
:1011D000E881F981CD52D1401082F1E0F315D4F0CD
:1011E000E1E0D201EC93F60180819181A281B3818B
:1011F000892B8A2B8B2B71F4F894C95CDE4FE88124
:10120000F981C753D140E958FE4F108211821282F2
:1012100013827894C55DDE4F88819981CB52D1408D
:101220004396A1E0B0E0AC0FBD1FA60DB71DC55D94
:10123000DE4FE881F981CB52D140C95CDE4F688135
:101240007981C753D14069587E4F1D0130813F5F7E
:101250003083D1012D911D01321758F0D8014C91E6
:10126000552747FD509530E04217530709F438C21F
:1012700010823196E817F90749F7CB5CDE4F4881B9
:101280005981C553D140FFEFEF1AFF0A24E0A20EA7
:10129000B11C34E0C30ED11C4C5E5F4FCB5CDE4F03
:1012A00059834883C553D140CD5CDE4F6881798135
:1012B000C353D1406D5E7F4FCD5CDE4F7983688331
:1012C000C353D14073E1670E711CC55DDE4F998336
:1012D0008883CB52D14084E0880E911C9FEF491A3D
:1012E000590A0F5F1F4FCF5CDE4FA881B981C153F0
:1012F000D1401196CF5CDE4FB983A883C153D14052
:10130000C15DDE4FE881F981CF52D1403496C15D95
:10131000DE4FF983E883CF52D140C35DDE4F288191
:101320003981CD52D1402F5F3F4FC35DDE4F3983AE
:101330002883CD52D14034E0E316F10409F0A4CE65
:10134000C45CDE4F28803980CC53D14089B1C55C64
:10135000DE4F8880CB53D140482D50E090E09A0179
:101360002C5F3F4F02C0959587952A95E2F7E9E1FA
:10137000F1E0EC0FFD1FE40FF51F80FF0DC480812D
:1013800081110BC481E090E0082C01C0880F0A9401
:10139000EAF780959091560198239093560183E146
:1013A000849FF001859FF00D11242DE430E02C0F77
:1013B0003D1FE20FF31F10821182128213821482EA
:1013C000158216821782108611861286138614865D
:1013D000158616861786108A118A128AF894FA01E1
:1013E000EE0FFF1FEE0FFF1FE959FE4F8081918125
:1013F000A281B38178949A01220F331F220F331FE9
:10140000E9E9F0E0EC0FFD1FE20FF31F8083918309
:10141000A283B383E5E1F1E0EC0FFD1FE40FF51FBC
:1014200061E06083E9E1F1E0EC0FFD1FE40FF51FDF
:101430006083E1E1F1E0EC0FFD1FE40FF51F108286
:10144000E1E0F1E0EC0FFD1FE40FF51F40814230B9
:101450000CF403C4F101E20FF31F4081518162815A
:101460007381481759076A077B0750F4E9E9F0E0F0
:10147000EC0FFD1FE20FF31F108211821282138204
:10148000F8948091770190917801A0917901B091C1
:101490007A01C751DF4F88839983AA83BB83C95ED2
:1014A000D04080917B0190917C01A0917D01B09111
:1014B0007E01C351DF4F88839983AA83BB83CD5EAE
:1014C000D04080917F0190918001A0918101B091E5
:1014D0008201CF50DF4F88839983AA83BB83C15F8A
:1014E000D0408091830190918401A0918501B091B9
:1014F0008601CB50DF4F88839983AA83BB83C55F66
:10150000D0408091670190916801A0916901B091EC
:101510006A01C752DF4F88839983AA83BB83C95D61
:10152000D04080916B0190916C01A0916D01B091C0
:101530006E01C352DF4F88839983AA83BB83CD5D3D
:10154000D04080916F0190917001A0917101B09194
:101550007201CF51DF4F88839983AA83BB83C15E19
:10156000D0408091730190917401A0917501B09168
:101570007601CB51DF4F88839983AA83BB83C55EF5
:10158000D04078942B9801E010E0BB24BA94212F2E
:1015900030E0EDEFF0E0EC0FFD1FE20FF31FB08243
:1015A0003901660C771C660C771CD101A60DB71D9E
:1015B0008D919D910D90BC91A02D0097A105B10535
:1015C00009F4A4C049EE50E04C0F5D1F460D571DB5
:1015D000FA01C080D180E280F38049EA50E04C0FEC
:1015E0005D1F460D571DFA01408151816281738153
:1015F000C416D506E606F70668F041E050E0012E75
:1016000001C0440F0A94EAF74095509156015423C3
:101610005093560149E950E04C0F5D1F460D571D90
:10162000FA014081518162817381E9EDF0E0EC0FB4
:10163000FD1FE60DF71D40805180628073804416C7
:1016400055066606770608F439C2E1E1F1E0EC0FD1
:10165000FD1FE20FF31FE081EE2309F42FC2E5E145
:10166000F1E0EC0FFD1FE20FF31F1082E1E1F1E06A
:10167000EC0FFD1FE20FF31F1082EDEFF0E0EC0F17
:10168000FD1FE20FF31F1082A0905601E1E0F0E091
:10169000022E01C0EE0F0A94EAF7AE2AA09256017C
:1016A000EDE0F1E0EC0FFD1FE20FF31FA080AA9424
:1016B000A082452B462B472B09F00EC2E1E0F1E05A
:1016C000EC0FFD1FE20FF31F408114160CF0B7C2A0
:1016D000112309F4C0C2043041F11F5F0F5F57CFDF
:1016E00021E0D2012C93D6012D913D914D915C9139
:1016F000232B242B252B09F0BBCDF894DB011D9265
:101700001D921D921C9213977894B2CD81E090E0C7
:10171000012E01C0880F0A94EAF780959091560136
:101720009823909356010430C1F6F894C350DF4FCC
:101730008881CD5FD0408F3F59F090E0A0E0B0E0CD
:101740008093770190937801A0937901B0937A0107
:10175000C250DF4F8881CE5FD0408F3F59F090E07C
:10176000A0E0B0E080937B0190937C01A0937D0189
:10177000B0937E01C150DF4F8881CF5FD0408F3F53
:1017800059F090E0A0E0B0E080937F019093800159
:10179000A0938101B0938201C050DF4F8881C05077
:1017A000D1408F3F59F090E0A0E0B0E080938301FA
:1017B00090938401A0938501B0938601789495B1AC
:1017C000809156018770987F892B85B9C55CDE4F63
:1017D000F881CB53D140FF5FC55CDE4FF883CB531C
:1017E000D140F43008F0EFC1F33009F0BDCB1C99C3
:1017F00098C2F89480919B0190919C01A0919D01C9
:10180000B0919E017894C45BDE4F8880CC54D14067
:10181000811067C2F89410929B0110929C01109263
:101820009D0110929E017894F89410929701109265
:1018300098011092990110929A0178942D9ACA5B9E
:10184000DE4F88839983AA83BB83C654D14021E0AD
:10185000C45BDE4F2883CC54D140C55BDE4F188279
:10186000CB54D140AC01BD01452B462B472B09F48D
:101870004EC2F8948091970190919801A09199019E
:10188000B0919A017894CA5BDE4F488159816A8190
:101890007B81C654D14076956795579547958417B7
:1018A0009507A607B70708F02D98CA5BDE4F288179
:1018B00039814A815B81C654D140281739074A07CC
:1018C0005B0778F4821B930BA40BB50BF894809301
:1018D000970190939801A0939901B0939A017894FD
:1018E0002D9AC25CDE4F48815981CE53D1404F5F63
:1018F0005F4FC25CDE4F59834883CE53D1404A319B
:1019000051050CF431CB80917A0084FF2DCB80916E
:101910007A00806180937A0080917900C65BDE4F07
:10192000D880CA54D140D39457E05D1508F467C2FB
:101930009D2D906290937C0090917A00906490939A
:101940007A00C65BDE4F6881CA54D140643008F02B
:101950005FC2E62EF12CE9E0F1E0EC0FFD1FEE0D89
:10196000FF1D9081891708F0D0C2492F50E0481B15
:101970005109662757FD6095762F42305105610564
:10198000710508F48BC2E9E0F1E0EC0FFD1FEE0DEC
:10199000FF1D8083E1E0F1E0EC0FFD1FEE0DFF1D68
:1019A000C080863008F0BFC280E2E1E0F1E0EC0FD9
:1019B000FD1FEE0DFF1D80838701000F111F000F1B
:1019C000111FE9ECF0E0EC0FFD1FE00FF11F20818B
:1019D000318142815381803209F4B9C2803109F4E6
:1019E000D2C2883009F4A4C2843009F4E3C2823040
:1019F00009F40EC391E0980F933008F406C38E3FAC
:101A000009F4FCC28C3F09F460C3883F09F40CC39D
:101A1000803F09F413C387FDDEC2A82FBB27A7FDB3
:101A2000B0950E940511AB01BC01F101E00FF11F5F
:101A30004083518362837383E5E0F1E0EC0FFD1F87
:101A4000EE0DFF1D80810E94B403E9EAF0E0EC0F87
:101A5000FD1FE00FF11F6083718382839383C65B58
:101A6000DE4FD882CA54D140C25CDE4F1982188240
:101A7000CE53D14079CAF894F701EE0FFF1FEE0F55
:101A8000FF1FE959FE4F4081518162817381789433
:101A9000F40180819181A281B381880F991FAA1FCF
:101AA000BB1F84179507A607B707E8F1C55DDE4F92
:101AB00088819981CB52D1404396DFCBE5E1F1E0BB
:101AC000EC0FFD1FE20FF31FE081E111C8CD452BA4
:101AD000462B472B09F4F2CDC816D906EA06FB06B9
:101AE00008F4F9CDEDEFF0E0EC0FFD1FE20FF31F6E
:101AF000C81AD90AEA0AFB0AC08281E090E0022EE5
:101B000001C0880F0A94EAF790915601982B9093A0
:101B10005601EDE0F1E0EC0FFD1FE20FF31F8081B5
:101B200081508083D8CDD5011D921D921D921C92AB
:101B30001397F6011082118212821382CB5CDE4F62
:101B4000A881B981C553D1401C92CD5CDE4FE8819C
:101B5000F981C353D1401082EDE4F0E0EC0FFD1F9A
:101B6000E60DF71D128213821482158216821782E7
:101B70001086118612861386148615861686178699
:101B8000108A118A128AC55DDE4F88819981CB52F5
:101B9000D1404396AD0177CB10829A01220F331FBB
:101BA000220F331FE9E9F0E0EC0FFD1FE20FF31FF6
:101BB00080819181A281B38143CC813108F071C0D1
:101BC00050E1352EADCAC55CDE4F1882CB53D140F3
:101BD000CBC9AB01BC01440F551F661F771F440FD3
:101BE000551F661F771F440F551F661F771F440F31
:101BF000551F661F771F440F551F661F771FF5017E
:101C00004083518362837383CF5CDE4FA881B981A7
:101C1000C153D1408C910E94B403C15DDE4FE88175
:101C2000F981CF52D1406083718382839383C35DF6
:101C3000DE4FA881B981CD52D1401C92EBCAEDE0B4
:101C4000F1E0EC0FFD1FE20FF31F508145170CF47C
:101C500043CF111140CD2B9A40CDE9ECF0E0EC0FD1
:101C6000FD1FE20FF31F408151816281738148178C
:101C700059076A077B0708F003CCF8CBAB01BC011E
:101C8000440F551F661F771F440F551F661F771F90
:101C9000440F551F661F771F440F551F661F771F80
:101CA000AECF803208F060C048E0342E39CAAB01B4
:101CB000BC01440F551F661F771F440F551F661F39
:101CC000771F440F551F661F771F99CFAB01BC01CB
:101CD000440F551F661F771F440F551F661F771F40
:101CE0008ECF81389E43A105B10508F47AC0F894DF
:101CF00010929701109298011092990110929A01F6
:101D000078942D98C55BDE4F1882CB54D1402D9826
:101D1000CA5BDE4F188219821A821B82C654D140D8
:101D2000E0CDC55BDE4F8880CB54D140811022C00E
:101D30002D98C45BDE4F1882CC54D14021E0C55BA6
:101D4000DE4F2883CB54D140CA5BDE4F4881598196
:101D50006A817B81C654D14087CDAB01BC01440F61
:101D6000551F661F771F4BCF8E3208F0A3C037E098
:101D7000332ED6C9C45BDE4F1882CC54D140CA5B27
:101D8000DE4F488159816A817B81C654D1406CCD38
:101D9000AB01BC01F5014083518362837383CF5C47
:101DA000DE4FA881B981C153D1408C910E94B40308
:101DB000C15DDE4FE881F981CF52D14060837183EC
:101DC00082839383C35DDE4FA881B981CD52D14018
:101DD0001C9206CAAB01BC0176956795579547954D
:101DE000D9CFC55BDE4F1882CB54D140CA5BDE4FE2
:101DF000488159816A817B81C654D14035CD90E2BA
:101E000090937C0090917A00906490937A00D12C0A
:101E1000C65BDE4F0881CA54D140045010E0E5E0B3
:101E2000F1E0EC0FFD1FE00FF11F9081891708F022
:101E300054C0492F50E0481B5109662757FD609553
:101E4000762F443051056105710540F1E5E0F1E080
:101E5000EC0FFD1FE00FF11F8083000F111F000F1B
:101E6000111FF101E00FF11F4081518162817381E7
:101E7000EACDAB01BC017695679557954795769568
:101E800067955795479586CFAB01BC01E3E0769502
:101E9000679557954795EA95D1F77CCFC65BDE4F9E
:101EA000D882CA54D140C25CDE4F19821882CE5308
:101EB000D1405AC88C3390F526E0322E31C9AB019F
:101EC000BC0134E076956795579547953A95D1F7DB
:101ED0004F5F5F4F6F4F7F4F5DCF482F50E0491BE3
:101EE0005109662757FD6095762FABCFE32DFF276D
:101EF000E1950CF4F0959F01442737FD4095542F50
:101F00000E94E310BA01A90147C9482F50E0491BBC
:101F10005109662757FD6095762F2FCD893470F5CE
:101F200095E0392EFDC8813108F040C080E13DCDFB
:101F3000BA01A901440F551F661F771F440F551F93
:101F4000661F771F440F551F661F771F6ECDBA019E
:101F5000A901440F551F661F771F440F551F661FA9
:101F6000771F440F551F661F771F440F551F661FAD
:101F7000771F440F551F661F771F57CD873528F5EC
:101F800084E0382ECDC8BA01A901440F551F661F41
:101F9000771F440F551F661F771F440F551F661F7D
:101FA000771F440F551F661F771F3FCD8032B8F54E
:101FB00088E0FBCCBA01A901440F551F661F771FAB
:101FC000440F551F661F771F30CD843608F078C048
:101FD000B3E03B2EA5C8A82FBB27A1950CF4B09564
:101FE0004D01AA2497FCA094BA2CCA01B901A501FD
:101FF00094010E94E310BA01A90117CDBA01A90109
:10200000769567955795479510CDBA01A9010DCDE5
:10201000BA01A901440F551F661F771F06CD8E32E6
:1020200008F05EC087E0C1CCBA01A901F3E0769563
:10203000679557954795FA95D1F7F7CCBA01A9015D
:10204000E4E07695679557954795EA95D1F74F5F08
:102050005F4F6F4F7F4FF101E00FF11F40835183BE
:1020600062837383E5E0F1E0EC0FFD1FEE0DFF1DD1
:1020700080810E94B403E9EAF0E0EC0FFD1FE00F5D
:10208000F11F608371838283938370EFC71609F415
:1020900005CFE9E9F0E0EC0FFD1FE00FF11F108222
:1020A000118212821382C65BDE4FD882CA54D1409D
:1020B000C25CDE4F19821882CE53D1400C94B40713
:1020C000813790F4A2E03A2E2BC8BA01A901769587
:1020D0006795579547957695679557954795A5CCFC
:1020E0008C3358F586E061CC0E944B06382EF801FF
:1020F0008083D4016D917D918D919C91B0E43B12D0
:102100000C949708AB01BC01440F551F661F771F45
:10211000440F551F661F771F440F551F661F771FFB
:10212000440F551F661F771F440F551F661F771FEB
:10213000440F551F661F771F62CD893410F485E068
:1021400034CC873510F484E030CC843610F483E04E
:102150002CCC813710F482E028CC0E944B06E1E0C1
:10216000F1E0EC0FFD1FEE0DFF1D80838701000FD6
:10217000111F000F111FE9ECF0E0EC0FFD1FE00F45
:10218000F11F2081318142815381803409F023CCB9
:10219000BA01A901440F551F661F771F440F551F31
:1021A000661F771F440F551F661F771F440F551F6B
:1021B000661F771F440F551F661F771F440F551F5B
:1021C000661F771F32CCA1E21A2EAA1BBB1BFD0192
:1021D0000DC0AA1FBB1FEE1FFF1FA217B307E40706
:1021E000F50720F0A21BB30BE40BF50B661F771F5E
:1021F000881F991F1A9469F760957095809590953E
:102200009B01AC01BD01CF010895B7FF0C940D11E6
:102210000E940D11821B930B08950E941811A59F17
:10222000900DB49F900DA49F800D911D11240895D1
:10223000A29FB001B39FC001A39F700D811D112407
:10224000911DB29F700D811D1124911D0895F89468
:02225000FFCFBE
:10225200F0F4F8F9FAFBFCFDFE010203040506079F
:10226200081020F0F4F8F9FAFBFCFDFE0102030469
:10227200050607081020F0F4F8F9FAFBFCFDFE0150
:10228200020304050607081020F0F4F8F9FAFBFC33
:0C229200FDFE01020304050607081020F1
:00000001FF
