:100000000C9434000C9451000C9451000C94510049
:100010000C9451000C942D010C9451000C9451003F
:100020000C9451000C9451000C9451000C9451000C
:100030000C9451000C9451000C9451000C945100FC
:100040000C9453000C9451000C9451000C945100EA
:100050000C9451000C9451000C9451000C945100DC
:100060000C9451000C94510011241FBECFEFD8E026
:10007000DEBFCDBF11E0A0E0B1E0E0EDF2E202C0F2
:1000800005900D92AC34B107D9F721E0ACE4B1E0B2
:1000900001C01D92AF39B207E1F70E9471060C94BE
:1000A00066110C9400001F920F920FB60F9211244C
:1000B0008F939F93AF93BF93EF93FF93F8948091A7
:1000C0009B0190919C01A0919D01B0919E01019690
:1000D000A11DB11D80939B0190939C01A0939D0154
:1000E000B0939E018091970190919801A091990100
:1000F000B0919A010196A11DB11D80939701909333
:100100009801A0939901B0939A01E7E8F1E080810A
:100110009181A281B3810196A11DB11D808391833C
:10012000A283B383EBE8F1E080819181A281B38166
:100130000196A11DB11D80839183A283B383EFE853
:10014000F1E080819181A281B3810196A11DB11D51
:1001500080839183A283B383E3E9F1E0808191817D
:10016000A281B3810196A11DB11D80839183A283D9
:10017000B383E7E6F1E080819181A281B3810196AA
:10018000A11DB11D80839183A283B383EBE6F1E0CF
:1001900080819181A281B3810196A11DB11D8083CF
:1001A0009183A283B383EFE6F1E080819181A28104
:1001B000B3810196A11DB11D80839183A283B38376
:1001C000E3E7F1E080819181A281B3810196A11DD5
:1001D000B11D80839183A283B383E7E7F1E080813F
:1001E0009181A281B3810196A11DB11D808391836C
:1001F000A283B383EBE7F1E080819181A281B38197
:100200000196A11DB11D80839183A283B383EFE783
:10021000F1E080819181A281B3810196A11DB11D80
:1002200080839183A283B383E3E8F1E080819181AD
:10023000A281B3810196A11DB11D80839183A28308
:10024000B3837894FF91EF91BF91AF919F918F917C
:100250000F900FBE0F901F9018951F920F920FB620
:100260000F9211242F938F939F93AF93BF9348992D
:100270007EC010925001499958C0109251014A997C
:1002800032C0109252014B9B2BC0809153018111BF
:100290001DC021E02093530180919301909194011E
:1002A000A0919501B09196018093630190936401B0
:1002B000A0936501B093660110929301109294018E
:1002C000109295011092960120934F01BF91AF912A
:1002D0009F918F912F910F900FBE0F901F901895A7
:1002E00010925301F3CF809152018111CCCF21E0C4
:1002F0002093520180918F0190919001A0919101E2
:10030000B091920180935F0190936001A09361018D
:10031000B093620110928F0110929001109291019E
:100320001092920120934E01AECF80915101811124
:10033000A6CF21E02093510180918B0190918C01F7
:10034000A0918D01B0918E0180935B0190935C012F
:10035000A0935D01B0935E0110928B0110928C010D
:1003600010928D0110928E0120934D0188CF8091C3
:100370005001811180CF21E02093500180918701AD
:1003800090918801A0918901B0918A0180935701D1
:1003900090935801A0935901B0935A01109287018C
:1003A000109288011092890110928A0120934C01C9
:1003B00062CF84E0809368008FE080936D000895A1
:1003C000F89460919B0170919C0180919D019091A6
:1003D0009E0178940895F894609197017091980126
:1003E0008091990190919A0178940895F8941092CF
:1003F0009701109298011092990110929A017894A5
:100400000895F89410929B0110929C0110929D0106
:1004100010929E0178940895F8941092970110928A
:1004200098011092990110929A0110929B011092DA
:100430009C0110929D0110929E01109277011092E2
:1004400078011092790110927A0110927B0110923A
:100450007C0110927D0110927E0110927F0110921A
:1004600080011092810110928201109283011092FA
:1004700084011092850110928601109287011092DA
:1004800088011092890110928A0110928B011092BA
:100490008C0110928D0110928E0110928F0110929A
:1004A000900110929101109292011092930110927A
:1004B000940110929501109296011092670110928A
:1004C00068011092690110926A0110926B011092FA
:1004D0006C0110926D0110926E0110926F011092DA
:1004E00070011092710110927201109273011092BA
:1004F0007401109275011092760114BC82E085BDE2
:1005000016BCEEE6F0E080818160808378940895E7
:1005100024982C9A259A8AB1807F8AB98BB1807FE2
:100520008BB98AB18F708AB98BB18F708BB984B156
:100530008F6084B9089587B1807C87B988B1807C49
:1005400088B98FE380937E00EAE7F0E080E880835B
:1005500080E280937C0080818760808380818064DA
:1005600080830895863010F480E20895813110F47C
:1005700080E10895803210F488E008958E3210F4FE
:1005800087E008958C3310F486E00895893410F4E0
:1005900085E00895873510F484E00895843610F4DA
:1005A00083E00895813710F482E008950C944B069F
:1005B0000F931F938034D9F1803209F455C08031F4
:1005C00009F46BC0883011F1843009F47BC08230AB
:1005D00009F483C091E0980F933008F485C08E3FF2
:1005E00009F493C08C3F09F497C0883F09F49FC079
:1005F000803F09F47CC087FDA4C0A82FBB27A7FDBE
:10060000B0959A01AB010E9444110EC0CB01BA0112
:10061000660F771F881F991F660F771F881F991F06
:10062000660F771F881F991F1F910F910895CB01A7
:10063000BA01660F771F881F991F660F771F881FE3
:10064000991F660F771F881F991F660F771F881FD6
:10065000991F660F771F881F991F660F771F881FC6
:10066000991F1F910F910895CB01BA01660F771F53
:10067000881F991F660F771F881F991F660F771FA6
:10068000881F991F660F771F881F991F660F771F96
:10069000881F991F1F910F910895CB01BA01660F12
:1006A000771F881F991F660F771F881F991F660F76
:1006B000771F881F991F660F771F881F991F1F912B
:1006C0000F910895CB01BA01660F771F881F991FFC
:1006D000660F771F881F991FA7CFCB01BA01660F3E
:1006E000771F881F991FA0CFCB01BA019DCFCB01E7
:1006F000BA0124E096958795779567952A95D1F765
:100700006F5F7F4F8F4F9F4F8FCFCB01BA01969571
:1007100087957795679588CFCB01BA019695879590
:100720007795679596958795779567957DCFCB015A
:10073000BA0133E096958795779567953A95D1F705
:1007400073CF282F332721950CF430958901222768
:1007500017FD2095322FCB01BA01A90198010E9403
:100760002211CA01B90160CFCF92DF92EF92FF92BE
:100770000F931F938A019B01E82FE095E430F0F47A
:10078000413F51056105710508F449C068E270E018
:1007900080E090E00852110921093109EA3F28F46C
:1007A000061717072807390710F4C901B8011F9168
:1007B0000F91FF90EF90DF90CF900895EE30A0F46E
:1007C000CB01BA0155E096958795779567955A952F
:1007D000D1F7013F11052105310548F36832710554
:1007E0008105910598F2D6CFE83148F1E23288F5DB
:1007F000CB01BA01A5E09695879577956795AA955F
:10080000D1F768017901B4E0F694E794D794C794DE
:10081000BA95D1F76C0D7D1D8E1D9F1DDACFCB01D2
:10082000BA01E6E09695879577956795EA95D1F7B1
:100830001F910F91FF90EF90DF90CF900895CB0123
:10084000BA0144E096958795779567954A95D1F7D3
:10085000C0CFEC32C8F0E63308F5CB01BA0145E071
:1008600096958795779567954A95D1F768017901AF
:1008700053E0F694E794D794C7945A95D1F76C0D4A
:100880007D1D8E1D9F1DA5CFCB01BA01F3E096956E
:10089000879577956795FA95D1F79BCFE034B8F4B3
:1008A000CB01BA01A4E09695879577956795AA95AF
:1008B000D1F768017901B3E0F694E794D794C7942F
:1008C000BA95D1F76C0D7D1D8E1D9F1D82CFEA3428
:1008D00020F5CB01BA0144E0969587957795679509
:1008E0004A95D1F76801790153E0F694E794D794DB
:1008F000C7945A95D1F76C0D7D1D8E1D9F1D680103
:100900007901F5E0F694E794D794C794FA95D1F776
:100910006C0D7D1D8E1D9F1D5CCFE53558F4CB0100
:10092000BA0196958795779567959695879577956A
:1009300067954FCFEE35C0F4CB01BA01F4E0969540
:10094000879577956795FA95D1F768017901F694BF
:10095000E794D794C794F694E794D794C7946C0D12
:100960007D1D8E1D9F1D35CFE836C0F4CB01BA0129
:1009700043E096958795779567954A95D1F76801F5
:100980007901F694E794D794C794F694E794D794B2
:10099000C7946C0D7D1D8E1D9F1D1BCFE23728F562
:1009A000CB01BA01F3E09695879577956795FA950F
:1009B000D1F768017901F694E794D794C794F69437
:1009C000E794D794C7946C0D7D1D8E1D9F1D680103
:1009D0007901B4E0F694E794D794C794BA95D1F727
:1009E0006C0D7D1D8E1D9F1DF4CEEC3838F4CB01AF
:1009F000BA019695879577956795EBCEE639A0F481
:100A0000CB01BA01B5E09695879577956795BA952C
:100A1000D1F768017901F694E794D794C7946C0DE7
:100A20007D1D8E1D9F1DD5CEE03AA0F4CB01BA01ED
:100A3000F4E09695879577956795FA95D1F76801D3
:100A40007901F694E794D794C7946C0D7D1D8E1DA3
:100A50009F1DBFCEEA3A08F5CB01BA0154E0969546
:100A60008795779567955A95D1F768017901F6943E
:100A7000E794D794C7946C0D7D1D8E1D9F1D680152
:100A80007901F5E0F694E794D794C794FA95D1F7F5
:100A90006C0D7D1D8E1D9F1D9CCEE43BA0F4CB01F3
:100AA000BA01B3E09695879577956795BA95D1F792
:100AB00068017901F694E794D794C7946C0D7D1D75
:100AC0008E1D9F1D86CEEE3B50F4CB01BA01A3E0F4
:100AD0009695879577956795AA95D1F7C6CFE83C07
:100AE00008F5CB01BA0143E0969587957795679510
:100AF0004A95D1F768017901F694E794D794C794A1
:100B00006C0D7D1D8E1D9F1D68017901F4E0F6942A
:100B1000E794D794C794FA95D1F76C0D7D1D8E1D7F
:100B20009F1D57CEE23D70F5CB01BA0153E096957B
:100B30008795779567955A95D1F768017901F6946D
:100B4000E794D794C7946C0D7D1D8E1D9F1D680181
:100B50007901A4E0F694E794D794C794AA95D1F7C5
:100B60006C0D7D1D8E1D9F1D68017901B5E0F69409
:100B7000E794D794C794BA95D1F76C0D7D1D8E1D5F
:100B80009F1D27CEEC3DA8F4CB01BA019695879521
:100B9000779567959695879577956795680179011B
:100BA000F694E794D794C7946C0D7D1D8E1D9F1D00
:100BB00010CEE63E58F4CB01BA019695879577950D
:100BC0006795969587957795679594CFE03F10F553
:100BD000CB01BA01969587957795679596958795F8
:100BE0007795679568017901F694E794D794C7944F
:100BF0006C0D7D1D8E1D9F1D6801790143E0F694EB
:100C0000E794D794C7944A95D1F76C0D7D1D8E1D3E
:100C10009F1DDFCDEA3F78F5CB01BA019695879508
:100C2000779567959695879577956795680179018A
:100C3000F694E794D794C7946C0D7D1D8E1D9F1D6F
:100C40006801790153E0F694E794D794C7945A95D4
:100C5000D1F76C0D7D1D8E1D9F1D68017901F4E09B
:100C6000F694E794D794C794FA95D1F76C0D7D1D4F
:100C70008E1D9F1DAECDA5E076956795579547953E
:100C8000AA95D1F768017901C41AD50AE60AF70ACC
:100C9000C701B6019ECD8E3790F08A3890F0883922
:100CA00090F0853A90F0823B90F0803C90F08E3C42
:100CB00090F08B3D90F0883E90F484EF089581E0B1
:100CC00008958EEF08958DEF08958CEF08958BEFC2
:100CD00008958AEF089589EF089588EF089580EFC9
:100CE0000895CF93DF93CDB7DEB7C155D1400FB68E
:100CF000F894DEBF0FBECDBF9E0127513F4FC15EAE
:100D0000DE4F39832883CF51D14080E1D901E82FCC
:100D10001D92EA95E9F720513109C35EDE4F398310
:100D20002883CD51D140D901E82F1D92EA95E9F7EA
:100D300020513109C75DDE4F39832883C952D14024
:100D4000D901E82F1D92EA95E9F720513109C95DD3
:100D5000DE4F39832883C752D140D901E82F1D9235
:100D6000EA95E9F720513109CB5DDE4F39832883BD
:100D7000C552D140D901E82F1D92EA95E9F72051DB
:100D80003109CD5DDE4F39832883C352D140D9016B
:100D90001D928A95E9F7C75EDE4F188219821A8282
:100DA0001B82C951D140CB5EDE4F188219821A8254
:100DB0001B82C551D14081E0CF5EDE4F8883C15197
:100DC000D140CE5EDE4F8883C251D140CD5EDE4F32
:100DD0008883C351D140CC5EDE4F8883C451D1405B
:100DE000FE01E35BFF4FCF5DDE4FF983E883C15225
:100DF000D1409CE4492E11924A94E9F7C35FDE4F3B
:100E0000188219821A821B82CD50D140E0E0F1E0B5
:100E1000DE01119601900D929A95E1F79FE7C75F69
:100E2000DE4F9883C950D140C65FDE4F9883CA50C9
:100E3000D140C55FDE4F9883CB50D140C45FDE4FB9
:100E40009883CC50D140CB5FDE4F9883C550D140C2
:100E5000CA5FDE4F9883C650D140C95FDE4F98838A
:100E6000C750D140C85FDE4F9883C850D140CF5F94
:100E7000DE4F8883C150D140CE5FDE4F8883C250A1
:100E8000D140CD5FDE4F8883C350D140CC5FDE4F71
:100E90008883C450D1400E940C020E94880284E0E2
:100EA000809368008FE080936D000E949B028FE129
:100EB0009EE40197F1F700C000002D988091560143
:100EC000807F80935601C55BDE4F1882CB54D140A2
:100ED000C25CDE4F1882CE53D140C15CDE4F198216
:100EE0001882CF53D140C35BDE4F1882CD54D1401E
:100EF000C45BDE4F1882CC54D140C95BDE4F1882F0
:100F000019821A821B82C754D140DE01A750BF4FFD
:100F1000C45CDE4FB983A883CC53D140C45CDE4FA0
:100F20004880CC53D140CD5BDE4F4882C354D14082
:100F3000C35CDE4F5880CD53D140CC5BDE4F58822E
:100F4000C454D140CB5BDE4F4882C554D140CA5B0C
:100F5000DE4F5882C654D1402DE430E02C0F3D1FA7
:100F60002F5F3F4FCF5BDE4F39832883C154D14081
:100F7000F89480914C01C45CDE4FA881B981CC53B8
:100F8000D1408C9380914D0111968C931197809153
:100F90004E0112968C93129780914F0113968C9369
:100FA0007894CD5BDE4F4880C354D140C45CDE4FA3
:100FB0004882CC53D140CC5BDE4F5880C454D140E2
:100FC000C35CDE4F5882CD53D140CB5BDE4F68808F
:100FD000C554D140C55DDE4F6882CB52D140CA5B5B
:100FE000DE4F7880C654D140C45DDE4F7882CC524B
:100FF000D1409E0127563F4F6901AE01435B5F4FD1
:10100000C85CDE4F59834883C853D140CF5BDE4F65
:1010100048805980C154D140CA5CDE4F5982488211
:10102000C653D1409A015A0144585F4F4A018E017C
:101030000F5F1E4FBE016B5F7E4FCD5CDE4F79832D
:101040006883C353D140CE0187559F4FCF5CDE4F9D
:1010500099838883C153D140DE01A35FBE4FC35D36
:10106000DE4FB983A883CD52D140FE01EF5EFE4F23
:101070002F0124593F4F1901612C712CE12CF12CC7
:10108000C55DDE4FA881B981CB52D1408D91C55D40
:10109000DE4FB983A883CB52D140882309F416C50B
:1010A000F894F701EE0FFF1FEE0FFF1FC65CDE4F37
:1010B000F983E883CA53D1409F01295A3E4FF90171
:1010C00080819181A281B381F40180839183A28385
:1010D000B383D701A45BBE4F1C92D9011D921D9210
:1010E0001D921C921397C65CDE4FE881F981CA53AA
:1010F000D140E959FE4F10821182128213827894F6
:10110000E9E0F1E0EC0FFD1FEE0DFF1D8081863060
:1011100008F06BC570E2CB5CDE4F7883C553D140DD
:10112000E72FD801EC93D4016D917D918D919C9125
:10113000BE2FB03209F46AC5EB2FB03109F4A5C552
:10114000B83009F4C0C52E2FB43009F4CBC5B23085
:1011500009F4FEC52F5F233008F431C6CB5CDE4FA7
:101160004881C553D1404E3F09F44BC64C3F09F46A
:101170009AC6A42F483F09F4A1C6403F09F4BEC651
:1011800047FDDCC6A42FBB27A7FDB0959B01AC0192
:101190000E944411AB01BC01D1014D935D936D934D
:1011A0007C931397CD5CDE4FE881F981C353D14026
:1011B00080810E94B403CF5CDE4FA881B981C15306
:1011C000D1406D937D938D939C931397C35DDE4FB8
:1011D000E881F981CD52D1401082CB5CDE4FF8819D
:1011E000C553D140F230D4F4E1E0D201EC93F601E2
:1011F00080819181A281B381892B8A2B8B2B71F401
:10120000F894C65CDE4FE881F981CA53D140E958B1
:10121000FE4F10821182128213827894C501439688
:10122000A1E0B0E0AC0FBD1FA60DB71DF501C65C77
:10123000DE4F68817981CA53D14069587E4F5D0184
:1012400030813F5F3083D5012D915D01321758F019
:10125000D8014C91552747FD509530E04217530770
:1012600009F414C410823196E817F90749F7C85CED
:10127000DE4F48815981C853D140FFEFEF1AFF0A72
:1012800024E0220E311C34E0C30ED11C4C5E5F4FB3
:10129000C85CDE4F59834883C853D140CA5CDE4FD7
:1012A00068817981C653D1406D5E7F4FCA5CDE4F45
:1012B00079836883C653D14073E1670E711C5C016A
:1012C00084E0880E911C9FEF491A590A0F5F1F4F47
:1012D000CD5CDE4FA881B981C353D1401196CD5C5E
:1012E000DE4FB983A883C353D140CF5CDE4FE88182
:1012F000F981C153D1403496CF5CDE4FF983E88346
:10130000C153D140C35DDE4F28813981CD52D140D8
:101310002F5F3F4FC35DDE4F39832883CD52D140CD
:1013200034E0E316F10409F0ABCE89B1C25CDE4FC4
:101330004880CE53D140442D50E090E09A012C5F7C
:101340003F4F02C0959587952A95E2F7E9E1F1E0D4
:10135000EC0FFD1FE40FF51F80FF36C48081811163
:1013600034C481E090E0042C01C0880F0A94EAF7AD
:1013700080959091560198239093560183E1849F24
:10138000F001859FF00D11247DE4672E712C6C0E09
:101390007D1EE60DF71D10821182128213821482C7
:1013A000158216821782108611861286138614867D
:1013B000158616861786108A118A128AF894FA0101
:1013C000EE0FFF1FEE0FFF1FE959FE4F8081918145
:1013D000A281B38178949A01220F331F220F331F09
:1013E000E9E9F0E0EC0FFD1FE20FF31F808391832A
:1013F000A283B383E5E1F1E0EC0FFD1FE40FF51FDD
:10140000772473947082E9E1F1E0EC0FFD1FE40FA3
:10141000F51F7082E1E1F1E0EC0FFD1FE40FF51F15
:101420001082E1E0F1E0EC0FFD1FE40FF51F4081B9
:1014300042300CF421C4E9EBF0E0EC0FFD1FE20FA9
:10144000F31F4081518162817381481759076A07F0
:101450007B0750F4E9E9F0E0EC0FFD1FE20FF31F0A
:101460001082118212821382F894809177019091F8
:101470007801A0917901B0917A01C751DF4F88833B
:101480009983AA83BB83C95ED04080917B019091F0
:101490007C01A0917D01B0917E01C351DF4F888313
:1014A0009983AA83BB83CD5ED04080917F019091C8
:1014B0008001A0918101B0918201CF50DF4F8883DC
:1014C0009983AA83BB83C15FD040809183019091AF
:1014D0008401A0918501B0918601CB50DF4F8883B4
:1014E0009983AA83BB83C55FD040809167019091A7
:1014F0006801A0916901B0916A01C752DF4F8883EA
:101500009983AA83BB83C95DD04080916B01909180
:101510006C01A0916D01B0916E01C352DF4F8883C1
:101520009983AA83BB83CD5DD04080916F01909158
:101530007001A0917101B0917201CF51DF4F88838A
:101540009983AA83BB83C15ED0408091730190913F
:101550007401A0917501B0917601CB51DF4F888362
:101560009983AA83BB83C55ED0407894D0905601FE
:101570008E0103501F4F9E012B5E3E4F4901AE016D
:101580004F5E5E4F1A01BE01635F7E4F5B01CE016D
:1015900087549F4FC55DDE4F99838883CB52D140DE
:1015A000E0E0F0E020E030E0CF5CDE4FF983E8835C
:1015B000C153D140C22EEFEFD801EC93C55DDE4F91
:1015C000E881F981CB52D14081919191A191B19162
:1015D000C55DDE4FF983E883CB52D1400097A1056A
:1015E000B10509F469C249EE50E04C0F5D1FCF5CB4
:1015F000DE4F48805980C153D140440D551DFA013A
:101600004080518062807380C25BDE4F4882598285
:101610006A827B82CE54D14049EAE42EF12CEC0E52
:10162000FD1ECF5CDE4F48805980C153D140E40C91
:10163000F51CF7014080518062807380C25BDE4FF1
:10164000488159816A817B81CE54D140441555052A
:101650006605770550F0EE24E394F12C022E01C0CC
:10166000EE0C0A94EAF7E094DE2069E9E62EF12C0C
:10167000EC0EFD1ECF5CDE4F68817981C153D140F5
:10168000E60EF71EF7014080518062807380E9ED1D
:10169000EE2EF12CEC0EFD1EE60EF71EF70140813A
:1016A000518162817381441555056605770508F4FB
:1016B0002BC2F101F080FF2009F426C2F401108250
:1016C000F1011082F8011082F501F080FA94F082A5
:1016D000EE24E394F12C0C2C01C0EE0C0A94EAF7F2
:1016E000DE2845284628472809F017C2EE24E3944F
:1016F000FE2CEC0EFD1EE20EF31EF701F0801F140F
:101700000CF0BDC22F5F3F4F0F5F1F4FCF5CDE4F0E
:1017100048815981C153D1404C5F5F4FCF5CDE4F50
:1017200059834883C153D1405FEFA51AB50A6FEFC3
:10173000861A960A7FEF271A370A2430310509F0F6
:1017400039CFD0925601F894C350DF4F8881CD5FD6
:10175000D0408F3F59F090E0A0E0B0E08093770157
:1017600090937801A0937901B0937A01C250DF4F32
:101770008881CE5FD0408F3F59F090E0A0E0B0E08C
:1017800080937B0190937C01A0937D01B0937E01B7
:10179000C150DF4F8881CF5FD0408F3F59F090E03C
:1017A000A0E0B0E080937F0190938001A09381013D
:1017B000B0938201C050DF4F8881C050D1408F3F2D
:1017C00059F090E0A0E0B0E0809383019093840111
:1017D000A0938501B0938601789485B1807F909124
:1017E0005601892B85B9C25CDE4F8881CE53D1402A
:1017F0008F5FC25CDE4F8883CE53D140843008F0C7
:10180000FFC1833009F0B4CB1C9977C2F894809162
:101810009B0190919C01A0919D01B0919E017894B3
:10182000C35BDE4F4880CD54D1404110A3C2F89431
:1018300010929B0110929C0110929D0110929E01AA
:101840007894F8941092970110929801109299014F
:1018500010929A0178942D9AC95BDE4F8883998300
:10186000AA83BB83C754D14021E0C35BDE4F2883EA
:10187000CD54D140C45BDE4F1882CC54D1402C01F2
:101880003D01411451046104710409F457C2F894F4
:101890008091970190919801A0919901B0919A013E
:1018A0007894B301A201769567955795479584176B
:1018B0009507A607B70708F02D98C95BDE4F48804B
:1018C00059806A807B80C754D140481659066A0601
:1018D0007B0678F484199509A609B709F8948093D2
:1018E000970190939801A0939901B0939A017894ED
:1018F0002D9AC15CDE4F28813981CF53D1402F5FB3
:101900003F4FC15CDE4F39832883CF53D1402A310A
:1019100031050CF42DCB80917A0084FF29CB809186
:101920007A00806180937A0080917900C55BDE4FF8
:10193000D880CB54D140D39437E03D1508F476C21B
:101940009D2D906290937C0090917A00906490938A
:101950007A00C55BDE4F4881CB54D140443008F05B
:101960006EC2E42EF12CE9E0F1E0EC0FFD1FEE0D6C
:10197000FF1D9081891708F0CFC2492F50E0481B06
:101980005109662757FD6095762F42305105610554
:10199000710508F49DC2E9E0F1E0EC0FFD1FEE0DCA
:1019A000FF1D8083E1E0F1E0EC0FFD1FEE0DFF1D58
:1019B000C080863008F0DAC280E2E1E0F1E0EC0FAE
:1019C000FD1FEE0DFF1D80838701000F111F000F0B
:1019D000111FE9ECF0E0EC0FFD1FE00FF11F20817B
:1019E000318142815381803209F4D4C2803109F4BB
:1019F000F2C2883009F4BFC2843009F403C38230D4
:101A000009F433C391E0980F933008F42BC38E3F51
:101A100009F421C38C3F09F48EC3883F09F431C314
:101A2000803F09F438C387FD03C3A82FBB27A7FD58
:101A3000B0950E944411AB01BC01E9EBF0E0EC0F62
:101A4000FD1FE00FF11F4083518362837383E5E044
:101A5000F1E0EC0FFD1FEE0DFF1D80810E94B4032D
:101A6000E9EAF0E0EC0FFD1FE00FF11F60837183E6
:101A700082839383C55BDE4FD882CB54D140C15C57
:101A8000DE4F19821882CF53D14072CA21E0D201B1
:101A90002C93D6012D913D914D915C91232B242BBC
:101AA000252B09F0DFCBF894DB011D921D921D92CE
:101AB0001C9213977894D6CB81E090E0022E01C05F
:101AC000880F0A94EAF78095D8221CCEF894F70183
:101AD000EE0FFF1FEE0FFF1FE959FE4F40815181AE
:101AE000628173817894F40180819181A281B381B4
:101AF000880F991FAA1FBB1F84179507A607B70752
:101B000078F1C5014396B3CBF401F080F110D6CD46
:101B100045284628472809F4E9CDC25BDE4F4880B6
:101B200059806A807B80CE54D140481659066A0697
:101B30007B0608F4E7CDB301A201481B590B6A0BE1
:101B40007B0BD8014C9381E090E00C2C01C0880FF6
:101B50000A94EAF7F501908191509083D82AD2CD6A
:101B6000D1011D921D921D921C921397F6011082B5
:101B7000118212821382C85CDE4FA881B981C853DA
:101B8000D1401C92CA5CDE4FE881F981C653D14036
:101B90001082EDE4F0E0EC0FFD1FE60DF71D128260
:101BA000138214821582168217821086118612867D
:101BB00013861486158616861786108A118A128A4D
:101BC000C5014396AD0159CB10829A01220F331FF4
:101BD000220F331FE9E9F0E0EC0FFD1FE20FF31FC6
:101BE00080819181A281B3811CCC813108F060C0D9
:101BF00080E1CB5CDE4F8883C553D140E82F91CA8A
:101C0000C25CDE4F1882CE53D140B2C9AB01BC01D9
:101C1000440F551F661F771F440F551F661F771F00
:101C2000440F551F661F771F440F551F661F771FF0
:101C3000440F551F661F771FF10140835183628354
:101C40007383CD5CDE4FA881B981C353D1408C91A1
:101C50000E94B403CF5CDE4FE881F981C153D140CB
:101C60006083718382839383C35DDE4FA881B981D2
:101C7000CD52D1401C92D2CAE9ECF0E0DECBF501A6
:101C8000E080FE140CF03ECD48CFAB01BC01440F08
:101C9000551F661F771F440F551F661F771F440F80
:101CA000551F661F771F440F551F661F771FC4CF30
:101CB000803208F054C098E0CB5CDE4F9883C55367
:101CC000D140E92F2ECAAB01BC01440F551F661F3E
:101CD000771F440F551F661F771F440F551F661F40
:101CE000771FAACFAB01BC01440F551F661F771F9A
:101CF000440F551F661F771F9FCFC45BDE4F488080
:101D0000CC54D14041104DC02D98C35BDE4F18829A
:101D1000CD54D14021E0C45BDE4F2883CC54D14068
:101D2000C95BDE4F488059806A807B80C754D140B0
:101D3000411451046104710409F0A9CD2D98C95BC7
:101D4000DE4F188219821A821B82C754D140D1CD2E
:101D5000AB01BC01440F551F661F771F6DCF8E323C
:101D600008F0C2C0A7E0CB5CDE4FA883C553D140CA
:101D7000EA2FD7C981389E43A105B10508F448C0B0
:101D8000F894109297011092980110929901109274
:101D90009A0178942D98C45BDE4F1882CC54D140C0
:101DA000CDCFC35BDE4F1882CD54D140C95BDE4F2F
:101DB000488059806A807B80C754D14062CDAB0196
:101DC000BC01F1014083518362837383CD5CDE4F9C
:101DD000A881B981C353D1408C910E94B403CF5CD8
:101DE000DE4FE881F981C153D140608371838283E2
:101DF0009383C35DDE4FA881B981CD52D1401C923F
:101E0000F3C9AB01BC017695679557954795D9CF36
:101E1000C45BDE4F1882CC54D140C95BDE4F488092
:101E200059806A807B80C754D1402BCD90E290933B
:101E30007C0090917A00906490937A00D12CC55BDD
:101E4000DE4F0881CB54D140045010E0E5E0F1E0D2
:101E5000EC0FFD1FE00FF11F9081891708F065C09E
:101E6000492F50E0481B5109662757FD6095762F92
:101E7000443051056105710558F1E5E0F1E0EC0FE2
:101E8000FD1FE00FF11F8083000F111F000F111FB6
:101E9000E9EBF0E0EC0FFD1FE00FF11F40815181F5
:101EA00062817381DBCDAB01BC0176956795579557
:101EB0004795769567955795479583CFAB01BC01BC
:101EC000E3E07695679557954795EA95D1F779CFF1
:101ED000C55BDE4FD882CB54D140C15CDE4F198246
:101EE0001882CF53D14044C88C33B8F5B6E0CB5CF0
:101EF000DE4FB883C553D140EB2F13C9AB01BC01F2
:101F000034E076956795579547953A95D1F74F5FA9
:101F10005F4F6F4F7F4F55CF482F50E0491B5109FE
:101F2000662757FD6095762F30CD482F50E0491B2E
:101F30005109662757FD6095762F9ACFEA2FFF2724
:101F4000E1950CF4F0959F01442737FD4095542FFF
:101F50000E942211BA01A9011FC9893490F5E5E058
:101F6000CB5CDE4FE883C553D140DBC8813108F03C
:101F700045C080E122CDBA01A901440F551F661F5B
:101F8000771F440F551F661F771F440F551F661F8D
:101F9000771F53CDBA01A901440F551F661F771F44
:101FA000440F551F661F771F440F551F661F771F6D
:101FB000440F551F661F771F440F551F661F771F5D
:101FC0003CCD873550F5F4E0CB5CDE4FF883C5534C
:101FD000D140EF2FA6C8BA01A901440F551F661FB3
:101FE000771F440F551F661F771F440F551F661F2D
:101FF000771F440F551F661F771F1FCD8032E0F5F6
:1020000088E0DBCCBA01A901440F551F661F771F7A
:10201000440F551F661F771F10CD843608F080C00F
:1020200023E0CB5CDE4F2883C553D140E22F79C833
:10203000682F772761950CF470954B01AA2497FCC3
:10204000A094BA2CCA01B901A50194010E942211E1
:10205000BA01A901F2CCBA01A90176956795579505
:102060004795EBCCBA01A901E8CCBA01A901440F0C
:10207000551F661F771FE1CC8E3208F067C087E0DE
:102080009CCCBA01A90183E0769567955795479551
:102090008A95D1F7D2CCBA01A901B4E076956795BB
:1020A00057954795BA95D1F74F5F5F4F6F4F7F4F69
:1020B000E9EBF0E0EC0FFD1FE00FF11F40835183CF
:1020C00062837383E5E0F1E0EC0FFD1FEE0DFF1D71
:1020D00080810E94B403E9EAF0E0EC0FFD1FE00FFD
:1020E000F11F608371838283938350EFC51609F4D7
:1020F000EFCEE9E9F0E0EC0FFD1FE00FF11F1082D9
:10210000118212821382C55BDE4FD882CB54D1403C
:10211000C15CDE4F19821882CF53D1400C94B807AE
:102120008137C0F432E0CB5CDE4F3883C553D140F9
:10213000E32F0C949108BA01A901769567955795FC
:102140004795769567955795479577CC8C33A0F54D
:1021500086E033CC0E944B06CB5CDE4F8883C553B0
:10216000D140F8018083D4016D917D918D919C9136
:10217000CB5CDE4FB881C553D140B03411F00C9424
:102180009908AB01BC01440F551F661F771F440F10
:10219000551F661F771F440F551F661F771F440F7B
:1021A000551F661F771F440F551F661F771F440F6B
:1021B000551F661F771F40CD893410F485E0FDCB95
:1021C000873510F484E0F9CB843610F483E0F5CB46
:1021D000813710F482E0F1CB0E944B06E1E0F1E0A0
:1021E000EC0FFD1FEE0DFF1D80838701000F111FF7
:1021F000000F111FE9ECF0E0EC0FFD1FE00FF11FE5
:102200002081318142815381803409F0ECCBBA01C5
:10221000A901440F551F661F771F440F551F661FE6
:10222000771F440F551F661F771F440F551F661FEA
:10223000771F440F551F661F771F440F551F661FDA
:10224000771FFBCBA1E21A2EAA1BBB1BFD010DC001
:10225000AA1FBB1FEE1FFF1FA217B307E407F50756
:1022600020F0A21BB30BE40BF50B661F771F881F32
:10227000991F1A9469F760957095809590959B01C8
:10228000AC01BD01CF010895B7FF0C944C110E9421
:102290004C11821B930B08950E945711A59F900D1E
:1022A000B49F900DA49F800D911D11240895A29FAD
:1022B000B001B39FC001A39F700D811D1124911D1A
:1022C000B29F700D811D1124911D0895F894FFCFC8
:1022D000F0F4F8F9FAFBFCFDFE0102030405060721
:1022E000081020F0F4F8F9FAFBFCFDFE01020304EB
:1022F000050607081020F0F4F8F9FAFBFCFDFE01D2
:10230000020304050607081020F0F4F8F9FAFBFCB4
:0C231000FDFE0102030405060708102072
:00000001FF
