:100000000C9434000C9451000C9451000C94510049
:100010000C9451000C941B010C9451000C94510051
:100020000C9451000C9451000C9451000C9451000C
:100030000C9451000C9451000C9451000C945100FC
:100040000C9453000C9451000C9451000C945100EA
:100050000C9451000C9451000C9451000C945100DC
:100060000C9451000C94510011241FBECFEFD8E026
:10007000DEBFCDBF11E0A0E0B1E0E8E4F6E202C0EF
:1000800005900D92AC34B107D9F721E0ACE4B1E0B2
:1000900001C01D92AF39B207E1F70E9403060C942C
:1000A00022130C9400001F920F920FB60F9211248E
:1000B0008F939F93AF93BF93EF93FF93F8948091A7
:1000C0009B0190919C01A0919D01B0919E01019690
:1000D000A11DB11D80939B0190939C01A0939D0154
:1000E000B0939E018091970190919801A091990100
:1000F000B0919A010196A11DB11D80939701909333
:100100009801A0939901B0939A01E7E8F1E080810A
:100110009181A281B3810196A11DB11D808391833C
:10012000A283B38384819581A681B7810196A11DA5
:10013000B11D84839583A683B78380859185A2852D
:10014000B3850196A11DB11D80879187A287B387D2
:1001500084859585A685B7850196A11DB11D8487E7
:100160009587A687B787E7E6F1E080819181A28134
:10017000B3810196A11DB11D80839183A283B383B6
:1001800084819581A681B7810196A11DB11D8483CB
:100190009583A683B78380859185A285B3850196D3
:1001A000A11DB11D80879187A287B387848595851E
:1001B000A685B7850196A11DB11D84879587A68761
:1001C000B787E7E7F1E080819181A281B381019651
:1001D000A11DB11D80839183A283B3838481958106
:1001E000A681B7810196A11DB11D84839583A68345
:1001F000B78380859185A285B3850196A11DB11D28
:1002000080879187A287B38784859585A685B785E2
:100210000196A11DB11D84879587A687B78778941D
:10022000FF91EF91BF91AF919F918F910F900FBE72
:100230000F901F9018951F920F920FB60F921124D6
:100240004F935F936F937F938F9348997EC01092E3
:100250005001499958C0109251014A9932C01092E8
:1002600052014B9B2BC08091530181111DC081E035
:1002700080935301409193015091940160919501B5
:1002800070919601409363015093640160936501FE
:10029000709366011092930110929401109295014F
:1002A0001092960180934F018F917F916F915F9192
:1002B0004F910F900FBE0F901F9018951092530101
:1002C000F3CF809152018111CCCF81E08093520114
:1002D00040918F0150919001609191017091920134
:1002E00040935F01509360016093610170936201DC
:1002F00010928F0110929001109291011092920130
:1003000080934E01AECF809151018111A6CF81E043
:100310008093510140918B0150918C0160918D012E
:1003200070918E0140935B0150935C0160935D017D
:1003300070935E0110928B0110928C0110928D01CE
:1003400010928E0180934D0188CF809150018111D0
:1003500080CF81E0809350014091870150918801C6
:100360006091890170918A0140935701509358011F
:100370006093590170935A0110928701109288017D
:100380001092890110928A0180934C0162CF84E01F
:10039000809368008FE080936D000895F8946091D9
:1003A0009B0170919C0180919D0190919E01789498
:1003B0000895F89460919701709198018091990146
:1003C00090919A0178940895F89410929701109260
:1003D00098011092990110929A0178940895F894D6
:1003E00010929B0110929C0110929D0110929E010F
:1003F00078940895F89410929701109298011092B1
:10040000990110929A0110929B0110929C011092F6
:100410009D0110929E01E7E7F1E0108211821282A5
:100420001382148215821682178210861186128614
:1004300013861486158616861786E7E8F1E0108283
:1004400011821282138214821582168217821086FC
:100450001186128613861486158616861786E7E699
:10046000F1E01082118212821382148215821682A8
:1004700017821086118612861386148615861686B4
:10048000178614BC82E085BD16BCEEE6F0E08081E4
:10049000816080837894089524982C9A259A8AB153
:1004A000807F8AB98BB1807F8BB98AB18F708AB90E
:1004B0008BB18F708BB984B18F6084B9089587B187
:1004C000807C87B988B1807C88B98FE380937E0077
:1004D000EAE7F0E080E8808380E280937C0080811E
:1004E000876080838081806480830895853010F4E4
:1004F00080E20895813110F480E108958E3110F486
:1005000088E008958B3210F487E00895883310F462
:1005100086E00895843410F485E00895803510F461
:1005200084E008958B3510F483E00895873610F445
:1005300082E008950C94DD050F931F938034D1F170
:10054000803209F454C0803109F46AC0883009F15E
:10055000843009F47AC0823009F482C091E0980FA7
:10056000933008F484C08E3F09F492C08C3F09F4A4
:1005700096C0883F09F49EC0803F09F47BC087FD88
:10058000A3C0A82F880FBB0B9A01AB010E940013D8
:100590000EC0440F551F661F771F440F551F661F5F
:1005A000771FCB01BA01660F771F881F991F1F9114
:1005B0000F910895440F551F661F771F440F551F55
:1005C000661F771F440F551F661F771F440F551F67
:1005D000661F771FCB01BA01660F771F881F991F0F
:1005E000660F771F881F991F1F910F910895440F61
:1005F000551F661F771F440F551F661F771F440F37
:10060000551F661F771F440F551F661F771FCB01AD
:10061000BA01660F771F881F991F1F910F910895C8
:10062000440F551F661F771F440F551F661F771F06
:10063000CB01BA01660F771F881F991F660F771FBE
:10064000881F991F1F910F910895CB01BA01660F62
:10065000771F881F991F660F771F881F991FA7CFC5
:10066000CB01BA01660F771F881F991FA0CFCB015E
:10067000BA019DCF84E076956795579547958A9501
:10068000D1F7CB01BA016F5F7F4F8F4F9F4F8FCF55
:10069000CB01BA01969587957795679588CFCB0161
:1006A000BA019695879577956795969587957795ED
:1006B00067957DCFCB01BA0123E096958795779515
:1006C00067952A95D1F773CF282F332721950CF4FE
:1006D00030958901330F220B330BCB01BA01A901ED
:1006E00098010E94DE12CA01B90161CFCF92DF9258
:1006F000EF92FF920F931F9380958430F0F4413A6C
:1007000051056105710508F44DC004E610E020E0D4
:1007100030E04456510961097109401751076207D9
:10072000730710F48A019B01C901B8011F910F9151
:10073000FF90EF90DF90CF9008958A019B018E305B
:10074000C0F4A5E03695279517950795AA95D1F79A
:10075000413A51056105710538F30436110521054B
:10076000310550F18A3FA8F24456510961097109D7
:10077000D9CF883130F1823260F594E036952795F3
:10078000179507959A95D1F76A017B01E5E0F694F4
:10079000E794D794C794EA95D1F70C0D1D1D2E1D33
:1007A0003F1DD6CF8A019B01B6E036952795179558
:1007B0000795BA95D1F7B8CF04E610E020E030E015
:1007C000D1CFF4E03695279517950795FA95D1F78F
:1007D000BFCF8C32B8F08633E8F4F3E03695279536
:1007E00017950795FA95D1F76A017B01A5E0F69474
:1007F000E794D794C794AA95D1F70C0D1D1D2E1D13
:100800003F1DA6CFB3E03695279517950795BA9566
:10081000D1F79ECF8034A8F493E0369527951795AD
:1008200007959A95D1F76A017B01E4E0F694E79485
:10083000D794C794EA95D1F70C0D1D1D2E1D3F1DB1
:1008400087CF8A3410F5B3E036952795179507952D
:10085000BA95D1F76A017B0194E0F694E794D794B6
:10086000C7949A95D1F7C00ED11EE21EF31E8A01DD
:100870009B01E5E03695279517950795EA95D1F701
:100880000C0D1D1D2E1D3F1D63CF853548F436957B
:10089000279517950795369527951795079558CF5E
:1008A0008E35B0F43695279517950795369527958B
:1008B000179507956A017B01F4E0F694E794D794C5
:1008C000C794FA95D1F70C0D1D1D2E1D3F1D40CF6D
:1008D0008836B0F436952795179507953695279560
:1008E000179507956A017B0193E0F694E794D794F6
:1008F000C7949A95D1F70C0D1D1D2E1D3F1D28CFB5
:10090000823718F5369527951795079536952795CB
:10091000179507956A017B01F3E0F694E794D79465
:10092000C794FA95D1F7C00ED11EE21EF31E8A01BC
:100930009B01A4E03695279517950795AA95D1F7C1
:100940000C0D1D1D2E1D3F1D03CF8C3828F4369530
:10095000279517950795FCCE863990F436952795FF
:10096000179507956A017B01E5E0F694E794D79423
:10097000C794EA95D1F70C0D1D1D2E1D3F1DE8CE25
:10098000803A90F436952795179507956A017B0173
:10099000B4E0F694E794D794C794BA95D1F70C0DC8
:1009A0001D1D2E1D3F1DD4CE8A3A28F4369527955D
:1009B000179507954FCF843B90F43695279517955B
:1009C00007956A017B01B3E0F694E794D794C79446
:1009D000BA95D1F70C0D1D1D2E1D3F1DB9CE8E3BB6
:1009E000F8F436952795179507956A017B01E3E0A2
:1009F000F694E794D794C794EA95D1F7C00ED11E28
:100A0000E21EF31E8A019B01F5E0369527951795A6
:100A10000795FA95D1F70C0D1D1D2E1D3F1D98CE83
:100A2000883C28F4369527951795079573CF823D16
:100A300060F536952795179507956A017B01B3E018
:100A4000F694E794D794C794BA95D1F7C00ED11E07
:100A5000E21EF31E8A019B0194E0369527951795B7
:100A600007959A95D1F7C00ED11EE21EF31E8A019A
:100A70009B01E5E03695279517950795EA95D1F7FF
:100A80000C0D1D1D2E1D3F1D63CE8C3D98F436951B
:100A90002795179507956A017B01F694E794D794FB
:100AA000C794F694E794D794C7940C0D1D1D2E1D82
:100AB0003F1D4ECE863E00F5369527951795079536
:100AC0006A017B01F694E794D794C794F694E7946F
:100AD000D794C794C00ED11EE21EF31E8A019B015B
:100AE00094E036952795179507959A95D1F70C0DB3
:100AF0001D1D2E1D3F1D2CCE803F00F536952795E0
:100B0000179507956A017B01F694E794D794C794EB
:100B1000F694E794D794C794C00ED11EE21EF31E3C
:100B20008A019B01F3E03695279517950795FA956D
:100B3000D1F70C0D1D1D2E1D3F1D0ACE8A3F68F5F5
:100B400036952795179507956A017B01F694E794EA
:100B5000D794C794F694E794D794C794C00ED11E47
:100B6000E21EF31E8A019B01A3E036952795179597
:100B70000795AA95D1F7C00ED11EE21EF31E8A0179
:100B80009B01B4E03695279517950795BA95D1F74F
:100B90000C0D1D1D2E1D3F1DDBCD95E036952795B7
:100BA000179507959A95D1F76A017B01C01AD10A6A
:100BB000E20AF30A97018601CBCD843790F087FFD4
:100BC00012C08B3890F0883990F0853A90F0823BD3
:100BD00090F08F3B90F08D3C90F08D3D90F080EF49
:100BE000089581E008958EEF08958DEF08958CEFBC
:100BF00008958BEF08958AEF089589EF089588EF9F
:100C0000089584EF0895CF93DF93CDB7DEB7C45531
:100C1000D1400FB6F894DEBF0FBECDBF9E01275165
:100C20003F4FC75EDE4F39832883C951D14080E1F1
:100C3000D901E82F1D92EA95E9F720513109CB5DE2
:100C4000DE4F39832883C552D140D901E82F1D9248
:100C5000EA95E9F720513109CD5DDE4F39832883CC
:100C6000C352D140D901E82F1D92EA95E9F72051EE
:100C70003109CF5DDE4F39832883C152D140D9017C
:100C8000E82F1D92EA95E9F720513109C15EDE4F48
:100C900039832883CF51D140D901E82F1D92EA959D
:100CA000E9F720513109C35EDE4F39832883CD51E6
:100CB000D140D9011D928A95E9F7CB5EDE4F1882AB
:100CC00019821A821B82C551D14081E0CF5EDE4F6E
:100CD0008883C151D140CE5EDE4F8883C251D1405E
:100CE000CD5EDE4F8883C351D140CC5EDE4F88831A
:100CF000C451D140FE01E35BFF4FC55EDE4FF98377
:100D0000E883CB51D1409CE4C92E1192CA94E9F7F3
:100D1000C35FDE4F188219821A821B82CD50D140E8
:100D2000E0E0F1E0DE01119601900D929A95E1F775
:100D30009FE7C75FDE4F9883C950D140C65FDE4F43
:100D40009883CA50D140C55FDE4F9883CB50D140C5
:100D5000C45FDE4F9883CC50D140CB5FDE4F988389
:100D6000C550D140CA5FDE4F9883C650D140C95F9D
:100D7000DE4F9883C750D140C85FDE4F9883C8507C
:100D8000D140CF5FDE4F8883C150D140CE5FDE4F70
:100D90008883C250D140CD5FDE4F8883C350D1409D
:100DA000CC5FDE4F8883C450D1400E94FA010E947C
:100DB0004C0284E0809368008FE080936D000E9475
:100DC0005F028FE19EE40197F1F700C0000080917F
:100DD0005601807D80935601C65BDE4F1882CA544F
:100DE000D140C55BDE4F1882CB54D140C45BDE4F8F
:100DF0001882CC54D140C35BDE4F1882CD54D14011
:100E0000CC5ADE4F1882C455D140C15CDE4F1882E7
:100E1000CF53D140C25BDE4F19821882CE54D140ED
:100E2000C75BDE4F1882C954D140C85BDE4F1882C1
:100E3000C854D140C05CDE4F188219821A821B82CE
:100E4000C054D140ADE4B0E0AC0FBD1F1196C05B03
:100E5000DE4FB983A883C055D140EDE4F0E0EC0F3C
:100E6000FD1F3296CE5ADE4FF983E883C255D1403A
:100E7000F89480914C01C750DF4F8883C95FD04000
:100E800080914D01C650DF4F8883CA5FD04080916A
:100E90004E01C550DF4F8883CB5FD04080914F011A
:100EA000C450DF4F8883CC5FD04078949E01275098
:100EB0003F4FC35CDE4F39832883CD53D140AE0111
:100EC00047545F4FC55CDE4F59834883CB53D140B5
:100ED000BE0167567F4F6B01CE01835B9F4FCB5C9A
:100EE000DE4F99838883C553D140C05BDE4FE880D5
:100EF000F980C055D140C95CDE4FF982E882C75302
:100F0000D140CE5ADE4FE880F980C255D140C75C4F
:100F1000DE4FF982E882C953D140205331093901AB
:100F2000485B51091A0168587F4FCA5BDE4F7983CD
:100F30006883C654D1408E010F5F1E4F88549F4F67
:100F4000C75DDE4F99838883C952D140DE01A75522
:100F5000BF4FC35DDE4FB983A883CD52D140FE01A0
:100F6000E35FFE4FCC5BDE4FF983E883C454D1408E
:100F7000C15DDE4FF983E883CF52D1402B01645C21
:100F800071094B018C549109C95DDE4F99838883A7
:100F9000C752D140E12CF12CC35CDE4FA881B9814E
:100FA000CD53D1408D91C35CDE4FB983A883CD531F
:100FB000D140882309F4ACC6F8945701AA0CBB1C95
:100FC000AA0CBB1C9501295A3E4FF90180819181E1
:100FD000A281B381F30180839183A283B383D7017C
:100FE000A45BBE4F1C92D9011D921D921D921C92B2
:100FF0001397F501E959FE4F108211821282138274
:101000007894E9E0F1E0EC0FFD1FEE0DFF1D80810B
:10101000853008F009C720E2CF5CDE4F2883C1533A
:10102000D140F8012083D3014D915D916D917C9168
:10103000CF5CDE4FB881C153D140B03209F47FC7D5
:10104000EB2FB03109F4BAC7B83011F40C94491041
:101050002E2FB43011F40C945610B23011F40C94BD
:101060006210822F8F5F833008F444C7CF5CDE4F5D
:101070008881C153D1408E3F11F40C9487108C3F6E
:1010800009F430C7883F11F40C94ED10803F11F43F
:101090000C94011187FF02C00C941711A82F880F20
:1010A000BB0B9A01AB010E940013AB01BC01C95DEF
:1010B000DE4FA881B981C752D1404D935D936D93A6
:1010C0007C931397C75DDE4FE881F981C952D14007
:1010D00080810E947603C35DDE4FA881B981CD5225
:1010E000D1406D937D938D939C931397C15DDE4F9B
:1010F000E881F981CF52D1401082CF5CDE4FF88178
:10110000C153D140F230ACF4E1E0D201EC93F601EE
:1011100080819181A281B381892B8A2B8B2B49F409
:10112000F894F501E958FE4F108211821282138261
:101130007894A4014D5E5F4FF401B50169587E4F6C
:10114000CF5CDE4F39822882C153D14090819F5FAE
:101150009083CF5CDE4FA881B981C153D1408D917E
:10116000CF5CDE4FB983A883C153D140981758F0A4
:10117000D8012C91022E000C330B90E02817390770
:1011800009F4B0C510823196E417F507F9F6C75C8B
:10119000DE4FA881B981C953D140FFEFEF1AFF0A92
:1011A000C95DDE4F28813981C752D1402C5F3F4F46
:1011B000C95DDE4F39832883C752D14034E0C30E66
:1011C000D11CCB5CDE4F68817981C553D1406C5E08
:1011D0007F4FCB5CDE4F79836883C553D140C95CB8
:1011E000DE4F88819981C753D1404396C95CDE4F59
:1011F00099838883C753D1404A015396C75CDE4F19
:10120000B983A883C953D140B4E06B0E711CE3E1EC
:101210002E0E311CFFEF4F1A5F0A0F5F1F4FC75D85
:10122000DE4F28813981C952D1402F5F3F4FC75DC2
:10123000DE4F39832883C952D140C35DDE4F4881D8
:101240005981CD52D1404C5F5F4FC35DDE4F598312
:101250004883CD52D140C15DDE4F68817981CF5244
:10126000D1406F5F7F4FC15DDE4F79836883CF527E
:10127000D14074E0E716F10409F08ECEF894809125
:10128000670190916801A0916901B0916A01C7520C
:10129000DF4F88839983AA83BB83C95DD040809147
:1012A0006B0190916C01A0916D01B0916E01C352E0
:1012B000DF4F88839983AA83BB83CD5DD040809123
:1012C0006F0190917001A0917101B0917201CF51A5
:1012D000DF4F88839983AA83BB83C15ED04080910E
:1012E000730190917401A0917501B0917601CB5179
:1012F000DF4F88839983AA83BB83C55ED0407894EF
:101300004C9BEAC5C35BDE4FC880CD54D140C110B1
:101310008FC628982E961FAE2E972F961FAE2F970A
:1013200060961FAE609761961FAE619762961FAE82
:10133000629763961FAE639764961FAE6497659637
:101340001FAE659766961FAE669767961FAE679746
:1013500068961FAE689769961FAE69976A961FAE2A
:101360006A976B961FAE6B976C961FAE6C976D96D7
:101370001FAE6D976E961FAE6E976F961FAE6F97EE
:10138000A0961FAEA097C752DF4F88819981AA818E
:10139000BB81C95DD040C756DF4F88839983AA833C
:1013A000BB83C959D040DD24D394CB5EDE4FD882B5
:1013B000C551D140CF5EDE4F1882C151D14021E0EE
:1013C000C35BDE4F2883CD54D1404D9B7FC5C45BAA
:1013D000DE4FC880CC54D140C11023C62998A196B5
:1013E0001FAEA197A2961FAEA297A3961FAEA3977A
:1013F000A4961FAEA497A5961FAEA597A6961FAE5E
:10140000A697A7961FAEA797A8961FAEA897A996CE
:101410001FAEA997AA961FAEAA97AB961FAEAB9721
:10142000AC961FAEAC97AD961FAEAD97AE961FAE05
:10143000AE97AF961FAEAF97E0961FAEE097E196DE
:101440001FAEE197E2961FAEE297E3961FAEE397D9
:10145000C352DF4F88819981AA81BB81CD5DD04085
:10146000C356DF4F88839983AA83BB83CD59D0406D
:10147000DD24D394CA5EDE4FD882C651D140CE5E01
:10148000DE4F1882C251D14021E0C45BDE4F288379
:10149000CC54D1404E9B14C5C55BDE4FC880CB54A5
:1014A000D140C1109CC52A98E4961FAEE497E596FA
:1014B0001FAEE597E6961FAEE697E7961FAEE79755
:1014C000E8961FAEE897E9961FAEE997EA961FAE39
:1014D000EA97EB961FAEEB97EC961FAEEC97ED9666
:1014E0001FAEED97EE961FAEEE97EF961FAEEF97FD
:1014F000C158DF4F1882CF57D040C058DF4F1882F5
:10150000C058D040CF57DF4F1882C158D040CE5777
:10151000DF4F1882C258D040CD57DF4F1882C358D2
:10152000D040CC57DF4F1882C458D040CB57DF4F44
:101530001882C558D040CF51DF4F88819981AA8148
:10154000BB81C15ED040CF55DF4F88839983AA838A
:10155000BB83C15AD040DD24D394C95EDE4FD8820C
:10156000C751D140CD5EDE4F1882C351D14021E03A
:10157000C55BDE4F2883CB54D14089B190E0880F02
:10158000892F881F990B892B09F494C4C65BDE4F01
:10159000C880CA54D140C11029C52B98CA57DF4F03
:1015A0001882C658D040C957DF4F1882C758D0405C
:1015B000C857DF4F1882C858D040C757DF4F18822E
:1015C000C958D040C657DF4F1882CA58D040C557B7
:1015D000DF4F1882CB58D040C457DF4F1882CC5809
:1015E000D040C357DF4F1882CD58D040C257DF4F8D
:1015F0001882CE58D040C157DF4F1882CF58D04004
:10160000C057DF4F1882C059D040CF56DF4F1882E5
:10161000C159D040CE56DF4F1882C259D040CD5666
:10162000DF4F1882C359D040CC56DF4F1882C459BF
:10163000D040CB56DF4F1882C559D040CA56DF4F35
:101640001882C659D040C956DF4F1882C759D040BA
:10165000C856DF4F1882C859D040CB51DF4F888120
:101660009981AA81BB81C55ED040CB55DF4F88836D
:101670009983AA83BB83C55AD040DD24D394C85E26
:10168000DE4FD882C851D140CC5EDE4F1882C451A3
:10169000D14021E0C65BDE4F2883CA54D140C15CF3
:1016A000DE4F4881CF53D1404F5FC15CDE4F48834E
:1016B000CF53D140443008F0C2C3242F30E0C901D9
:1016C000880F991F880F991FE9E9F0E0EC0FFD1FC3
:1016D000E80FF91F408151816281738141155105E5
:1016E00061057105F1F0A1E0B1E0AC0FBD1FA20FE3
:1016F000B31F2C9122300CF4E2C4A9EBB0E0AC0F84
:10170000BD1FA80FB91F8D919D910D90BC91A02D6B
:1017100084179507A607B70720F41082118212825A
:101720001382F8948091770190917801A0917901CA
:10173000B0917A01C751DF4F88839983AA83BB8315
:10174000C95ED04080917B0190917C01A0917D0188
:10175000B0917E01C351DF4F88839983AA83BB83F5
:10176000CD5ED04080917F0190918001A091810158
:10177000B0918201CF50DF4F88839983AA83BB83C6
:10178000C15FD0408091830190918401A091850137
:10179000B0918601CB50DF4F88839983AA83BB83A6
:1017A000C55FD0408091670190916801A091690167
:1017B000B0916A01C752DF4F88839983AA83BB83A4
:1017C000C95DD04080916B0190916C01A0916D0139
:1017D000B0916E01C352DF4F88839983AA83BB8384
:1017E000CD5DD04080916F0190917001A091710109
:1017F000B0917201CF51DF4F88839983AA83BB8355
:10180000C15ED0408091730190917401A0917501E7
:10181000B0917601CB51DF4F88839983AA83BB8334
:10182000C55ED040789410915601FE01E350FF4F01
:10183000BE016B5E7E4F20E030E080E090E09924B6
:101840009A94CA5BDE4FA881B981C654D1401B016E
:101850005F01C95DDE4F9882C752D140CC5BDE4F3D
:1018600088809980C454D140082FC95DDE4FC8805C
:10187000C752D140F501C082C55CDE4FE881F981D5
:10188000CB53D1404191519161917191C55CDE4F33
:10189000F983E883CB53D1404115510561057105AA
:1018A00009F455C2E9EEF0E0EC0FFD1FE20FF31F63
:1018B000C080D180E280F380CF5CDE4FC882D982C5
:1018C000EA82FB82C153D140E9EAF0E0EC0FFD1F50
:1018D000E20FF31F4080518062807380C414D504EE
:1018E000E604F70448F0E1E0F0E0082E01C0EE0F56
:1018F0000A94EAF7E0951E23E9E9F0E0EC0FFD1FFA
:10190000E20FF31F4080518062807380E9EDF0E0C8
:10191000EC0FFD1FE20FF31FC080D180E280F38047
:10192000C414D504E604F70408F41BC2EC91EE23BA
:1019300009F417C2F10110821C92F5011082E1E056
:10194000F0E0002E01C0EE0F0A94EAF71E2BF4011E
:10195000F080FA94F08245284628472809F00AC208
:10196000E1E0F1E0EC0FFD1FE80FF91FF0801F141C
:101970000CF01EC30196FFEFAF1ABF0A2C5F3F4F5A
:101980004FEF841A940A5FEF251A350A11968430B6
:10199000910509F069CF10935601F894C350DF4FB9
:1019A0008881CD5FD0408F3F59F090E0A0E0B0E05B
:1019B0008093770190937801A0937901B0937A0195
:1019C000C250DF4F8881CE5FD0408F3F59F090E00A
:1019D000A0E0B0E080937B0190937C01A0937D0117
:1019E000B0937E01C150DF4F8881CF5FD0408F3FE1
:1019F00059F090E0A0E0B0E080937F0190938001E7
:101A0000A0938101B0938201C050DF4F8881C05004
:101A1000D1408F3F59F090E0A0E0B0E08093830187
:101A200090938401A0938501B0938601789485B149
:101A3000807D90915601892B85B91C9908C2F89434
:101A400080919B0190919C01A0919D01B0919E017C
:101A50007894C75BDE4FC880C954D140C110EFC233
:101A6000F89410929B0110929C0110929D0110928B
:101A70009E017894F8941092970110929801109218
:101A8000990110929A017894209156012062209336
:101A90005601C05CDE4F88839983AA83BB83C05400
:101AA000D14021E0C75BDE4F2883C954D140C85BD9
:101AB000DE4F1882C854D1406C017D01C114D1049D
:101AC000E104F10409F4E8C1F89480919701909140
:101AD0009801A0919901B0919A017894B701A6015B
:101AE000769567955795479584179507A607B70785
:101AF00028F0209156012F7D20935601C05CDE4FC7
:101B0000C880D980EA80FB80C054D140C816D9066D
:101B1000EA06FB0698F48C199D09AE09BF09F894F2
:101B20008093970190939801A0939901B0939A01A3
:101B3000789480915601806280935601C15CDE4F9B
:101B40002881CF53D140233009F092C9C25BDE4FC8
:101B500048815981CE54D1404F5F5F4FC25BDE4F09
:101B600059834883CE54D140453051050CF480C987
:101B700080917A0084FF7CC980917A008061809393
:101B80007A0080917900CC5ADE4FD880C455D1407C
:101B9000D39457E05D1508F4BFC29D2D90629093D9
:101BA0007C0090917A00906490937A00CC5ADE4F3A
:101BB0006881C455D140643008F0B7C2062F10E0E8
:101BC000E9E0F1E0EC0FFD1FE00FF11F208182172B
:101BD00008F023C330E0281B3109A901330F660B3D
:101BE000770B423051056105710508F4E9C2E9E05F
:101BF000F1E0EC0FFD1FE00FF11F8083E1E0F1E069
:101C0000EC0FFD1FE00FF11FC080853008F05FC3AF
:101C1000A0E2E1E0F1E0EC0FFD1FE00FF11FA08377
:101C20007801EE0CFF1CEE0CFF1CE9ECF0E0EC0F71
:101C3000FD1FEE0DFF1D6081718182819381A032B5
:101C400009F483C3A03109F46BC3A83009F496C327
:101C5000A43009F45CC3A23009F4F2C321E02A0FD6
:101C60002330A8F0AE3F09F451C4AC3F09F445C499
:101C7000A83F09F450C4A03F09F4FAC3A7FDE5C387
:101C80000A2E000CBB0B9B01AC010E940013E9EB78
:101C9000F0E0EC0FFD1FEE0DFF1D6083718382836A
:101CA0009383E5E0F1E0EC0FFD1FE00FF11FAB01C6
:101CB000BC0180810E947603E9EAF0E0EC0FFD1F91
:101CC000EE0DFF1D6083718382839383CC5ADE4FB8
:101CD000D882C455D140C25BDE4F19821882CE54DF
:101CE000D140C6C821E0D2012C93D6018D909D90A1
:101CF000AD90BC9089288A288B2809F043CAF894B3
:101D0000DB011D921D921D921C92139778943ACA82
:101D1000F894F701EE0FFF1FEE0FFF1FE959FE4F7A
:101D200040815181628173817894F3018081918136
:101D3000A281B381880F991FAA1FBB1F8417950723
:101D4000A607B707B8F1A4014D5E5F4F20CA41E076
:101D500050E0082E01C0440F0A94EAF7409514237E
:101D600009CEF101F080F110E5CD4528462847283D
:101D700009F4F6CDCF5CDE4FC880D980EA80FB80C5
:101D8000C153D140C416D506E606F70608F4F2CDD5
:101D9000C41AD50AE60AF70AF501C08241E050E00C
:101DA00001C0440F0A95EAF7142BF4014081415019
:101DB0004083E0CDC95DDE4FA881B981C752D140D3
:101DC0001D921D921D921C921397F6011082118292
:101DD00012821382CB5CDE4FA881B981C553D140FA
:101DE0001C92C95CDE4FE881F981C753D140108253
:101DF000C75CDE4FA881B981C953D1401C92F40160
:101E0000138214821582168217821086118612861A
:101E100013861486158616861786108A118A128AEA
:101E2000A4014D5E5F4FB9C9813108F027C130E18F
:101E3000CF5CDE4F3883C153D140232FF2C820E05E
:101E400030E0C15CDE4F1882CF53D14038CCC85B44
:101E5000DE4FC880C854D140C110CFC08091560118
:101E60008F7D80935601C75BDE4F1882C954D140E5
:101E700021E0C85BDE4F2883C854D140C05CDE4FF0
:101E8000C880D980EA80FB80C054D140C114D104FD
:101E9000E104F10409F018CE809156018F7D809302
:101EA0005601C05CDE4F188219821A821B82C05410
:101EB000D14044CEC65BDE4F1882CA54D140EFCB2E
:101EC000C55BDE4F1882CB54D14057CBC45BDE4F8D
:101ED0001882CC54D140DECAC35BDE4F1882CD5489
:101EE000D14073CA769567955795479576956795CE
:101EF00057954795C95DDE4FE881F981C752D140BA
:101F00004083518362837383C75DDE4FA881B981AB
:101F1000C952D1408C910E947603C35DDE4FE881A7
:101F2000F981CD52D1406083718382839383C15DF7
:101F3000DE4FA881B981CF52D1401C92E5C8440F31
:101F4000551F661F771F440F551F661F771F440FCD
:101F5000551F661F771F440F551F661F771F440FBD
:101F6000551F661F771FC95DDE4FE881F981C75293
:101F7000D1404083518362837383C75DDE4FA88164
:101F8000B981C952D1408C910E947603C35DDE4F66
:101F9000E881F981CD52D14060837183828393833C
:101FA000C15DDE4FA881B981CF52D1401C92C1C81A
:101FB000F401E080FE140CF0DDCCDCCE440F551FA4
:101FC000661F771F440F551F661F771F440F551F4D
:101FD000661F771F440F551F661F771FC4CF31E060
:101FE000C55BDE4F3883CB54D140C7CA31E0C65BF6
:101FF000DE4F3883CA54D14052CBC75BDE4F1882C4
:10200000C954D14041E0C85BDE4F4883C854D14039
:10201000C05CDE4FC880D980EA80FB80C054D140CC
:102020004DCD31E0C45BDE4F3883CC54D14032CA51
:1020300031E0C35BDE4F3883CD54D140C6C981380F
:102040009E43A105B10508F442C0F894109297018F
:10205000109298011092990110929A0178948091AF
:1020600056018F7D41E0C75BDE4F4883C954D140A4
:10207000C85BDE4F1882C854D14010CF8E31D8F5DE
:1020800048E0CF5CDE4F4883C153D140242F0C94ED
:102090001108440F551F661F771F440F551F661FF9
:1020A000771F440F551F661F771F5DCF440F551FC5
:1020B000661F771F440F551F661F771F54CFA9EC6B
:1020C000B0E01DCB440F551F661F771F4CCF31E08A
:1020D000C75BDE4F3883C954D140C85BDE4F1882DE
:1020E000C854D140C05CDE4FC880D980EA80FB80F4
:1020F000C054D140E3CC8B3208F077C057E0CF5CBE
:10210000DE4F5883C153D140252F0C94110876958A
:10211000679557954795EECE90E290937C0090910D
:102120007A00906490937A00D12CCC5ADE4F0881CB
:10213000C455D140045010E0E5E0F1E0EC0FFD1F84
:10214000E00FF11F2081821708F0B7C030E0281B94
:102150003109A901330F660B770B44305105610536
:10216000710570F1E5E0F1E0EC0FFD1FE00FF11FEC
:102170008083000F111F000F111FE9EBF0E0EC0F3F
:10218000FD1FE00FF11F40815181628173810E9428
:102190007603E9EAF0E0EC0FFD1FE00FF11F60832A
:1021A000718382839383CC5ADE4FD882C455D14049
:1021B000C25BDE4F19821882CE54D1400C9438078E
:1021C000CC5ADE4FD882C455D140C25BDE4F198253
:1021D0001882CE54D1400C943807A3E076956795C9
:1021E00057954795AA95D1F785CE883308F073C0E7
:1021F00066E0CF5CDE4F6883C153D140262F0C943C
:102200001108F4E07695679557954795FA95D1F7BB
:102210004F5F5F4F6F4F7F4F6DCE482F50E0DA0119
:10222000A21BB109AD01BB0F660B770BDACC992766
:1022300081950CF49095092E000CAA0BBB0BCF5C7A
:10224000DE4F88839983AA83BB83C153D140CB01DE
:10225000BA01CF5CDE4F288139814A815B81C1534D
:10226000D1400E94DE12BA01A901C95DDE4FA881EA
:10227000B981C752D1404D935D936D937C93139771
:10228000C75DDE4FE881F981C952D14080810E944B
:102290007603C35DDE4FA881B981CD52D1406D93E5
:1022A0007D938D939C931397C15DDE4FE881F981F7
:1022B000CF52D14010820C948408482F50E07A010C
:1022C000E21AF108A701FF0C660B770B46CF8131AC
:1022D00068F4A0E19ECC843470F475E0CF5CDE4FEE
:1022E0007883C153D140272F0C9411088E3108F008
:1022F00056C0A8E08ECC803508F055C084E0CF5C95
:10230000DE4F8883C153D140282F0C941108660FEB
:10231000771F881F991F660F771F881F991FB7CCDB
:10232000DC01CB01880F991FAA1FBB1F880F991FC3
:10233000AA1FBB1FBC01CD01660F771F881F991F05
:10234000660F771F881F991FA2CCDC01CB01880F75
:10235000991FAA1FBB1F880F991FAA1FBB1F880F99
:10236000991FAA1FBB1F880F991FAA1FBB1FBC0163
:10237000CD01660F771F881F991F89CCDC01CB0127
:10238000880F991FAA1FBB1F880F991FAA1FBB1F69
:10239000BC01CD01660F771F881F991F78CC8B3247
:1023A00068F4A7E036CC8B3568F493E0CF5CDE4F61
:1023B0009883C153D140292F0C941108883368F4B5
:1023C000A6E027CC873668F4A2E0CF5CDE4FA88376
:1023D000C153D1402A2F0C941108843468F5A5E02C
:1023E00018CC0E94DD05CF5CDE4F8883C153D140FD
:1023F000F8018083D3014D915D916D917C91803482
:1024000011F00C941808440F551F661F771F440FD6
:10241000551F661F771F440F551F661F771F440FF8
:10242000551F661F771F440F551F661F771F440FE8
:10243000551F661F771F97CD8035A8F4A4E0E9CB20
:10244000660F771F881F991F22CCEA2FFF27E1957F
:102450000CF4F0959F01FF0F440B550B0E94DE1208
:10246000CA01B90114CC8B3508F05DC0A3E0D1CB13
:10247000AB01BC0124E076956795579547952A9561
:10248000D1F74F5F5F4F6F4F7F4FE9EBF0E0EC0FFD
:10249000FD1FEE0DFF1D4083518362837383E5E0D2
:1024A000F1E0EC0FFD1FE00FF11F80810E94760329
:1024B000E9EAF0E0EC0FFD1FEE0DFF1D6083718374
:1024C00082839383B0EFCB1609F47ACEE9E9F0E08A
:1024D000EC0FFD1FEE0DFF1D108211821282138280
:1024E000CC5ADE4FD882C455D140C25BDE4F198230
:1024F0001882CE54D1400C943807969587957795DD
:1025000067959695879577956795C1CB96958795AD
:1025100077956795BCCB33E09695879577956795CA
:102520003A95D1F7B4CB873610F4A2E072CB0E9473
:10253000DD05A82FE1E0F1E0EC0FFD1FE00FF11F3A
:1025400080837801EE0CFF1CEE0CFF1CE9ECF0E040
:10255000EC0FFD1FEE0DFF1D608171818281938163
:10256000A03409F06CCBAB01BC01440F551F661FB2
:10257000771F440F551F661F771F440F551F661F97
:10258000771F440F551F661F771F440F551F661F87
:10259000771F440F551F661F771FE9EBF0E0EC0F24
:1025A000FD1FEE0DFF1D4083518362837383E5E0C1
:1025B000F1E0EC0FFD1FE00FF11F7BCBA1E21A2E23
:1025C000AA1BBB1BFD010DC0AA1FBB1FEE1FFF1FD7
:1025D000A217B307E407F50720F0A21BB30BE40B27
:1025E000F50B661F771F881F991F1A9469F760956E
:1025F0007095809590959B01AC01BD01CF01089528
:10260000B7FF0C9408130E940813821B930B0895C4
:102610000E941313A59F900DB49F900DA49F800D51
:10262000911D11240895A29FB001B39FC001A39FE3
:10263000700D811D1124911DB29F700D811D1124FB
:08264000911D0895F894FFCFED
:10264800F0F4F8F9FAFBFCFDFE01020304050607A5
:10265800081020F0F4F8F9FAFBFCFDFE010203046F
:10266800050607081020F0F4F8F9FAFBFCFDFE0156
:10267800020304050607081020F0F4F8F9FAFBFC39
:0C268800FDFE01020304050607081020F7
:00000001FF
